:020000040800F2
:1000000030510020390300081343000875400008F0
:100010001143000829290008954E0008000000003F
:10002000000000000000000000000000590200086D
:100030002B29000800000000B5020008AD460008AA
:100040005303000853030008530300085303000838
:100050005303000853030008530300082D29000828
:100060003329000853030008530300085303000812
:100070005303000853030008530300085303000808
:1000800053030008530300085303000853030008F8
:1000900053030008530300085303000853030008E8
:1000A000530300084D47000853030008530300089A
:1000B0005303000800000000000000005303000884
:1000C00053030008530300085303000853030008B8
:1000D000530300087D4E000853030008894E0008B2
:1000E0005303000853030008000000000000000054
:1000F0000000000000000000000000000000000000
:100100000000000053030008000000005303000833
:1001100000000000000000005303000859470008D9
:100120005303000853030008530300085303000857
:100130005303000800000000000000000000000061
:100140005303000853030008530300080000000095
:1001500053030008530300087940000853030008C4
:100160005303000853030008530300080000000075
:1001700053030008530300080000000000000000C3
:1001800053030008530300085303000800F002F86B
:1001900000F053F80AA090E8000C82448344AAF1CE
:1001A0000107DA4501D100F048F8AFF2090EBAE8CC
:1001B0000F0013F0010F18BFFB1A43F0010318479B
:1001C000D88C0000F88C0000103A24BF78C878C1A1
:1001D000FAD8520724BF30C830C144BF04680C604D
:1001E000704700000023002400250026103A28BF95
:1001F00078C1FBD8520728BF30C148BF0B60704799
:10020000752900F09D81782900F0D681632900F0DE
:100210002285732900F02785002070471FB508F05C
:1002200013FC00F0ADFD04000020002107F0A2FE49
:10023000401C60601FBD10B510BD00F0B3FD11463D
:10024000FFF7ECFF05F003FE00F0D1FD03B4FFF76C
:10025000F2FF03BC00F0D4FD2C4B1968086800F0D5
:100260005AB880F30988BFF36F8F4FF0000080F316
:10027000118870470000000008480068006880F39B
:1002800008884FF0000080F3148862B661B6BFF3AF
:100290004F8FBFF36F8F00DF00BF00BF08ED00E09E
:1002A000DFF80C00016841F470010160704700BF85
:1002B00088ED00E0EFF30980BFF36F8F134B1A68EE
:1002C0001EF0100F08BF20ED108A20E9F04F1060DB
:1002D00009B44FF0500080F31188BFF34F8FBFF384
:1002E0006F8F06F0C7FE4FF0000080F3118809BC45
:1002F0001968086800F014B81EF0100F08BF00F06D
:1003000014B880F30988BFF36F8F7047A4000020F2
:10031000EFF30580704730C8B0E8C04FFFF7A1BFCA
:1003200030C8B0E8C04FFFF7E7BFB0EC088AB0ECC8
:1003300008CAFFF7E6BF00000948804709480047A0
:10034000FEE7FEE7FEE7FEE7FEE7FEE7FEE7FEE785
:10035000FEE7FEE704480549054A064B70470000E2
:100360003D4700088D010008304B0020305100202F
:10037000304D0020304D002053EA020C00F069801F
:100380002DE9F04B4FF00006002B1FBFB3FA83F5A9
:1003900003FA05F424FA05F65E4012BF1643B2FADA
:1003A00082F502FA05F4C5F120051EBF22FA05FC0C
:1003B00044EA0C04203556EA044C4FEA144418BFB2
:1003C000641C4FF000084FF00009904271EB030CE1
:1003D00039D3002919BFB1FA81F701FA07F6B0FA4B
:1003E00080F700FA07F6C7F120071EBF20FA07FCC6
:1003F00046EA0C062037B6FBF4FCA7EB0507103FD6
:1004000007F01F0BCBF120060CFA0BFB2CFA06F6BB
:1004100044BFB3460026202FA4BF5E464FF0000B1A
:100420005BEA060C08BF4FF0010B19EB0B09ABFBA5
:10043000027C48EB0608C01B06FB02CC0BFB03CC7E
:1004400071EB0C01C1E70B46024641464846BDE848
:10045000F08B13B54FF000004FF00001AFF30080B8
:10046000BDE81C40704700000FB47CB50C0009AA21
:10047000009001D02044401E084B7B446946019007
:10048000089800F0BEFB05461CB10020694600F04C
:10049000CBFB28467CBC5DF814FB0000B5070000D0
:1004A00070B5044685690068C10601D5302600E0B4
:1004B0002026C00707D070BDD4E9012130469047FF
:1004C000206A401C20626D1EF6D570BD70B50446D2
:1004D00085690078C00707D170BDD4E901212020CB
:1004E0009047206A401C20626D1EF6D570BD70B525
:1004F0000C460546012A05D02878800600D5EA6911
:10050000002302E0012305E05B1C934202D2E05C81
:100510000028F9D1A869E618C01AA861286A184409
:1005200028622846FFF7BCFF04E0D5E9012114F852
:10053000010B9047B442F8D32846FFF7C7FF70BDC0
:100540002DE9F0410646002410687529314616A5AC
:1005500010D0AFF30080002802DA404213A507E074
:1005600031688A0701D512A502E0490704D511A513
:10057000012401E0AFF3008000210A2206F12407E4
:1005800009E0B0FBF2FCB0FBF2F302FB1C003030E0
:1005900078541846491C0028F3D123462A46304691
:1005A000BDE8F04100F0CFBA000000002D000000CF
:1005B0002B0000002000000070B504460D462146C7
:1005C0001068AFF300802188090502D50F4A7A44EC
:1005D00002E00E4A7A440E32002104F1240305E0C1
:1005E00000F00F060009965D5E54491C0028F7D103
:1005F00020780023000704D5702D02D009B1022312
:1006000011322046BDE8704000F09DBA1686000009
:100610002DE9F05F894604464FF0000ADFF874B117
:10062000FB44C0F820A02046E1688847002874D029
:10063000252806D0D4E901219047206A401C206279
:10064000F1E700265F462046E168884720280546F6
:1006500007DB312D05D2781910F8200C08B10643BC
:10066000F1E7B00701D526F00406C4F81CA0002766
:10067000C4F818A02A2D09D0284605F0CDFB38B3C0
:1006800004EB8708303DC8F8185019E059F8041BEE
:10069000204604EB87029161E1688847012F0546F7
:1006A00018D1E069002820DA26F020061DE0D8F8ED
:1006B000180000EB800005EB40003038C8F8180047
:1006C0002046E1688847054605F0A6FB0028EED1E4
:1006D000012F0AD02E2D08D12046E16888477F1CC3
:1006E0000546022F46F02006C4DBA069002803DA85
:1006F000404246F00106A061F00701D026F0100646
:100700006C2D0BD0682D09D04C2D39D06A2D35D0E9
:10071000742D35D07A2D33D016E038E0E1682F46BD
:1007200020468847B842054609D16C2F26D04FF4A1
:100730008060E168064320468847054604E06C2F48
:100740001AD04FF4807006430DB3A5F1410019286B
:1007500002D8203546F400664A46294620462660DF
:100760004E46FFF74DFD80B101280BD0F61D26F057
:10077000070000F1080956E74020E4E78020D8E7A9
:100780000020D6E706F104094DE7284652E7206A23
:1007900000F002B8EC85000030BCBDE8C09F2DE938
:1007A000F05F93460F4680460446002600F0BCF9F1
:1007B000D0F80090824614F8015B2DB100F0ACF93E
:1007C0000068405DC007F6D12B2D02D02D2D1AD028
:1007D000641E0021CAF800105A463946204600F02F
:1007E00046FA014627B13868A04201D1C7F8008017
:1007F000DAF80000022809D0CAF80090700505D583
:10080000484200F005B846F48066E2E70846F8E79B
:1008100030BCBDE8C09F30B505460B462A4613F8EC
:10082000014B12F8010B08B1A042F8D01CB100280E
:1008300002D06D1CF1E7284630BD10B5431C02E024
:1008400010F8011B71B18107FAD14FF0013202C8D3
:100850008C1A8C4314EAC211F9D0C01A0A0603D0CC
:10086000C01E10BDC01A10BD0A0401D0801E10BDEC
:100870000902FCD0401E10BD40EA010370B59B0781
:100880002ED14FF00136042A2AD308C810C99D1B67
:100890009D43121F15EAC61517D0D8B2E1B2401A0F
:1008A00050EA056110D198B2A1B2401A50EA054150
:1008B0000AD123F07F4024F07F41401A50EA0521FD
:1008C00002D1180EA0EB146070BDA342DBD018BAA1
:1008D00021BA884201D9012070BD4FF0FF3070BDB0
:1008E0000AB9002070BD10F8013B11F8014B63B14B
:1008F000A3420AD1521E08D010F8013B11F8014B57
:100900001BB1A34201D1521EEDD1181B70BD032AA9
:1009100040F2308010F0030C00F0158011F8013B1C
:10092000BCF1020F624498BF11F801CB00F8013B03
:1009300038BF11F8013BA2F1040298BF00F801CBC7
:1009400038BF00F8013B11F0030300F0E281083AE0
:10095000C0F0088051F8043B083A51F804CBA0E8F5
:100960000810F5E7121D5CBF51F8043B40F8043B4A
:10097000AFF30080D20724BF11F8013B11F801CB7F
:1009800048BF11F8012B24BF00F8013B00F801CB50
:1009900048BF00F8012B704702F0FF0343EA03222F
:1009A00042EA024200F002B84FF000020429C0F00F
:1009B000128010F0030C00F01B80CCF1040CBCF191
:1009C000020F18BF00F8012BA8BF20F8022BA1EBE3
:1009D0000C0100F00DB85FEAC17C24BF00F8012BC8
:1009E00000F8012B48BF00F8012B70474FF00002C0
:1009F00000B5134694469646203922BFA0E80C5015
:100A0000A0E80C50B1F12001BFF4F7AF090728BFEF
:100A1000A0E80C5048BF0CC05DF804EB890028BF6B
:100A200040F8042B08BF704748BF20F8022B11F094
:100A3000804F18BF00F8012B704710B5044610F026
:100A4000030F08BF11F0030F40F015804FF0013E77
:100A5000121FC0F20E8051F8043BA3EB0E0C2CEADF
:100A6000030C1CEACE1C08BF40F8043BF0D0A1F1F7
:100A7000040102F10402521E08DB11F8013B002BB5
:100A800000F8013BF7D11146FFF78EFF204610BD5D
:100A90004FF0013C50F8042B51F8043B9A4221D10D
:100AA000A2EB0C03934313EACC1317D150F8042B99
:100AB00051F8043B9A4215D1A2EB0C03934313EA7D
:100AC000CC130BD150F8042B51F8043B9A4209D1B6
:100AD000A2EB0C03934313EACC13DBD04FF00000DE
:100AE000704700BFD01A01BAB1FA81F101F01801C4
:100AF00022FA01F0CB40C1F12001DBB2C0B2C01A32
:100B00002CFA01F3D11A914311EAC311E6D17047CF
:100B1000704770477047000010B500F031F9001DB4
:100B200010BD00BF5174000000487047D04A00203B
:100B300010B5FFF7F9FF006810BD10B50446FFF7C8
:100B4000F3FF046010BD2DE9F0470D46994692462B
:100B5000044600F124080168880604D5E06921F004
:100B60001001216000E00120A84201DD471B00E0E8
:100B70000027A1697A1902EB0900081AA061207800
:100B8000C00602D42046FFF78BFC002608E0D4E91B
:100B900001211AF806009047206A401C761C20624A
:100BA0004E45F4DB2078C0060AD52046FFF778FCD6
:100BB00006E0D4E9012130209047206A401C2062E1
:100BC000381EA7F10107F4DC07E0D4E9012118F889
:100BD00005009047206A401C2062281EA5F10105EF
:100BE000F3DC2046FFF772FC2078000602D50220D5
:100BF000BDE8F0870120FBE701694A1C0261087823
:100C0000704700B58FB0CDE901310021059105494C
:100C10007944CDE9031011466846FFF7F9FC0FB09F
:100C200000BD0000E5FFFFFF0A6802F8010B0A6043
:100C30007047D1E900239A4202D2531C0B60107016
:100C4000704710B5436913B1AFF3008001E0FFF7BF
:100C50004EFC012010BD127800F124010A70002220
:100C60004A700122EDE711684FF0FF32E9E72DE904
:100C7000F05F824615468B4600270AF10104B9460B
:100C80000078302801D09DB113E014F8010B012742
:100C9000782803D0582801D045B10AE00DB1102DB5
:100CA00007D1002714F8010B102502E0082500E009
:100CB0000A250026B0460EE005FB080005FB06F1FC
:100CC00001271FFA80F801EB1046B6F5803F00D3EC
:100CD000B94614F8010B294600F056F80028EBDA63
:100CE000BBF1000F05D00FB1641E00E05446CBF8F5
:100CF0000040B9F1000F06D0FFF716FF0221016096
:100D0000C81E00F003B848EA0640FAE730BCBDE868
:100D1000C09F10B5203AC0F00B80B1E81850203ABF
:100D2000A0E81850B1E81850A0E81850BFF4F5AF8B
:100D30005FEA027C24BFB1E81850A0E8185044BF15
:100D400018C918C0BDE810405FEA827C24BF51F882
:100D5000043B40F8043B08BF7047D20728BF31F876
:100D6000023B48BF11F8012B28BF20F8023B48BFC7
:100D700000F8012B7047000000487047D04A00205F
:100D800000487047F04A00203A2800D2303820F05E
:100D90002002412A01D3A2F13700884201D34FF04B
:100DA000FF3070477546FFF7E7FFAE46050069461E
:100DB000534620F00700854618B020B5FFF7CAFA61
:100DC000BDE820404FF000064FF000074FF000084C
:100DD0004FF0000B21F00701AC46ACE8C009ACE8CD
:100DE000C009ACE8C009ACE8C0098D46704710B531
:100DF0000446AFF300802046BDE81040FFF726BA56
:100E000001491820ABBEFEE7260002007047000033
:100E10002DE9F04786B01E4691465FEA000A4FF082
:100E200000054BD0F1B3B9F1000F47D0D6B3A846B7
:100E3000012912D00229ADF80C8012D04808491EB1
:100E4000ADF80E00ADF81010032721A21946484650
:100E5000FFF70AFB022831D108E0ADF80C8001272A
:100E6000F3E70120ADF80E000227EEE7022E25D9A8
:100E7000022429E003A830F8150000EB40010AEB3A
:100E8000810045B1611CB14218D23B2209F804200F
:100E9000641C09F80480017A437A42688DE80E00E8
:100EA000311B00E00AE0036809EB040009A2FFF728
:100EB000DBFA152802D11534B44203D3002006B062
:100EC000BDE8F0876D1CEDB2BD42D3D3A0B2F6E70A
:100ED000447C00002530396C752563253031306C39
:100EE0007525630070B50C462DED0C8B05007CD08C
:100EF000002CFCD0297A286800F0C6FA9FED7B8B85
:100F000051EC100B53EC182B07F0DEFA9FED799B98
:100F100053EC192B07F0F8F841EC1C0B217A2068F0
:100F200000F0B2FA53EC182B51EC100B07F0CCFA8E
:100F300053EC192B07F0E8F841EC1B0B297A2868D1
:100F400000F0A2FAB0EE40AAF0EE60AA217A206882
:100F500000F09AFAB0EE401AF0EE601A53EC1A2B39
:100F600051EC110B07F086FC53EC182B07F0ACFA90
:100F700053EC192B07F0C8F841EC1A0B697A686832
:100F800000F082FAB0EE40DAF0EE60DA617A606882
:100F900000F07AFAB0EE401AF0EE601A53EC1D2B16
:100FA00051EC110B07F066FC53EC182B07F08CFA90
:100FB00053EC192B07F0A8F89FED509B53EC192B1D
:100FC00007F082FA0D46044645EC100B04F054FA83
:100FD000B0EE408AF0EE608A45EC104B04F04CFA1B
:100FE000B0EE40DAF0EE60DA00E07BE0B0EE4B0A03
:100FF000F0EE6B0A04F0DCF9B0EE401AF0EE601A85
:10100000B0EE41BAF0EE61BAB0EE4C0AF0EE6C0A06
:1010100004F0CEF953EC1B2B51EC100B07F054FAF3
:1010200053EC1D2B07F050FA53EC182B07F04CFA39
:1010300041EC180B53EC192B51EC1A0B07F044FA46
:101040000D46044645EC100B04F016FAB0EE40AA2B
:10105000F0EE60AA45EC104B04F00EFAB0EE401A28
:10106000F0EE601A53EC1A2B51EC110B07F02CFA2E
:1010700053EC182B06F0A0FF41EC180B9FED210B51
:1010800053EC182B51EC100B07F0F4FB41EC100B58
:1010900004F056FAB0EE40AAF0EE60AAB0EE480AAC
:1010A000F0EE680A04F04CFAB0EE4A1AF0EE6A1A52
:1010B00004F086F89FED151B51EC100B53EC112B2F
:1010C00007F002FA9FED131B53EC112B07F0FCF90C
:1010D00053EC192B06F070FF00F020B8BDE870400B
:1010E00007F09AB900F020B8002070BD182D4454C4
:1010F000FB21094000000000008066400000000065
:101100000000E03F000000000000F03F0000000091
:101110000000004000000000AE4D5841BDEC088BBF
:10112000BDEC04CBFFF7DABFBDEC088BBDEC04CB04
:10113000FFF7DABF30B414460D4600281CD0002D4E
:101140001AD0002C18D00178012907D002290CD020
:101150002146284630BC09A2FFF786B940684FF403
:101160007A71B0FBF1F30BA201E0836813A2214670
:10117000284630BCFFF778B930BC70475265706FB5
:1011800072742064656661756C743A2032206D69F2
:101190006E0D0A005265706F7274206D6F64653A4F
:1011A0002074696D652C20696E74657276616C3A85
:1011B00020256C7520730D0A000000005265706FC9
:1011C0007274206D6F64653A2064697374616E6334
:1011D000652C207468726573686F6C643A20256CA6
:1011E00075206D0D0A00000070B50D46040008D092
:1011F0004FF4F561FFF7FAFB0020207001482561EC
:10120000606070BDC0D4010070B590B006004FF0B2
:1012100000000D460D900E9064D0002D62D0344633
:1012200000E0641C20782028FBD00928F9D0C0B247
:10123000242800D1641C2046FFF7FFFA052851D36B
:10124000A078522801D072284CD1E0784D2801D0E6
:101250006D2847D12079432801D0632842D1042347
:101260000FAA0221304600F0E3F8D0B39DF83C000D
:10127000412837D1142301AA0321304600F0D8F8C1
:1012800078B304230BAA1946304600F0D1F840B3D6
:10129000142306AA0521304600F0CAF808B3042337
:1012A0000CAA0621304600F0C3F8D0B19DF82C10EE
:1012B0000DAA01A800F024F998B19DF830100EAAEB
:1012C00006A800F01DF960B10D9828600E986860BE
:1012D0009DF82C0028729DF830006872012010B033
:1012E00070BDFFE70020FAE7FEB51546089F1E46D1
:1012F0000A46040037D0B6B3AFB369461046FFF7CD
:1013000083FF002830D0207D38B1694604F11800F1
:10131000FFF7E8FDE1680844E0609DE8070004F19C
:10132000180383E8070001202075A08CA0280BD2A9
:1013300000EB4002401C04EB8201A0849DE80D00FC
:10134000283181E80D0004E09DE80E0004F29C7055
:101350000EC0A18C39B12078022806D020696268BD
:10136000281A904214D20020FEBDD4E90202824223
:1013700001D3012200E0002220690C4B281A984278
:1013800001D3012000E00020002AECD00028EAD0A0
:101390003B46324604F12800FFF73AFD0028E3D02F
:1013A0002946204600F0D0F80120FEBDC0D401003F
:1013B00010B5002807D000230370034AC0E90123B9
:1013C00000F0C2F8012010BDC0D4010010B510B16A
:1013D000B1F5FA7F01D2002010BD022303708160B5
:1013E00003494160114600F0AFF8012010BD000034
:1013F000C0D40100C1EB0111890000F001B8000068
:1014000010B520B13C2902D3084B994201D90020E4
:1014100010BD012303704FF47A73594341600021DA
:101420008160114600F090F8012010BD378941001D
:10143000F0B500252C4628B322B31BB30027177044
:101440005B1E0AE02C2E11D02A2E0FD08D4203D124
:101450009C4217D21655641C401C06781EB10D2EF6
:1014600001D00A2EEED18D4202D00BE08D4203D185
:1014700017553CB10120F0BD6D1C0024EDB22A2EA1
:10148000F1D0E9E70020F0BD70B50C461749B0FB7C
:10149000F1F5B0FBF1F201FB12002DED028B06F02D
:1014A000FFFF9FED131B53EC112B06F02DFE9FED5C
:1014B000121B53EC112B06F027FE41EC180B2846AB
:1014C00006F0EEFF53EC182B06F076FD41EC100B06
:1014D000532C01D0572C05D151EC100B06F060FDB8
:1014E00041EC100BBDEC028B70BD000080969800A3
:1014F00000000000006AF8400000000000004E40BC
:1015000030B50023F0B1EAB14E2912D0532910D0E2
:1015100045290ED0572915D10BE000BFA1F13004A9
:10152000092C04D803EB830305EB43030B44401C55
:1015300001E06FF02F0501780029EFD113B10120F0
:10154000136030BD002030BD002803D0002282840B
:10155000C0E90321704700002DE9FF4FE1B0984634
:101560005FEA000B49D0002947D06398002844D097
:10157000B8F1000F41D00E4638AF4FF09D0900255D
:101580000846FFF75AF90400AA4636D04E2C34D844
:10159000012000EB44009D282FD80BE06942735DC9
:1015A00009EB410107EB450018A2FEF75DFF022899
:1015B00023D16D1CA542F1D307F814A038A80090E0
:1015C0005B4614A2DC2101A8FEF74EFF002814DDC3
:1015D000DC2812D201A9002001E05040491C0A7801
:1015E000002AFAD1009001AB0EA2DC216398FEF72D
:1015F0003BFF002801DDDC2803D3002065B000F0AC
:1016000017B8A8F800000120F8E70000253032588C
:101610000000000043435458412C25732C312C31D9
:101620002C2573002425732A253032580D0A00001A
:1016300030BCBDE8C08F10B518B111B1FFF728FA62
:1016400008B1002010BD012010BD000070B50600DB
:101650000CD0094D002400BF55F834103046FFF778
:1016600017FA28B1641CE4B2052CF5D3002070BD34
:1016700005EBC400406870BD7C8A000870B5064662
:1016800001F0AEFA05461348134C022E12D0042E78
:101690001ED1042101F099FA002819D12069281AD5
:1016A000502815D3606C002812D02561BDE8704029
:1016B00004F0A8BD022101F088FA002808D1E068F2
:1016C000281A502804D3206C002801D0E560EDE7EB
:1016D00070BD0000000400480000002070B5CCB0D0
:1016E000060018D04FF48072694600F067FD0028AC
:1016F00011D070A16846FFF79EFF704C08B1A06B37
:1017000005E06FA16846FFF796FF30B1E06B002857
:1017100001D004F077FD4CB070BD6BA16846FFF7B7
:101720008AFF30B1207808B16AA077E010217348B1
:10173000BCE073A16846FFF77EFFE0B973A168467D
:10174000FFF779FFB8B90C2273A16846FFF794F848
:1017500088B10B2274A16846FFF78EF858B10C22AD
:1017600074A16846FFF788F828B176A16846FFF7AC
:1017700062FF10BB03E0684600F0C2FACBE773A13A
:101780006846FFF758FFC0B973A16846FFF753FFDB
:1017900098B9082273A16846FFF76EF868B10A226B
:1017A00073A16846FFF768F838B1072273A168464D
:1017B000FFF762F86D4620B115E0684600F052F977
:1017C000A9E72846FFF739F807280CD93B48EA1D56
:1017D0001021603000F004FF18B1384B69A260336B
:1017E00016E06EA01AE0052273A16846FFF744F8E0
:1017F000B8B96846FFF721F8052812D92F486A1DA5
:101800001021503000F0ECFE38B12C4B6CA250335C
:10181000302140A8FEF728FE12E06EA000F02AFE5C
:1018200079E772A16846FFF706FF58B12348603098
:10183000007818B1214B70A26033E9E773A20FE082
:1018400040A8EBE777A16846FFF7F5FE68B11B48B3
:101850005030007818B1194B75A25033D8E778A2F0
:10186000302140A8FEF700FEEAE705227AA168468B
:10187000FFF702F830B96846FEF7DFFF052801D907
:10188000681D0BE076A16846FFF7D5FE10B100F0A9
:1018900007FC40E76846FFF7D9FE10B100F092FB65
:1018A00039E7207800288BD17188301D00F0EEFDDB
:1018B00031E700007264206D6F6465000000002055
:1018C000726E206D6F64650063617264776F72641D
:1018D0000000000063617264776F72642069732096
:1018E0006F6E6C7920617661696C61626C652069EC
:1018F0006E205244206D6F64650D0A00548A000802
:101900007265706F72742067657400007265706F25
:101910007274206F666600007265706F7274207456
:10192000696D6520000000007265706F727420732D
:10193000656320007265706F72742064697374202F
:10194000000000006C6F6F70206F6E006C6F6F7026
:10195000206F6666000000006C6F6F702067657412
:10196000000000006C6F6F70206F6E2000000000A0
:101970006C6F6F702074696D652000007461726710
:10198000657420005461726765742063617264201D
:101990007365743A2025730D0A000000496E766164
:1019A0006C6964207461726765742063617264207D
:1019B00049440D0A0000000073656C6620000000B9
:1019C00053656C662063617264207365743A2025E8
:1019D000730D0A00496E76616C69642073656C66EC
:1019E00020636172642049440D0A00006765742019
:1019F0007461726765740000546172676574206376
:101A00006172643A2025730D0A0000005461726708
:101A1000657420636172643A206E6F74207365741C
:101A20000D0A00006765742073656C660000000095
:101A300053656C6620636172643A2025730D0A0059
:101A400053656C6620636172643A206E6F74207314
:101A500065740D0A0000000073656E6420000000CC
:101A6000736F7300F0B597B04FF000060500159640
:101A700078D03DA1FFF7DFFD3E4C10B1A6703EA02F
:101A80006EE043A12846FFF7D6FDB0B1A07868B15B
:101A900060694EF66021B0FBF1F0364B0090703378
:101AA0003EA2502101A8FEF7DFFC04E045A2502130
:101AB00001A8FEF7D9FC01A852E00A2244A1284659
:101AC000FEF7DAFE38B1082244A12846FEF7D4FE1C
:101AD0000127C8B131E005F10A000A2215A905461F
:101AE000FEF75DFE03461598A84205D0007818B9A8
:101AF00013B1B3F5803F01D33BA031E04EF6602037
:101B0000584343A2606124E02846FEF796FE082869
:101B100013D908352846FEF790FE08B1202801D9D0
:101B200042A01DE01348202229467030FEF785FFB1
:101B30001048703080F8206004E042A12846FFF78A
:101B40007AFD60B1A77001F04BF80A4B3FA27033E9
:101B5000A061502101A8FEF787FCACE702E041A09C
:101B600000F088FC17B0F0BD6C6F6F70206F666678
:101B700000000000000000204C6F6F702073656E45
:101B8000642064697361626C65640D0A0000000082
:101B90006C6F6F7020676574000000004C6F6F7091
:101BA0003A206F6E2C206D73673A2025732C2069C4
:101BB0006E74657276616C3A20256C75206D696E65
:101BC0000D0A00004C6F6F703A206F66660D0A00B8
:101BD0006C6F6F702074696D652000006C6F6F70A2
:101BE000206F6E2000000000496E76616C696420F1
:101BF0006C6F6F702074696D652C206D7573742027
:101C00006265203E3D2031206D696E0D0A000000A6
:101C10004C6F6F7020696E74657276616C3A202526
:101C20006C75206D696E0D0A000000004C6F6F70BE
:101C3000206D65737361676520746F6F206C6F6EC4
:101C4000670D0A006C6F6F70206F6E004C6F6F70C5
:101C50002073656E6420656E61626C65643A202550
:101C6000730D0A00556E6B6E6F776E206C6F6F7020
:101C700020636F6D6D616E640D0A0000002805D051
:101C80004188002902D0001D00F0D0BB7047000041
:101C900070B5194E4FF48071304600F096FF174C26
:101CA00022783AB100254FF40071012A07D0022AA8
:101CB00019D10BE0002801D10120207070BD08B1BE
:101CC000257070BD02202070658006E0012806D0D6
:101CD0006088B4280AD2401C6080012207E00122FB
:101CE000304600F077FF2570658070BD00223046D9
:101CF000BDE8704000F06EBF000400481C000020EA
:101D000070B59CB0054600201A9000F069FF0646A9
:101D1000002D76D04BA12846FFF78DFCD0B14C4C5E
:101D200060222069311A4FF47A70B1FBF0F56168D6
:101D3000B1FBF0F602A92046FFF7FCF902A800F07B
:101D400099FBCDE90056A38C42A2602102A8FEF7C0
:101D50008BFB3BE04AA12846FFF76DFC28B13146DA
:101D60003B48FFF725FB49A067E00C224DA1284620
:101D7000FEF782FD05F10C0478B10B224DA1284637
:101D8000FEF77AFD002823D00C224DA12846FEF74D
:101D900073FD002838D04EA04FE00A221AA9204631
:101DA000FEF7FDFC05461A98A0420DD0007858B900
:101DB000B5F5803F08D2A9B232462548FFF71AFB95
:101DC00010B12B4649A232E04FA036E002A834E021
:101DD00005F10B000A221AA90546FEF7E0FC0446AD
:101DE0001A98A8420ED0007860B95148844209D8A8
:101DF000324621461648FFF703FB18B123464DA291
:101E000015E01CE052A018E00A221AA92046FEF7AD
:101E1000C6FC05461A98A0420ED0007860B932463A
:101E200029460B48FFF7D2FA30B12B4652A2602167
:101E300002A8FEF719FBC9E757A000F01BFB1CB076
:101E400070BD00007265706F727420676574000069
:101E500024010020506F696E74733A2025752C2080
:101E6000656C61707365643A20256C75732C20690C
:101E70006E74657276616C3A20256C75730D0A007C
:101E80007265706F7274206F666600005265706FC5
:101E900072742064656661756C743A2032206D69D5
:101EA0006E0D0A007265706F72742074696D652022
:101EB000000000007265706F72742073656320000B
:101EC0007265706F72742064697374200000000082
:101ED000556E6B6E6F776E207265706F72742063D3
:101EE0006F6D6D616E640D0A000000005265706FC9
:101EF00072742074696D65207365743A20256C7561
:101F0000206D696E0D0A0000496E76616C6964206F
:101F10007265706F72742074696D652C206D7573B5
:101F200074206265203E3D2031206D696E0D0A00EF
:101F3000378941005265706F72742074696D652035
:101F40007365743A20256C7520730D0A000000003B
:101F5000496E76616C6964207265706F727420736B
:101F600065632C206D757374206265203E3D2036BC
:101F70003020730D0A0000005265706F7274206487
:101F8000697374616E6365207365743A20256C759E
:101F9000206D0D0A00000000496E76616C696420B6
:101FA0007265706F72742064697374616E63652CFE
:101FB000206D757374206265203E3D2035303020E1
:101FC0006D0D0A0070B596B0050006D0287820B1D6
:101FD0001548007818B115A021E01AA01FE0124E94
:101FE0006036307828B12846FFF730FB040002D075
:101FF00002E018A013E02C460B482146603000F0A8
:10200000F3F958B1234619A2502101A80096FEF712
:102010002BFA01A800F02EFA16B070BD19A016B068
:10202000BDE8704000F026BA0000002053656E64E1
:10203000207265717569726573205244206D6F64FA
:10204000650D0A00456D707479206D657373616765
:10205000650D0A00546172676574206361726420C3
:102060006E6F74207365740D0A00000042443220C4
:1020700073656E74205B25735D20746F2025730D6E
:102080000A000000424432206D6573736167652069
:102090006275696C64206661696C65640D0A000094
:1020A00000B5124891B0007808B111A018E00F48AF
:1020B0006030007888B10D4813A1603000F094F9C9
:1020C00068B10A4B11A2603340216846FEF7CCF993
:1020D000684600F0CFF911B000BD12A000E017A0D3
:1020E00011B05DF804EB00F0C5B90000000000205D
:1020F000534F532072657175697265732052442085
:102100006D6F64650D0A0000534F53004244322046
:10211000534F532073656E7420746F2025730D0A1E
:10212000000000005461726765742063617264206E
:102130006E6F74207365740D0A00000042443220F3
:10214000534F532073656E64206661696C65640D3E
:102150000A00000010B518B1418809B1021D02E063
:10216000002010BD521C11782029FBD00D29F9D078
:102170000A29F7D0C9B2242900D1521C117881B1A3
:10218000517871B19178522901D0722909D1D17851
:102190004D2901D06D2904D11179432907D0632934
:1021A00005D004A1001DFEF736FB0028D9D0012080
:1021B00010BD0000524D432C00000000F0B5060099
:1021C0004FF00003184603D011B10AB1748802E041
:1021D0000020F0BD5B1CA3420BD2F5182D79202DF9
:1021E000F8D0092DF6D00D2DF4D00A2DF2D000E054
:1021F000641E9C4209D93519ED78202DF8D0092D9F
:10220000F6D00D2DF4D00A2DF2D0521E0AE0F518AA
:102210002D79A5F14107192F01D82035EDB20D54C4
:10222000401C5B1CA34201D29042F0D300220A540E
:10223000F0BD000070B50D46284C01001FD02046AF
:102240000129406B33D0022947D16189244EFF29EF
:1022500005D304F10A033246022100F047F86089F1
:102260003118401C60810D700A2D36D11B4B1C4A61
:102270000A330221606BBDE8704000F037B8E08897
:10228000184EFF2806D3154B32469B1D0021206BAC
:1022900000F02CF8E0883118401CE0800D700A2D09
:1022A0001BD10E4B0F4A9B1D0021206BE3E72189B8
:1022B0000D4EFF2905D3094B32460833012100F0AA
:1022C00015F820893118401C20810D700A2D04D189
:1022D000024B054A08330121CCE770BD0000002005
:1022E000CC0A0020CC080020CC0900202DE9F043C6
:1022F000C1B01D4690460E465FEA000929D0B8F1EC
:10230000000F26D0002D24D02888002821D04FF49B
:1023100082716846FEF76AFB2C88FF2C00D9FF24E7
:102320008DF80060ADF80240224641466E4601A895
:10233000FEF7EDFA002730193B4607713A46694629
:10234000484603F033FE2F804FF480714046FEF77D
:102350002BFB41B0BDE8F0830A4B00224FF48071A3
:1023600040B1012809D002280AD15A81064800BF8D
:10237000FEF73CBBDA800548FAE71A810448F7E724
:102380007047000000000020CC0A0020CC0800208C
:10239000CC090020002818D000680C49884203D1DD
:1023A00001220B490B480EE00B49884204D1084931
:1023B0000122491C094806E00949884205D104491F
:1023C0000122891C074801F0D5BD704700800040FC
:1023D00003000020CC0B002000380140540C0020EA
:1023E00000480040DC0C002010B5B8B00022ADF869
:1023F000DC20B0B1A9B137AB6A46FFF7ADF80400F5
:102400000CD0BDF8DC10684600F040F8BDF8DC10D8
:10241000684600F00BF804A000F02CF8204638B015
:1024200010BD0020FBE700000D0A00002DE9F0417F
:102430000D46060017D0002D15D00C4CA06C0028BE
:1024400011D04FF0FF37394603F0E4FD00280AD1E0
:102450003B462A463146064801F0B2FDA06CBDE875
:10246000F04103F034BEBDE8F08100000000002020
:10247000CC0B002010B5040007D0FEF7DEF981B2C6
:102480002046BDE81040FFF7D1BF10BD2DE9F04157
:102490000D46060017D0002D15D00C4CE06C00281E
:1024A00011D04FF0FF37394603F0B4FD00280AD1B0
:1024B0003B462A463146064801F082FDE06CBDE805
:1024C000F04103F004BEBDE8F081000000000020F0
:1024D000540C002010B5B8B004004FF00000ADF867
:1024E000DC0005D0207818B11E480078012802D001
:1024F000002038B010BD1B486030007860B3194828
:1025000037AB6A4621466030FFF726F8002825D011
:1025100015A0FFF7AFFFBDF8DC106846FFF786FF98
:1025200016A0FFF7A7FFBDF8DC106846FFF7AEFF67
:102530000120FFF711FF1248FFF72CFF1148FFF7AA
:1025400029FF11A0FFF796FF2046FFF793FF0BA08E
:10255000FFF790FF0120CCE710A000E018A0FFF7E4
:1025600089FFC5E700000020524E207265706F722F
:1025700074206672616D653A200000000D0A00004B
:10258000540C0020DC0C0020524E207265706F72DB
:10259000742073656E743A20000000004C6F636114
:1025A00074696F6E207265706F72742074617267E7
:1025B0006574206E6F74207365740D0A000000004E
:1025C0004C6F636174696F6E207265706F727420F6
:1025D0006275696C64206661696C65640D0A00004F
:1025E0002DE9F0410D460700144624D01DB314B365
:1025F0001046FEF722F9F0B1A8421CD2002620783E
:10260000B046C0B12046FEF718F9011F092912D2C1
:1026100004E0A15D30390A290DD2761C8642F8D338
:102620006A1E21463846FEF708FA7919012001F89A
:10263000018CBDE8F0810020FBE7000070B5284C5C
:10264000607800284AD1012565702A46690225482C
:1026500000F0C0FA0020FFF77FFE0120FFF77CFEAC
:102660000220FFF779FEA06B28B10021A06B03F0D8
:102670004FFD0028F9D0E06B28B10021E06B03F09A
:1026800047FD0028F9D0206C28B10021206C03F010
:102690003FFD0028F9D0606C28B10021606C03F088
:1026A00037FD0028F9D0104801F032F900F098FA0F
:1026B00001460E48FEF798FD0D48FFF76BFE0D48EA
:1026C000FFF768FE0C48FFF765FE2570002000F05C
:1026D00027F8BDE8704009A0FFF7CCBE70BD000030
:1026E0000000002000040048640D002024010020A8
:1026F000CC0B0020540C0020DC0C002053797374A8
:10270000656D2072656164792E2044656661756C23
:1027100074206D6F64653A2052440D0A0000000079
:1027200070B505461E48047805700120FFF714FEB9
:102730000220FFF711FE1B481B4E4FF001024FF025
:102740002001A5B100F046FA01228021304600F0B8
:1027500041FA012C22D015A0FFF78CFE4FF4FA604D
:1027600003F08AFB17A0BDE87040FFF783BE00F0BE
:1027700031FA01228021304600F02CFA64B117A012
:10278000FFF778FE4FF4967003F076FB132119489B
:10279000FFF77CFE18A0E6E71DA0F1E722A0E2E724
:1027A00000000020000400480008004853776974C6
:1027B0006368656420746F20524E206D6F64650DF0
:1027C0000A000000524E205244207374616E64620D
:1027D000792072656164790D0A000000537769748D
:1027E0006368656420746F205244206D6F64650DCA
:1027F0000A000000658A0008524420545852206F95
:10280000757470757420656E61626C65640D0A0084
:10281000416C726561647920696E205244206D6F4D
:1028200064650D0A00000000416C726561647920E6
:10283000696E20524E206D6F64650D0A0000000025
:10284000002805D000680349884201D1FFF720BA6B
:10285000704700000044014010B500281BD00068FC
:102860000D49884204D10020FFF776FD0B480EE0A9
:102870000B49884204D10120FFF76EFD094806E0AC
:102880000949884207D10220FFF766FD0748BDE8E5
:102890001040FFF77FBD10BD00800040CC0B002032
:1028A00000380140540C002000480040DC0C00209F
:1028B00010B5002828D0154A01681548914205D165
:1028C000C1780020FFF7B6FC124814E0124A91428A
:1028D00007D100780E4901200979FFF7ABFC0F48BA
:1028E00009E00F4A91420FD10178012907D0022057
:1028F000FFF732FD0B48BDE81040FFF74BBD4179B3
:102900000220FFF797FCF5E710BD000000800040B3
:1029100000000020CC0B002000380140540C0020A7
:1029200000480040DC0C0020FEE77047022000F069
:1029300055B8042000F052B872B6FEE710B540B1A9
:1029400090F825100022022905D00421C16380F8E7
:102950002420012010BD01680B6823F001030B60E7
:1029600001680B6823F00E030B6090F84410046CB0
:1029700001F01C03012101FA03F3636080F82510C4
:1029800080F82420002010BD10B590F825100024F8
:10299000022903D00421C16301241AE001680A68F6
:1029A00022F001020A6001680A6822F00E020A6041
:1029B00090F84410036C01F01C02012101FA02F2AC
:1029C0005A6080F82510002180F82410816B01B135
:1029D0008847204610BDFEF751BE0000044910B5DF
:1029E0000A68024202D00860FFF7F5FF10BD000040
:1029F000140401402DE9F04FDFF8AC9100230325CA
:102A0000A9F1040B85B04FF0010C0F2709F1040A5E
:102A1000ABF1040EBFE000BF0CFA03F6324075D0F4
:102A20000C7904F00304012C01D0022C1BD1846822
:102A300000945C0005FA04F80494009C24EA08045D
:102A40000094D1F80C80049C08FA04F8009C48EA31
:102A50000408C0F808804468B4430E79C6F3001631
:102A60009E40264346600C79E443A4070AD0C4681C
:102A70004FEA430805FA08F6B4438E6806FA08F6EA
:102A80002643C6600C7904F00304022C10D1DC0844
:102A900000EB84040294246A5E074FEAD66807FAC2
:102AA00008F6B4430E6906FA08F62643029C26622D
:102AB00004684FEA430805FA08F6B4430E7906F0B5
:102AC000030606FA08F6264306604C6814F4403FF5
:102AD00060D0364C266E46F001062666246E23F042
:102AE000030604F001040094314C34440294A468B9
:102AF0009E074FEA167807FA08F6B443B0F1904FF4
:102B000005D02C4EB04204D1012612E042E000264E
:102B10000FE0294EB04201D102260AE0274EB04212
:102B200001D1032605E0264EB04201D1042600E083
:102B3000072606FA08F62643029CA660D9F800602C
:102B40004C46D1F8048096435FEAC82800D5164366
:102B50002660DAF800405646D1F8048094435FEAD4
:102B6000882800D514433460DBF800405E46D1F875
:102B7000048094435FEA883800D514433460DEF85B
:102B800000407646D1F8048094435FEAC83800D507
:102B9000144334605B1C0A6832FA03F47FF43CAFE0
:102BA00005B000F00FB8000008040140001002401A
:102BB000000001400004004800080048000C0048E4
:102BC0000010004830BCBDE8C08F0069084000D04C
:102BD000012070470AB1816170478162704700002F
:102BE0000148806870470000940000200248816816
:102BF00002781144816070479400002010B50024D1
:102C0000032000F09FF80F2000F008F808B101241D
:102C100001E000F04FF8204610BD000030B5054639
:102C20001F4887B0816D41F020018165806D06A944
:102C300000F02000009001A800F0D2FA0498B0B192
:102C400000F0EEFA40001749174AB0FBF1F11748BF
:102C5000491E0260416040F2E7320021C0E90321D1
:102C60008160816100F005FE040003D015E000F0F2
:102C7000D7FAE8E70D4800F04BFE04000DD13720ED
:102C800000F032F8102D07D200222946372000F03C
:102C900039F80748056000E0012407B0204630BD40
:102CA0000010024040420F0000140040B00D002010
:102CB000980000200B4882B0016E41F001010166CE
:102CC000016E01F001010091816D41F0805181653B
:102CD000806D002200F0805000900F21901E02B005
:102CE00000F010B800100240002809DB00F01F02BD
:102CF000012191404009800000F1E020C0F800115E
:102D000070470000F0B40E4B1B680C46C3F302235F
:102D1000C3F10705042D00D90425191D072901D287
:102D2000002300E0DB1E012606FA05F1491E2140C2
:102D300099409E40761E16403143F0BC02F0C3B865
:102D40000CED00E0064900F0070208684FF6FF03AB
:102D5000184040EA0220034A104308607047000010
:102D60000CED00E00000FA051649B0F5007F086898
:102D7000C0F3412009D0022805D0086820F4C060C3
:102D800040F480600860002070470128FBD008688C
:102D900020F4C06040F4007008600B4832220068E4
:102DA00050430A4AB0FBF2F0401C00E0401E4A6962
:102DB000520501D50028F9D148694005E3D5032023
:102DC0007047000000700040A000002040420F004B
:102DD0000248006800F4C0607047000000700040C6
:102DE0002DE9F84F044600270088A84D3E4600050F
:102DF00015D5606C60B1B0F5000F04D0B0F5400F90
:102E00002BD001270AE0E86840F48030E86024E035
:102E10000021201D01F07EFA07001ED03E462068EA
:102E200080033AD5A86D4FF00008C00009D4A86D02
:102E300040F08050A865A86D4FF0010800F0805068
:102E40000090DFF84CA2DAF8001041F48071CAF863
:102E50000010FFF7C5FE814610E0D5F88800616CD0
:102E600020F440000843C5F88800D8E7FFF7B8FE13
:102E7000A0EB0900022801D9032705E0DAF80000D9
:102E8000C005F3D5002F7DD04FEA0706B8F1000F3B
:102E900003D0A86D20F08050A8652078C00707D027
:102EA000D5F88800216A20F003000843C5F888009F
:102EB0002078800707D5D5F88800616A20F00C00DB
:102EC0000843C5F888002078400707D5D5F8880062
:102ED000A16A20F030000843C5F8880020788006F9
:102EE00007D5D5F88800E16A20F440600843C5F8AA
:102EF00088002088800507D5D5F88800E16B20F48C
:102F000040200843C5F888002088400507D5D5F83B
:102F10008800216C20F440100843C5F88800207810
:102F2000400607D5D5F88800216B20F440500843AF
:102F3000C5F888002078000607D5D5F88800616BB1
:102F400020F440400843C5F888002088C00507D514
:102F5000D5F88800A16B20F440300843C5F88800FC
:102F600020684FF0006700034FF0806850D5D5F817
:102F70008800A16C20F040600843C5F88800A06C70
:102F8000B84200E005E03BD1E86840F48010E8601A
:102F90003EE0D5F8900010F4407014D0A16D81424D
:102FA00011D0D5F89000D5F8901020F4407041F47D
:102FB0008031C5F89010D5F8901021F48031C5F813
:102FC0009010C5F89000C00711D0FFF709FE074622
:102FD00041F2883907E000BFFFF702FEC11B4945F7
:102FE00001D9032652E7D5F890008007F4D5D5F82B
:102FF0009000A16D20F440700843C5F8900045E7AB
:10300000404505D10121201D01F084F900B106469B
:103010002068400317D5D5F88800E16C20F04060A7
:103020000843C5F88800E06CB84204D1E86840F471
:103030008010E86007E0404505D10121201D01F026
:1030400069F900B106462088400411D5D5F88800FA
:10305000216D20F040500843C5F88800206DB0F184
:10306000805F05D10221201D01F054F900B1064610
:103070002088000406D555F8880F616D20F0804047
:1030800008432860304600F005B8000000100240F8
:103090000070004018BCBDE8E08F00002DE9F0474B
:1030A0000F4605006BD0494E306800F00700B8426B
:1030B00009D2306820F0070038433060306800F0F3
:1030C0000700B8425BD12878414C80070AD5A86830
:1030D000A16801F0F001884204D9A16821F0F00153
:1030E0000143A1602878C0072CD06868032811D05C
:1030F000022812D0216898B1490500293FDAA16859
:1031000021F003010143A160FFF76AFD804641F20F
:10311000883910E021688901EFE721688903ECE72D
:103120008907EAE7FFF75CFDA0EB0801494502D9F2
:103130000320BDE8F087A068696800F00C00B0EBE0
:10314000810FEFD1287880070AD5A868A16801F01F
:10315000F001884204D2A16821F0F0010143A1608E
:10316000306800F00700B8420BD9306820F0070043
:1031700038433060306800F00700B84201D00120C9
:10318000D7E72878400705D5A068E96820F4E06013
:103190000843A0602878000706D5A068296920F4B4
:1031A000605040EAC100A06000F05EF8A168094AE2
:1031B000C1F30311515C01F01F01C84006490860CA
:1031C00006480068BDE8F047FFF728BD0020024030
:1031D00000100240A08B0008A000002098000020F2
:1031E0000F2202600C4A936803F003034360936864
:1031F00003F0F0038360936803F4E063C3609268B4
:103200004FF4E06303EAD20202610448006800F070
:1032100007000860704700000010024000200240D4
:103220000548064900688968054AC1F30221515CD6
:1032300001F01F01C8407047A000002000100240AC
:10324000E08B00080548064900688968054AC1F313
:10325000C221515C01F01F01C8407047A00000204E
:1032600000100240E08B000870B524490023184686
:103270008A68CC6812F00C0204F00306204C214D41
:1032800009D00C2A05D0042A32D0082A00D12846B9
:1032900070BD012E10D10B681B0704D4D1F89430F7
:1032A000C3F3032302E00B68C3F30313164E56F86F
:1032B0002330DAB10C2AEBD1C86800F003000228F1
:1032C00018D0032818D01846CA68CB68C2F3021277
:1032D000C3F306234343521CB3FBF2F2C868C0F3A6
:1032E0004160401C4000B2FBF0F070BD184670BD5C
:1032F000204670BD2046E7E72846E5E7001002407B
:103300000024F400001BB700B08B00082DE9F8433F
:1033100004006FD0FA4DA86800F00C06E86800F0D1
:1033200003072078C00664D576B10C2E01D1012F99
:103330000AD0A069002828687AD040F001002860EF
:10334000FFF74EFC80465DE02868800702D5A06943
:103350000028DED0216A2868000703D5286800F01D
:10336000F00004E0D5F89400F02202EA1010814247
:1033700016D9084601F064F800283BD1286840F0CF
:10338000080028602868216A20F0F00008432860BF
:103390006868E16920F47F4040EA0120686016E037
:1033A000286840F0080028602868216A20F0F000B2
:1033B000084328606868E16920F47F4040EA012002
:1033C000686026B9206A01F03BF80028D5D1FFF7E4
:1033D0004BFFA968CB4AC1F30311515C01F01F01F7
:1033E000C840C9490860C9480068FFF717FC0028B1
:1033F0007ED12EE0CAE000BFFFF7F2FBA0EB080091
:10340000022876D828688007F6D5286840F008009A
:1034100028602868216A20F0F00008432860686866
:10342000E16920F47F4040EA0120686011E0FFE795
:1034300020F001002860FFF7D3FB804606E000BFC4
:10344000FFF7CEFBA0EB08000228DAD82868800737
:10345000F6D42078C00740D0082E18D00C2E01D109
:10346000032F14D06068B0F5803F17D0B0F5A02FBF
:10347000286817D020F480302860286820F4802045
:1034800028606068E0B1FFF7ABFB804614E0286875
:10349000800322D56068002878D01EE0286840F4B8
:1034A0008030EDE740F480202860F7E7FFF798FBD5
:1034B000A0EB08006428A4D828688003F6D50CE0A7
:1034C000FFF78EFB804605E0FFF78AFBA0EB0800C4
:1034D000642896D828688003F6D4207880073BD5E6
:1034E000042E11D00C2E01D1022F0DD0E06801E086
:1034F000AAE1FFE0002828681ED040F48070286010
:10350000FFF76EFB07460CE0286840050CD5E06825
:103510000028C1D008E000BFFFF762FBC01B0228F3
:1035200093D828684005F7D56868217C20F0F850CA
:1035300040EA016068600FE020F480702860FFF7C7
:103540004FFB074605E000BFFFF74AFBC01B022800
:10355000B1D828684005F7D42078000729D56069DC
:103560000028D5F8940012D040F00100C5F894006E
:10357000FFF736FB074604E0FFF732FBC01B0228CB
:1035800099D8D5F894008007F6D512E02BE120F009
:103590000100C5F89400FFF723FB074605E000BFD4
:1035A000FFF71EFBC01B022885D8D5F894008007C2
:1035B000F6D42078400766D5A86D0027C00008D44F
:1035C000A86D40F08050A865A86D012700F08050DC
:1035D00000904F480168C90512D40168814641F442
:1035E00080710160FFF7FCFA804605E0FFF7F8FA0A
:1035F000A0EB080002287DD8D9F80000C005F5D559
:10360000A068012816D00528D5F8900017D020F022
:103610000100C5F89000D5F8900020F0040000BF2C
:10362000C5F89000A06841F28839C0B1FFF7D8FA18
:1036300080460FE0D5F8900040F00100F0E740F040
:103640000400C5F89000F5E7FFF7CAFAA0EB0801FF
:1036500049454FD8D5F890008007F5D50EE0FFF723
:10366000BFFA804606E000BFFFF7BAFAA0EB0801F8
:1036700049453FD8D5F890008007F5D41FB1A86D13
:1036800020F08050A8652078800628D5606A002840
:10369000D5F8980012D040F00100C5F89800FFF767
:1036A0009FFA074605E000BFFFF79AFAC01B022801
:1036B00020D8D5F898008007F6D510E020F001005A
:1036C000C5F89800FFF78CFA074604E0FFF788FA80
:1036D000C01B02280ED8D5F898008007F6D4A06A3F
:1036E000F0B3022816D00C2E7DD0286820F0807010
:1036F000286000E0A7E0FFF773FA0446A6E00000A8
:1037000000100240A08B0008A000002098000020BC
:1037100000700040E868E26A00F00301914228D19D
:10372000216B00F0700209011039914221D1626BC6
:1037300000F4FE41B1EB022F1BD194F8382000F0C9
:103740007841B1EBC26F14D1A18F00F4C0024908D7
:103750004905A1F5001191420BD194F8401000E009
:103760006AE04908490600F0C060A1F10071814299
:103770004BD00C2E73D02868400170D4286820F0FC
:1037800080702860FFF72CFA064604E0FFF728FA5D
:10379000801B022857D828688001F7D4F4E90B0170
:1037A0006FF00F0202EB01110843218A520449080D
:1037B00002EB4151A26841EA02210843217D4FF00A
:1037C0007E42490802EB41610843217B40EAC16027
:1037D000E968244A11400843E860286840F0807096
:1037E0002860E86800E03AE040F08070E860FFF7A9
:1037F000F7F9044605E000BFFFF7F2F9001B0228C5
:1038000021D828688001F7D527E02868800124D4D2
:10381000286840F080702860E86840F08070E860B8
:10382000FFF7DEF9044604E0FFF7DAF9001B02288F
:1038300009D828688001F7D50FE000BFFFF7D0F95D
:10384000001B022802D90320BDE8F8832868800104
:10385000F4D4E86804490840E8600020F4E7012057
:10386000F2E700008C809D01FCFFEEFE7047704780
:10387000704710B5040003D094F83D0010B107E084
:10388000012010BD002084F83C00204600F022F802
:10389000022084F83D00211D206800F063FF012014
:1038A00084F8480084F83E0084F83F0084F8400023
:1038B00084F8410084F8420084F8430084F844000E
:1038C00084F8450084F8460084F8470084F83D00F9
:1038D000002010BD08B500680B49884212D10B4882
:1038E000016E41F400310166006E002200F40030E8
:1038F000009005211920FFF705FABDE808401920BE
:10390000FFF7F2B908BD000000440140001002407A
:1039100090F83D10012901D001207047022180F864
:103920003D100168CA6842F00102CA6000680B4994
:10393000884205D0B0F1804F02D00949884207D1B2
:103940008168084A1140062906D0B1F5803F03D0AE
:10395000016841F00101016000207047002C014026
:10396000004001400700010070472DE9F041044686
:103970000068C66805694FF00007A90713D5B107AD
:1039800011D5F91E01610120207720688069800728
:10399000204602D0FFF7E8FF04E000F08BF8204655
:1039A00000F089F82777680716D5700714D52168C5
:1039B0006FF004000861022020772068806910F40D
:1039C000407F204602D0FFF7CFFF04E000F072F8FE
:1039D000204600F070F82777280715D5300713D553
:1039E00021686FF008000861042020772068C06912
:1039F0008007204602D0FFF7B7FF04E000F05AF836
:103A0000204600F058F82777E80616D5F00614D5BA
:103A100021686FF010000861082020772068C069D5
:103A200010F4407F204602D0FFF79EFF04E000F034
:103A300041F8204600F03FF82777E80708D0F00764
:103A400006D021686FF001000861204600F034F8CC
:103A5000280601D4A80408D5300606D521686FF4DD
:103A6000025008612046FFF702FFE80508D530063E
:103A700006D521686FF4807008612046FFF7F6FED6
:103A8000680608D5700606D521686FF04000086109
:103A9000204600F021F8A8060AD5B00608D521680E
:103AA0006FF0200008612046BDE8F041FFF7E0BE5E
:103AB000BDE8F0817047704710B5044600680549BD
:103AC000884201D1FFF792F82046BDE81040FEF78A
:103AD000B7BE000000140040704770477047FEF703
:103AE000BBBE00002DE9F04102680446D0691168B0
:103AF000936840F60F0528424FF000054FF002068C
:103B000005D187067ED58F067CD5A16E33E1DFF81F
:103B100094C203F0010701EA0C0C57EA0C0C71D0B7
:103B20005FEAC07C0CD05FEAC15C09D54FF0010CA4
:103B3000C2F820C0D4F8842042F00102C4F88420E6
:103B4000820709D5DA0707D022681662D4F88420E4
:103B500042F00402C4F8842042070AD5DA0708D0EC
:103B6000236804221A62D4F8842042F00202C4F8C6
:103B7000842002070CD501F020023A4308D02368C4
:103B800008221A62D4F8842042F00802C4F8842083
:103B900002050BD54A0109D523684FF400621A6269
:103BA000D4F8842042F02002C4F88420D4F8842081
:103BB000002A36D0800605D5880603D5A16E09B146
:103BC00020468847D4F8840021688968490602D4D1
:103BD00010F0280F27D0204600F0BBFE2068806838
:103BE00040061BD52068083050E8001F21F0400136
:103BF00040E80012002AF5D1606F78B16A4981630C
:103C0000606F00E015E0FEF7BFFE002809D0606F8E
:103C1000816B00E02046BDE8F04108472046FFF7F1
:103C20005EFFBDE8F0812046FFF759FFC4F88450DD
:103C3000F7E7D4F860C02027BCF1010F7ED15FEA1E
:103C4000C06C7BD55FEAC16C78D51020106220680B
:103C5000806840064FD5616F0A6850680004000C08
:103C60003DD0B4F85830834239D9A4F85A000868D6
:103C7000006880062BD4206850E8001F21F4807172
:103C800040E80012002AF6D12068083050E8001FF2
:103C900021F0010140E80012002AF5D12068083027
:103CA00050E8001F21F0400140E80012002AF5D141
:103CB000C4F880702566206850E8001F21F01001CC
:103CC00040E80012002AF6D1606FFEF737FE666604
:103CD000B4F85800B4F85A10401A81B207E0B4F8AA
:103CE000581081429DD1106880069AD5666620469C
:103CF000FFF7F3FE95E7B4F85800B4F85A10401AED
:103D000081B2B4F85A0000288BD0002989D02268EB
:103D100052E8000F20F4907042E80003002BF6D127
:103D20002068083050E8002F22F0010240E800230C
:103D3000002BF5D1C4F88070256600E00AE0A56686
:103D4000226852E8000F20F0100042E80003002B28
:103D5000F6D1CBE7C60209D55B0207D54FF4801038
:103D600010622046BDE8F041FFF7B8BE020606D556
:103D70000A0604D5E16E00297FF44CAF51E74006F6
:103D8000B8D54806B6D52046026852E8001F21F093
:103D9000400142E80013002BF6D1C767C56600F06A
:103DA00068F93EE7200100044949000810B5040005
:103DB00002D0E06F10B107E0012010BD002084F8B0
:103DC0007800204600F026F82420E067206801688B
:103DD00021F001010160606A10B1204600F0FCFC96
:103DE000204600F0A5FE0128E7D02068416821F4B4
:103DF000904141602068816821F02A01816020683B
:103E0000016841F0010101602046BDE8104000F06A
:103E100047BD00002DE9F0439DB00446142117A8CA
:103E2000FCF7E4FD5C216846FCF7E0FD4C4A2068A5
:103E300020214C4C03250227DFF82C9100269042CC
:103E400029D1C0140B9000916846FEF7C9FF08B154
:103E5000FEF772FDE06D40F00100E065E06D00F0FE
:103E600001001C90E06C40F00400E064E06C1996E6
:103E700000F004001C90CDE917570820CDE91A5036
:103E800017A94846FEF7B6FD002205214620FEF799
:103E900039FF462030E0354A4FF00708904230D1D4
:103EA0000120009008966846FEF79AFF08B1FEF7D9
:103EB00043FD206E40F480402066206E00F4804078
:103EC0001C90E06C40F00100E064E06CCDF86C8088
:103ED00000F001001C904FF4C060CDE91707CDE958
:103EE000196517A94FF09040FEF784FD00220521C7
:103EF0002520FEF707FF2520FEF7F6FE1DB0BDE8E2
:103F0000F0831B4A9042F9D104200A910090684640
:103F1000FEF766FF08B1FEF70FFDA06D40F48020AC
:103F2000A065A06D00F480201C90E06C40F00400BF
:103F3000E064E06CCDF86C8000F004001C90302050
:103F4000CDE91707CDE9196517A94846FEF752FDD7
:103F5000002205212720FEF7D5FE2720CCE7000010
:103F60000080004000100240000800480038014076
:103F70000048004030B4D0F88030202B02D002201E
:103F800030BC7047A9B1A2B1002303660A4C036894
:103F9000A3420BD05B681B0208D5046854E8003FBD
:103FA00043F0806344E80035002DF6D130BC00F0CA
:103FB000BFBE0120E4E7000000800040FEF778BCAF
:103FC0002DE9F84F0446C06F984615460E46202846
:103FD00002D0022000F04AB886B37DB30020C4F8B6
:103FE00084004FF02109C4F87C90FEF7F9FDA4F895
:103FF00050508246A4F85250A068B0F5805F01D1BD
:10400000206910B13546002600E000255FF020074A
:10401000B4F8520053464FF00002CDF80080D0B102
:104020008021204600F0E0FED0B94DB115F8010B1B
:1040300021688862E16F39EA010006D00120C9E7F2
:1040400036F8020BC0F30800F2E7B4F85200401E45
:10405000A4F85200DCE74021204600F0C5FE10B174
:10406000E7670320B6E7E7670020B3E718BCBDE8C1
:10407000E08F7047FEE700000148FFF733BD000006
:10408000CC0B002070B5264801F0EDFF254CA06454
:104090002348103001F0E7FF214AE064403A002154
:1040A000012002F063F81E4AA063303A002101208B
:1040B00002F05CF81A4AE063203A0021012002F085
:1040C00055F8174A2064103A0021012002F04EF8FA
:1040D000134A4FF482756064703A2946042001F057
:1040E00039FF0F4A2063583A2946062001F032FF73
:1040F0000B4A6063DC3A00210B4802F0AFF8084A33
:104100006062B83A0021094802F0A8F8044AA062A7
:10411000943A0021064802F0A1F8E06270BD000068
:10412000808B000800000020E5440008BD44000822
:10413000BD450008F0B587B014216846FCF756FC71
:104140003548C16C41F08001C164C16C01F080014F
:104150000591C16C41F00401C164C16C01F004011E
:104160000591C16C41F00201C164C16C01F0020112
:104170000591C16C41F00101C164C06C274E00F093
:1041800001000590002280213046FEF723FD244FD8
:10419000002220213846FEF71DFD0122510238463B
:1041A000FEF718FD062000904FF444100024CDE9DE
:1041B000010469463846FEF71DFC80200090012569
:1041C000CDE90154694630460394FEF713FC4FF4E1
:1041D00008700090CDE90154694638460394FEF713
:1041E00009FC2802CDE90004694638460294FEF72E
:1041F00001FC002205210720FEF784FD0720FEF7C1
:1042000073FD002205210820FEF77CFD0820FEF743
:104210006BFD07B0F0BD0000001002400008004830
:10422000000400480D4810B50B4901604FF41651C9
:104230004160002181600C22C160C0E904128161EB
:1042400001624162FFF7B2FD002803D0BDE81040D3
:10425000FEF772BB10BD000000800040CC0B0020B8
:104260000C4810B50A49016040F21F31416000213D
:1042700040F2E732C0E90212016141618161FFF75A
:10428000F8FA002803D0BDE81040FEF755BB10BD7A
:1042900000440140640D00200D4810B50B49016039
:1042A0004FF4E1314160002181600C22C160C0E91E
:1042B00004128161C16101624162FFF777FD00284C
:1042C00003D0BDE81040FEF737BB10BD00380140F9
:1042D000540C00200D4810B50B4901604FF4E1313A
:1042E0004160002181600C22C160C0E9041281613B
:1042F000C16101624162FFF759FD002803D0BDE8AA
:104300001040FEF719BB10BD00480040DC0C002037
:10431000FEE7FEE72DE9F041444C05468846E0689B
:104320000026810728680DD0E16801F00301814271
:1043300016D1A8B1E0686968C0F30210401C884239
:104340000ED120E0012804D0022805D0032807D18F
:1043500008E02168890701E021684905002907DB99
:1043600001265FE02168890302D421684903F5E74B
:10437000E1686A686FF00F0321F0730103EB02122A
:1043800011430143E160206820F080602060FEF767
:1043900027FC074605E000BFFEF722FCC01B0228F1
:1043A00037D820680001F7D4B8F1000F18D0B8F161
:1043B000010F1DD0287D4FF07E41400801EB406089
:1043C000A96840EA01202169194A11400843206187
:1043D000206840F080602060FEF702FC07461AE08B
:1043E000A868297B000240EAC1602169114AECE714
:1043F000288A1149400801EB4050A96840EA012091
:1044000021690E4AE1E700BFFEF7EAFBC01B022864
:1044100001D9032606E020680001F5D52069A969C5
:10442000084320613046BDE8F081000000100240E2
:10443000FF80FFF9FF80FF070000E0FFFF809FFF84
:10444000F8B51C4D06460024A86DC00002D5FEF745
:10445000BFFC0DE0A86D40F08050A865A86D00F08D
:1044600080500090FEF7B4FCA96D21F08051A96541
:10447000B0F5007F04D0802E07D94FF003040AE086
:10448000802E08D9A02E01D804E001D1022402E038
:10449000702E00D101240848016821F00701214352
:1044A0000160006800F00700A04201D00120F8BDC3
:1044B0000020F8BD0010024000200240084CC2B0AD
:1044C0004FF0FF35206B0028FCD02B4600226946B8
:1044D00001F00EFD0028F5D16846FDF7FFF8F1E781
:1044E0000000002092B0FEF7A9F8264C04F1600508
:1044F000A06B30B1002101F00BFE10B90020FEF7D7
:104500000FF9E06B30B1002101F002FE10B901207B
:10451000FEF706F9606C28B1002101F0F9FD08B939
:10452000FDF7BEFD206C30B1002101F0F1FD10B9A6
:1045300015A0FDF79FFFA078F8B12878E8B1FEF745
:104540004FFBA169401A6169884216D3FEF748FB08
:104550000C49A0617031A1F11000FDF745FF48B191
:10456000084B0BA27033402101A80095FBF77CFF9C
:1045700001A800E00CA0FDF77DFF142001F07CFCF9
:10458000B6E7000000000020534146450D0A000038
:104590004C6F6F702073656E74205B25735D2074A3
:1045A0006F2025730D0A00004C6F6F702073656ECD
:1045B00064206661696C65640D0A0000ECB02B4DE7
:1045C000686B0028FCD04FF0FF33002202A901F0F5
:1045D0008FFC0028F4D19DF8080001281FD0022884
:1045E000EED128780128EBD102A8FDF7B3FD002811
:1045F000E6D0FEF7F5FA044602A8FDF73FFB4F2090
:10460000009043AB224603A91948FCF76DFE78B130
:1046100043A8FDF75FFF0028D2D116A022E028783A
:1046200010B128780128CBD102A8FDF727FBC7E7F6
:10463000286A47F23051201A8842C1D30C482C62B4
:1046400001694368621A4FF47A71B2FBF1F2B3FB6D
:10465000F1F1CDE90021838C0CA2502157A8FBF782
:1046600003FF57A8FDF706FFAAE70000000000209F
:1046700024010020524E207265706F7274207365A1
:104680006E64206661696C65640D0A00474E535381
:104690003A207074733D257520656C3D256C7573EB
:1046A0002069763D256C75730D0A000010B54FF03A
:1046B000E020006903F06CFA012803D0BDE8104047
:1046C00002F084BD10BD10B596B044216846FCF7D9
:1046D0008DF9142111A8FCF789F94FF40070FEF749
:1046E00043FB08B172B6FEE703244FF48030CDE9F6
:1046F0000040001203901020049002202821CDE9F0
:104700000A04CDE90C410721CDE90E10109068464E
:10471000FEF7FCFD08B172B6FEE70F20CDE91104EB
:104720000020139014901590042111A8FEF7B6FCF8
:10473000002801D072B6FEE716B010BD024801682D
:1047400041F470010160704788ED00E00148FFF717
:104750000CB90000640D00200148FFF706B9000005
:10476000B00D002070B50268184B4FF0804698429B
:1047700001D0B04203D122F070044A682243144CA5
:10478000144D984205D0B04203D0A04201D0A842B7
:1047900003D122F44076CA6832434E6922F0800287
:1047A00032438E68C6620E688662984203D0A04289
:1047B00001D0A84201D109690163016841F00401F7
:1047C000016001214161026070BD0000002C0140C8
:1047D000004001400044014090F82410090706D52C
:1047E00001684A68436B22F400421A434A6090F819
:1047F0002410C90706D001684A68836A22F400328F
:104800001A434A6090F82410890706D501684A685F
:10481000C36A22F480321A434A6090F82410490790
:1048200006D501684A68036B22F480221A434A6065
:1048300090F82410C90606D501688A68836B22F4B3
:1048400080521A438A6090F82410890606D50168C0
:104850008A68C36B22F400521A438A6090F82410CD
:10486000490611D501684A68036C22F480121A4384
:104870004A60016CB1F5801F06D101684A68436C3B
:1048800022F4C0021A434A6090F82410090606D5A3
:1048900001684A68806C22F4002202434A60704733
:1048A0002DE9F84300260446C0F88460FEF798F925
:1048B0008046206800684FF0200500076FF07E47B3
:1048C00012D54346002229042046009700F08CFAB6
:1048D00050B1216851E8000F20F0800041E800024B
:1048E000002AF6D1E56721E020680068400722D55C
:1048F000434600224FF480012046009700F074FAEE
:10490000C8B1216851E8000F20F4907041E800021E
:10491000002AF6D12068083050E8001F21F001017C
:1049200040E80012002AF5D1C4F8805084F878607D
:104930000320BDE8F883E567C4F8805044F8606F51
:10494000666026760020F4E710B5806AFFF7C7F8A6
:1049500010BD016851E8002F22F4907241E8002355
:10496000002BF6D10168083151E8002F22F0010236
:1049700041E80023002BF5D1016E012908D102681E
:1049800052E8001F21F0100142E80013002BF6D17D
:104990002021C0F880100021016681667047000068
:1049A00010B5B0F85C20D0F880300168222B04D01C
:1049B000886940F00800886110BD496A436D114064
:1049C0001980416D891C4165B0F85A10491EA0F844
:1049D0005A10B0F85A100029EED1026852E8001FB0
:1049E00021F4907142E80013002BF6D101680831E0
:1049F00051E8002F22F0010241E80023002BF5D1FD
:104A00002021C0F88010002181664166154B0268A4
:104A10009A420BD05268120208D5036853E8002F5F
:104A200022F0806243E80024002CF6D1026E012AB5
:104A300002D0FFF7C3FA10BD0166026852E8001FFA
:104A400021F0100142E80013002BF6D10168CA6979
:104A5000D243D20601D410220A62B0F85810FFF7F0
:104A60003CF810BD0080004010B5B0F85C20D0F8D4
:104A700080300168222B04D0886940F008008861EA
:104A800010BD496A1140426D1170416D491C41656C
:104A9000B0F85A10491EA0F85A10B0F85A10002960
:104AA000EED1016851E8002F22F4907241E8002312
:104AB000002BF6D10168083151E8002F22F00102E5
:104AC00041E80023002BF5D12021C0F880100021FF
:104AD00081664166154B02689A420BD052681202F9
:104AE00008D5036853E8002F22F0806243E80024D1
:104AF000002CF6D1026E012A02D0FFF75FFA10BD3A
:104B00000166026852E8001F21F0100142E800131C
:104B1000002BF6D10168CA69D243D20601D4102213
:104B20000A62B0F85810FEF7D8FF10BD00800040B0
:104B30002DE9F0410446016880682269E369104369
:104B4000626900251A431043714F0A68714B1A407D
:104B500002430A6020684168E26821F44051114331
:104B600041602168A069B94201D0226A10438A6875
:104B700022F4306202438A606749236867488B42A7
:104B80000DD1D0F8880010F0030006D0012847D0DE
:104B9000022843D0032830D144E001212EE06049AF
:104BA0008B420BD1D0F8880010F00C0034D00428D0
:104BB00036D0082832D00C281FD133E059498B4217
:104BC0000BD1D0F8880010F0300025D0102827D065
:104BD000202823D0302810D124E0BB420DD1D0F8BA
:104BE000880010F4406017D0B0F5806F18D0B0F591
:104BF000006F13D0B0F5406F14D010214A4A002640
:104C00004FF40040BB422FD171B102290FD00429CB
:104C10000FD0082973D10FE00021EFE70221EDE763
:104C20000421EBE70821E9E7FEF7FAFA03E0104672
:104C300002E0FEF719FBE8B3626802EB4201814231
:104C40005DD8B0EB023F5AD8010E03025008181885
:104C500071410023FBF790FB344AA0F5407191426B
:104C60004DD82168C8604BE0E3694FF6EF77834287
:104C700028D1092943D2DFE801F005080B420D4293
:104C800042421000FEF7CCFA06E0FEF7DBFA03E042
:104C9000104602E0FEF7E8FA60B14100606801EBFF
:104CA0005001B1FBF0F0A0F11001B94227D84FF646
:104CB000F07100E024E00140C0F3420001432068AD
:104CC000C1601DE009291AD2DFE801F005080B19BF
:104CD0000D1919191000FEF7A3FA06E0FEF7B2FA53
:104CE00003E0104602E0FEF7BFFA48B1616800EB4E
:104CF0005100B0FBF1F0A0F11001B94205D9012536
:104D0000A6662846E666BDE8F08180B2A9E7000005
:104D100000800040F369FFEF0038014000100240BE
:104D200000440040004800400024F400FFFC0F0055
:104D300030B54165A0F85820A0F85A2000228266BC
:104D400081684FF48055FF23A94204D1016969BBF2
:104D500040F2FF1130E07F2431B3B1F1805F28D001
:104D6000A0F85C20C0F884202221C0F880100168DF
:104D7000083151E8002F42F0010241E80023002BE6
:104D8000F5D18168A94201D10169D9B1144981667F
:104D90000169C9B1016851E8002F42F4907241E8FD
:104DA0000023002BF6D118E0016941B9A0F85C306E
:104DB000D8E7016919B13F21A0F85C10D2E7A0F84B
:104DC0005C40CFE707498166026852E8001F41F066
:104DD000200142E80013002BF6D1002030BD000076
:104DE000694A0008A14900082DE9F047994617468D
:104DF0000D4604464FF00008089E33E0701C31D089
:104E0000FDF7EEFEA0EB0900B04218D8BEB1206855
:104E10000168490726D5802D24D0402D22D0C169B4
:104E2000C94309070DD4082505622046FFF791FD07
:104E3000C4F8845084F878800120BDE8F08703200E
:104E4000FBE7C069C04300050CD421684FF4006043
:104E500008622046FFF77DFD2020C4F8840084F816
:104E60007880ECE72068C06935EA000004D00020B3
:104E7000B842C3D00020E0E70120F9E70148FEF77F
:104E800031BE0000540C00200148FEF72BBE00008C
:104E9000DC0C0020FEE703B401984100009850EAC2
:104EA000C12018BF04204A0D18BF40F0010040F295
:104EB000FF72B2EB515F08BF40F00200012808BF4B
:104EC000052002B070470907090E002804DB00F135
:104ED000E02080F80014704700F00F0000F1E0209F
:104EE00080F8141D7047000070B59B482DED020B33
:104EF0002DED068B079D25F00044A04218DC974855
:104F0000844202DC0AD1069840B19DED060BBDEC4F
:104F1000068B02B0BDE8704000F04ABF002DCCBF48
:104F20009FED8F0B9FED900BBDEC068B02B070BD1B
:104F30008F48A04215DD8F48A042D8BF4FF0FF3404
:104F400058DD9DED060B51EC100BFFF7A4FF042874
:104F500008BF00F051FF9DED060BBDEC068B02B0C3
:104F600070BD9DED060B51EC100B00F064FFCDE918
:104F7000060181489FED828BA0423CDD8248A04221
:104F80001FDD00249FED82AB9DED060B53EC1A2B29
:104F900051EC100B03F010F89DED060B41EC190BD2
:104FA00053EC1A2B51EC100B03F08EFA53EC182B28
:104FB00003F060FC53EC192B03F0A6F8CDE90601D1
:104FC00049E09DED060B012453EC182B51EC100B1E
:104FD00002F0F2FF9DED060B41EC190B53EC182B80
:104FE00051EC100B03F046FC53EC192B03F08CF83A
:104FF000CDE906012FE06848A0421FDD02249FEDA5
:10500000689B9DED060B53EC192B51EC100B03F034
:105010005BFA53EC182B02F0CFFF9DED060B41EC31
:10502000180B53EC192B51EC100B03F023FC53EC31
:10503000182B03F069F8CDE906010CE09DED060B95
:10504000032453EC102B9FED580B51EC100B03F085
:105050005BF8CDE906019DED060B53EC102B51ECEE
:10506000100B03F031FA41EC180B53EC182B03F042
:105070002BFA41EC190B4E480621B0EE490AF0EE2E
:10508000690A784400F074FD53EC182B51EC100BB6
:1050900003F01AFA41EC180B4648B0EE490AF0EE5C
:1050A000690A0521784400F063FD53EC192B51EC9B
:1050B000100B03F009FA41EC100B51EC180B53ECF8
:1050C000102B002C0EDA02F077FF9DED061B53EC3F
:1050D000112B03F0F9F99DED061B53EC112B03F096
:1050E000F1FA35E002F068FF9DED061B53EC112B41
:1050F00003F0EAF941EC100B2F48784400EBC400B0
:1051000090ED001B51EC100B53EC112B03F0B2FB94
:105110009DED061B53EC112B03F0ACFB41EC100B87
:105120002648784400EBC40090ED001B51EC100BB6
:1051300053EC112B03F0C6FA41EC100B002DA2BF6B
:10514000BDEC068B02B070BD51EC100B02F028FFD5
:1051500041EC100B01E70000000010440000F07F5C
:10516000182D4454FB21F93F182D4454FB21F9BF5D
:105170000000DC3F0000203E0000F33F0000000084
:10518000000000000000F03F0000E63F00000000CB
:10519000000000000000004000800340000000000C
:1051A000000000000000F83F000000000000F0BF19
:1051B0000A3C0000C03B00004A3B0000023B0000EC
:1051C00070B56B4E2DED040B2DED028B82B0DDF82A
:1051D0001CC0DDE905235C422CF000411C4341EA80
:1051E000D474049D22F00040B44205D86C422C4394
:1051F00040EAD474B4420BD99DED061B9DED040B1F
:1052000002B0BDEC028B04B0BDE8704000F0DABD26
:10521000ACF14054A4F17F641C430BD0022404EA97
:10522000AC7444EAD27405439FED538B9FED542B2D
:1052300007D015E09DED040B51EC100B00F0F3FDD1
:1052400042E0002C11BF012C9DED040B02B0BDEC1F
:10525000028B04BF04B070BD022C38D0032C3BD0AD
:105260000B439FED491B9FED4A0B0AD0B14218D169
:10527000B04209D121F0804120F080400791059093
:105280000FE0002A15DA10E0434B7B44002C08BFE6
:1052900093ED000B0DD0012C10D0022C17D0032C55
:1052A0001AD0B0421DD1002A03DAB0EE410AF0EE66
:1052B000610A02B0BDEC028B04B070BD93ED000B2F
:1052C00051EC100B02F06CFE41EC100BF1E7B0EE6C
:1052D000480AF0EE680AECE7B0EE420AF0EE620A25
:1052E000E7E7401A00153C28C8BF8DED000B19DC1C
:1052F000BCF1000FBEBF10F13C0F9FED290B8DEDEF
:10530000000B0FDB9DED060B53EC102B9DED040BFA
:1053100051EC100B02F0F8FE00F08DFD00F083FD63
:10532000CDE90001002C08BF9DED000BC1D0012C80
:1053300010D0022C9FED1C0B53EC102B9DED000B9D
:1053400051EC100B0DD003F095FA53EC182B03F031
:1053500091FAB9E7019880F0004001909DED000BB3
:10536000A7E703F087FA53EC182B03F0ABF9ABE790
:105370000000F07F00000000182D4454FB2109407C
:10538000182D4454FB2109C0182D4454FB21F9BFAA
:10539000182D4454FB21F93F623A00000000000040
:1053A0000000000000000000075C143326A6A13CAA
:1053B00010B52F499FED2C1B2DED020B84B00598E5
:1053C00020F000408842D8BF9DED040B2DDD294917
:1053D000884209D1049840B94FF00100FBF7ADFBBA
:1053E00000F0FAFC06B010BD05DB9DED040B00F0EB
:1053F000DFFC06B010BD68469DED040B00F0E0F840
:1054000010F0030004BF9DED021B9DED000B0CD0BE
:1054100001280ED09DED021B9DED000B022817D038
:10542000012000F021FC06B010BD00F0E9FA06B042
:1054300010BD9DED021B9DED000B012000F014FC42
:1054400051EC100B02F0ACFD06B041EC100B10BD9E
:1054500000F0D6FA51EC100B02F0A2FD06B041ECC0
:10546000100B10BD00000000000000000000000054
:10547000FB21E93F0000F07F10B52F499FED2C1B69
:105480002DED020B84B0059820F000408842DCBF6F
:1054900000209DED040B32DD2849884209D1049893
:1054A00040B94FF00100FBF748FB00F095FC06B057
:1054B00010BD05DB9DED040B00F07AFC06B010BDBD
:1054C00068469DED040B00F07BF810F0030011D04E
:1054D000012818D09DED021B9DED000B02281AD06B
:1054E00000F08EFA51EC100B02F05AFD06B041ECC0
:1054F000100B10BD9DED021B9DED000B012000F077
:10550000B3FB06B010BD9DED021B9DED000B00F03E
:1055100077FA06B010BD012000F0A6FB51EC100B8D
:1055200002F03EFD06B041EC100B10BD0000000083
:105530000000000000000000FB21E93F0000F07FB8
:1055400000B52DED048BB0EE409AF0EE609A83B07A
:1055500051EC190B03F0C2F841EC180B18EE100ACD
:1055600018EE901A8DED008B002818BF012008431B
:1055700020F00040C0F17F6000F1E040C00F14D087
:1055800019EE101A19EE900A8DED009B002918BF34
:105590000121084320F00040C0F17F6000F1E040AD
:1055A000C00F04BF0120FBF7C8FAB0EE480A03B0F1
:1055B000F0EE680ABDEC048B00BD000000000000A6
:1055C0002DE9F14F04462DED020B2DED088B8AB02D
:1055D0009FEDE70B80ED020B139EE74826F0004598
:1055E00085420ADC9DED120B002084ED000B0AB011
:1055F000BDEC088B03B000F0FFB9E0489FEDE0ABD5
:105600009FEDE1BBA84247DDE14F9FEDE39B9FED9E
:10561000E48B9DED120B53EC1A2B51EC100B002E6A
:105620001CDD03F027F941EC100BBD4208D053EC10
:105630001B2B51EC100B03F01DF9C4E900010BE02A
:1056400053EC192B51EC100B03F014F953EC182BFD
:1056500003F010F9C4E900010120C8E702F0ACFC36
:1056600041EC100BBD4208D053EC1B2B51EC100B3E
:1056700002F0A2FCC4E900010BE053EC192B51EC41
:10568000100B02F099FC53EC182B02F095FCC4E9C6
:1056900000014FF0FF30AAE7C348A84279DB9DED37
:1056A000120B51EC100B00F0C6FB41EC180B9FEDF8
:1056B000C00B53EC102B02F007FF9FEDBF1B53EC08
:1056C000112B02F079FC02F077FE074602F0D1FEC2
:1056D00041EC190B53EC1A2B02F0F6FE53EC182B8D
:1056E00002F0F0FF41EC180B53EC1B2B51EC190BA3
:1056F00002F0EAFEDFF8C8A241EC100B4FEA1558A1
:105700000125FA4453EC102B51EC180B03F0B2F8BE
:10571000032DC4E900013DD0C1F30A5005EB45114A
:10572000A8EB00001139814234DA0AEB051BB0EE18
:1057300048AA9BED000BF0EE68AA53EC102B51EC3D
:10574000190B02F0C1FE41EC1B0B51EC1A0B53EC90
:105750001B2B03F08FF841EC180B51EC1A0B53EC98
:10576000182B03F087F853EC1B2B03F083F89BED09
:10577000020B41EC1A0B53EC102B51EC190B02F0FD
:10578000A3FE53EC1A2B03F075F841EC100B6D1CC3
:10579000B8E70EE0002EA8BF3846BFF628AF94ED5C
:1057A000000B51EC100B02F0FBFBC4E90001784246
:1057B0001DE7C6F3130040F4801EC6F30A50A0F2A2
:1057C000F530471100F01F05C5F12000DDF848B0A5
:1057D00008900020069007900520EC467949002D9E
:1057E00007EB0002794408BF51F8221009D051F8A4
:1057F000223001EB8201AB404A68089922FA01F19C
:105800001943A1FB0E26A1FB0B131A449A4234BF85
:105810000123002303EB06080CEB8003D3E901A668
:105820000E448E4234BF0121002192448A4411B1BA
:10583000924502D903E0924501D2012100E0002106
:10584000C3E901A641444CF82010011EA0F101005B
:10585000C4DC029800F10050850F0298DDE903676F
:105860008000DDF8148002F004FE41EC1A0B304693
:1058700002F016FE9FED541B53EC112B02F024FE98
:1058800041EC1B0B384602F00BFE9FED511B53EC15
:10589000112B02F019FE41EC180B404602F000FEFD
:1058A0009FED4D1B53EC112B02F00EFE41EC190B3A
:1058B00051EC180B53EC192B02F07EFB53EC1B2B15
:1058C00002F07AFB53EC1A2B02F076FBCDE90801CB
:1058D000002008909DED080B53EC1A2B51EC100B97
:1058E00002F0C8FF53EC1B2B02F0C4FF53EC182B43
:1058F00002F0C0FF53EC192B02F0E4FE9FED381BC1
:1059000053EC112B02F0E0FD9FED370B41EC180B2F
:1059100053EC102B9DED080B51EC100B02F0D4FD55
:1059200053EC182B02F048FB9FED310B41EC180BA8
:1059300053EC102B9DED080B51EC100B02F0C4FD45
:1059400053EC182B02F038FB41EC100B139810F0BD
:10595000004F06D06D4251EC100B02F021FB41ECE0
:10596000100B284684ED000B41E60000000000000B
:105970000000000000000000FB21E93F7CD902404C
:1059800000004054FB21F93F3163621A61B4D03DFD
:10599000FB21F93F000000000000601A61B4D03D17
:1059A0007370032E8A19A33BFB21394100000000CC
:1059B00083C8C96D305FE43F000000000000E03F95
:1059C000F235000040350000000000000000103EED
:1059D000000000000000103C000000000000103A31
:1059E000182D4454FB21F93D3326A611460B113CDA
:1059F00000000054FB21F93D30BCBDE8C08F000021
:105A000010B52DED040B2DED088B82B0B0EE419A50
:105A1000F0EE619A0B9820F000449FED4BABB4F18F
:105A2000795F11DA9DED0A0B51EC100B02F0C4FC0A
:105A3000002801BFB0EE4A0AF0EE6A0A02B0BDECDF
:105A4000088B04BF04B010BD9DED0A0B53EC102B66
:105A500051EC100B02F038FD41EC180B3C480621CC
:105A6000B0EE480AF0EE680A784400F081F853EC92
:105A7000182B51EC100B02F027FD9DED0A0B41ECA9
:105A80001B0B53EC192B51EC100B02F01DFD41ECDC
:105A9000190B53EC1B2B51EC180B02F015FD53ECBA
:105AA000192B02F0E7FE9FED2C0B41EC190B53EC88
:105AB000102B51EC180B02F007FD41EC100B28489D
:105AC000844210DA53EC192B51EC100B02F0D2FE89
:105AD00053EC1A2B02F0F6FD41EC100B02B0BDECBA
