:020000040800F2
:10000000384900201D0300080B2E00086D2B000846
:10001000092E0008211400087138000800000000B3
:100020000000000000000000000000003D02000889
:10003000231400080000000099020008893000081D
:1000400037030008370300083703000837030008A8
:100050003703000837030008370300082514000899
:100060002B14000837030008370300083703000883
:100070003703000837030008370300083703000878
:100080003703000837030008370300083703000868
:100090003703000837030008370300083703000858
:1000A0003703000829310008370300083703000828
:1000B00037030008000000000000000037030008BC
:1000C0003703000837030008370300083703000828
:1000D000370300085938000837030008653800085E
:1000E000370300083703000800000000000000008C
:1000F0000000000000000000000000000000000000
:10010000000000003703000800000000370300086B
:10011000000000000000000037030008353100082F
:1001200037030008370300083703000837030008C7
:10013000370300080000000000000000000000007D
:1001400037030008370300083703000800000000E9
:100150003703000837030008712B00083703000835
:1001600037030008370300083703000800000000C9
:1001700037030008370300080000000000000000FB
:1001800037030008370300083703000800F002F8BF
:1001900000F044F80AA090E8000C82448344AAF1DD
:1001A0000107DA4501D100F039F8AFF2090EBAE8DB
:1001B0000F0013F0010F18BFFB1A43F0010318479B
:1001C000505A0000705A0000103A24BF78C878C115
:1001D000FAD8520724BF30C830C144BF04680C604D
:1001E000704700000023002400250026103A28BF95
:1001F00078C1FBD8520728BF30C148BF0B60704799
:10020000782900F08F81732900F0F1830020704776
:100210001FB505F0D7FB1FBD10B510BD00F01DFCCC
:100220001146FFF7F5FF03F03BFB00F03BFC03B486
:10023000FFF7F2FF03BC00F043FC00002C4B1968F1
:10024000086800F05AB880F30988BFF36F8F4FF049
:10025000000080F311887047000000000848006823
:10026000006880F308884FF0000080F3148862B6BD
:1002700061B6BFF34F8FBFF36F8F00DF00BF00BFCA
:1002800008ED00E0DFF80C00016841F47001016046
:10029000704700BF88ED00E0EFF30980BFF36F8F78
:1002A000134B1A681EF0100F08BF20ED108A20E9CA
:1002B000F04F106009B44FF0500080F31188BFF385
:1002C0004F8FBFF36F8F04F0FDFB4FF0000080F302
:1002D000118809BC1968086800F014B81EF0100FE6
:1002E00008BF00F014B880F30988BFF36F8F704720
:1002F00054000020EFF30580704730C8B0E8C04FCD
:10030000FFF7A1BF30C8B0E8C04FFFF7E7BFB0ECC0
:10031000088AB0EC08CAFFF7E6BF0000094880472A
:1003200009480047FEE7FEE7FEE7FEE7FEE7FEE7D7
:10033000FEE7FEE7FEE7FEE704480549054A064BEF
:1003400070470000193100088D0100083843002073
:1003500038490020384500203845002053EA020C77
:1003600000F069802DE9F04B4FF00006002B1FBF15
:10037000B3FA83F503FA05F424FA05F65E4012BFDA
:100380001643B2FA82F502FA05F4C5F120051EBF44
:1003900022FA05FC44EA0C04203556EA044C4FEAE4
:1003A000144418BF641C4FF000084FF0000990423D
:1003B00071EB030C39D3002919BFB1FA81F701FAA7
:1003C00007F6B0FA80F700FA07F6C7F120071EBF5C
:1003D00020FA07FC46EA0C062037B6FBF4FCA7EB34
:1003E0000507103F07F01F0BCBF120060CFA0BFBA3
:1003F0002CFA06F644BFB3460026202FA4BF5E4663
:100400004FF0000B5BEA060C08BF4FF0010B19EB35
:100410000B09ABFB027C48EB0608C01B06FB02CCB9
:100420000BFB03CC71EB0C01C1E70B4602464146C6
:100430004846BDE8F08B13B54FF000004FF00001C7
:10044000AFF30080BDE81C40704700000FB47CB5DE
:100450000C0009AA009001D02044401E084B7B44A8
:1004600069460190089800F090FA05461CB10020FA
:10047000694600F09DFA28467CBC5DF814FB00003C
:100480005905000070B5044685690068C10601D5AC
:10049000302600E02026C00707D070BDD4E9012136
:1004A00030469047206A401C20626D1EF6D570BD14
:1004B00070B5044685690078C00707D170BDD4E9DE
:1004C000012120209047206A401C20626D1EF6D535
:1004D00070BD70B50C460546012A05D02878800607
:1004E00000D5EA69002302E0012305E05B1C93428A
:1004F00002D2E05C0028F9D1A869E618C01AA86108
:10050000286A184428622846FFF7BCFF04E0D5E9B2
:10051000012114F8010B9047B442F8D32846FFF7A5
:10052000C7FF70BD70B504460D4621461068AFF395
:1005300000802188090502D50F4A7A4402E00E4A5C
:100540007A440E32002104F1240305E000F00F0686
:100550000009965D5E54491C0028F7D120780023DD
:10056000000704D5702D02D009B1022311322046B4
:10057000BDE8704000F0ABB90A5600002DE9F05F0D
:10058000894604464FF0000ADFF824B1FB44C0F866
:1005900020A02046E168884700287DD0252806D085
:1005A000D4E901219047206A401C2062F1E7002530
:1005B0005F462046E16888472028064607DB312E43
:1005C00005D2B81910F8200C08B10543F1E7A807C7
:1005D00001D525F00405C4F81CA00027C4F818A014
:1005E0002A2E09D0304603F054F938B304EB8708BB
:1005F000303EC8F8186019E059F8041B204604EB97
:1006000087029161E1688847012F064618D1E069A9
:10061000002820DA25F020051DE0D8F8180000EBAE
:10062000800006EB40003038C8F818002046E1682A
:100630008847064603F02DF90028EED1012F0AD095
:100640002E2E08D12046E16888477F1C0646022FDF
:1006500045F02005C4DBA069002803DA404245F0DC
:100660000105A061E80701D025F01005A6B1A6F1AB
:100670004100192802D8203645F400654A46314623
:10068000204625604D46FFF7BBFD60B1012807D02D
:10069000ED1D25F0070000E007E000F1080978E70C
:1006A00005F1040975E730467AE7206A00F002B8E0
:1006B000E055000030BCBDE8C09F30B505460B4694
:1006C0002A4613F8014B12F8010B08B1A042F8D0EA
:1006D0001CB1002802D06D1CF1E7284630BD10B5D2
:1006E000431C02E010F8011B71B18107FAD14FF0F1
:1006F000013202C88C1A8C4314EAC211F9D0C01A14
:100700000A0603D0C01E10BDC01A10BD0A0401D0D5
:10071000801E10BD0902FCD0401E10BD032A40F20D
:10072000308010F0030C00F0158011F8013BBCF193
:10073000020F624498BF11F801CB00F8013B38BFAB
:1007400011F8013BA2F1040298BF00F801CB38BFB9
:1007500000F8013B11F0030300F04D81083AC0F0AE
:10076000088051F8043B083A51F804CBA0E808107F
:10077000F5E7121D5CBF51F8043B40F8043BAFF3B2
:100780000080D20724BF11F8013B11F801CB48BF0C
:1007900011F8012B24BF00F8013B00F801CB48BF42
:1007A00000F8012B704702F0FF0343EA032242EAFC
:1007B000024200F002B84FF000020429C0F012809B
:1007C00010F0030C00F01B80CCF1040CBCF1020F04
:1007D00018BF00F8012BA8BF20F8022BA1EB0C01D9
:1007E00000F00DB85FEAC17C24BF00F8012B00F8CF
:1007F000012B48BF00F8012B70474FF0000200B5F5
:10080000134694469646203922BFA0E80C50A0E833
:100810000C50B1F12001BFF4F7AF090728BFA0E8E1
:100820000C5048BF0CC05DF804EB890028BF40F8AD
:10083000042B08BF704748BF20F8022B11F0804FEF
:1008400018BF00F8012B70474FF0013C50F8042B03
:1008500051F8043B9A4221D1A2EB0C03934313EAD3
:10086000CC1317D150F8042B51F8043B9A4215D100
:10087000A2EB0C03934313EACC130BD150F8042BD7
:1008800051F8043B9A4209D1A2EB0C03934313EABB
:10089000CC13DBD04FF00000704700BFD01A01BA74
:1008A000B1FA81F101F0180122FA01F0CB40C1F157
:1008B0002001DBB2C0B2C01A2CFA01F3D11A914365
:1008C00011EAC311E6D170477047704770472DE9B0
:1008D000F0470D4699469246044600F12408016807
:1008E000880604D5E06921F01001216000E00120B4
:1008F000A84201DD471B00E00027A1697A1902EB3D
:100900000900081AA0612078C00602D42046FFF72B
:10091000B9FD002608E0D4E901211AF80600904745
:10092000206A401C761C20624E45F4DB2078C0060D
:100930000AD52046FFF7A6FD06E0D4E901213020C4
:100940009047206A401C2062381EA7F10107F4DCA2
:1009500007E0D4E9012118F805009047206A401CFF
:100960002062281EA5F10105F3DC2046FFF7A0FD5B
:100970002078000602D50220BDE8F0870120FBE7C1
:1009800001694A1C02610878704700B58FB0CDE953
:1009900001310021059105497944CDE90310114643
:1009A0006846FFF7EBFD0FB000BD0000E5FFFFFF5D
:1009B0000A6802F8010B0A607047D1E900239A42E5
:1009C00002D2531C0B601070704710B5436913B10D
:1009D000AFF3008001E0FFF77CFD012010BD12782D
:1009E00000F124010A7000224A700122EDE711682B
:1009F0004FF0FF32E9E710B5203AC0F00B80B1E8C4
:100A00001850203AA0E81850B1E81850A0E8185043
:100A1000BFF4F5AF5FEA027C24BFB1E81850A0E84C
:100A2000185044BF18C918C0BDE810405FEA827C66
:100A300024BF51F8043B40F8043B08BF7047D2077D
:100A400028BF31F8023B48BF11F8012B28BF20F81E
:100A5000023B48BF00F8012B7047754600F02CF8A8
:100A6000AE4605006946534620F00700854618B09B
:100A700020B5FFF761FCBDE820404FF000064FF0C5
:100A800000074FF000084FF0000B21F00701AC46C3
:100A9000ACE8C009ACE8C009ACE8C009ACE8C009E2
:100AA0008D46704710B50446AFF300802046BDE880
:100AB0001040FFF7BCBB000000487047D842002040
:100AC00001491820ABBEFEE7260002007047000077
:100AD0002DE9FF4FA7B098465FEA000B49D00029E7
:100AE00047D02998002844D0B8F1000F41D00E46D5
:100AF00019AF4FF0310900250846FFF7F0FD04005B
:100B0000AA4636D0182C34D8012000EB44003128F6
:100B10002FD80BE06942735D09EB410107EB4500FB
:100B200018A2FFF793FC022823D16D1CA542F1D334
:100B300007F814A019A800905B4614A2602101A830
:100B4000FFF784FC002814DD602812D201A90020E0
:100B500001E05040491C0A78002AFAD1009001AB0C
:100B60000EA260212998FFF771FC002801DD6028A2
:100B700003D300202BB000F017B8A8F80000012024
:100B8000F8E7000025303258000000004343545875
:100B9000412C25732C312C312C2573002425732AEC
:100BA000253032580D0A000030BCBDE8C08F10B5AA
:100BB00018B111B1FFF748FE08B1002010BD0120A7
:100BC00010BD000070B5064600F086FD05461348CE
:100BD000134C022E12D0042E1ED1042100F071FD00
:100BE000002819D12069281A502815D3A06B002895
:100BF00012D02561BDE8704003F02CB8022100F04E
:100C000060FD002808D1E068281A502804D3606BE2
:100C1000002801D0E560EDE770BD00000004004849
:100C20000000002030B5C1B0050018D04FF480722C
:100C3000694600F02BF9002811D019A16846FFF78A
:100C4000B6FF194C08B1E06A05E018A16846FFF745
:100C5000AEFF30B1206B002801D002F0FBFF41B0A5
:100C600030BD14A16846FFF7A2FF40B1207818B14B
:100C700013A000F045FAF2E710211B480CE01BA17D
:100C80006846FFF794FF10B100F076F8E7E72078A8
:100C90000028E4D16988281D00F03EFADFE7000053
:100CA0007264206D6F64650000000020726E206D1C
:100CB0006F64650063617264776F726400000000A6
:100CC00063617264776F7264206973206F6E6C79F0
:100CD00020617661696C61626C6520696E205244A6
:100CE000206D6F64650D0A00DE590008736F730094
:100CF000002805D04188002902D0001D00F0DCB991
:100D00007047000070B51A4E4FF48071304600F005
:100D1000D8FC184C22783AB100254FF40071012A12
:100D200007D0022A1AD10BE0002801D1012020703F
:100D300070BD08B1257070BD02202070658007E08D
:100D4000012807D06088B0F5967F0AD2401C6080E9
:100D5000012207E00122304600F0B8FC25706580D2
:100D600070BD00223046BDE8704000F0AFBC00000E
:100D7000000400481400002000B599B00020ADF830
:100D800060000F48007808B10EA016E0154918ABB6
:100D90006A46881DFFF79CFE70B1BDF8601068467A
:100DA00000F0BAF910A000F0ABF9BDF86010684689
:100DB00000F082F919B000BD13A000F0A1F9F9E725
:100DC0000000002068656C6C6F207465737420727D
:100DD00065717569726573205244206D6F64650D8D
:100DE0000A000000D0590008424432206D65737338
:100DF0006167652073656E7420746F2030333632FE
:100E00003734360D0A000000424432206672616DAC
:100E100065206275696C64206661696C65640D0AA1
:100E20000000000010B518B1418809B1021D02E0B0
:100E3000002010BD521C11782029FBD00D29F9D0BB
:100E40000A29F7D0C9B2242900D1521C117881B1E6
:100E5000517871B19178522901D0722909D1D17894
:100E60004D2901D06D2904D11179432907D0632977
:100E700005D004A1001DFFF720FC0028D9D00120D7
:100E800010BD0000524D432C00000000F0B50600DC
:100E90004FF00003184603D011B10AB1748802E084
:100EA0000020F0BD5B1CA3420BD2F5182D79202D3C
:100EB000F8D0092DF6D00D2DF4D00A2DF2D000E097
:100EC000641E9C4209D93519ED78202DF8D0092DE2
:100ED000F6D00D2DF4D00A2DF2D0521E0AE0F518EE
:100EE0002D79A5F14107192F01D82035EDB20D5408
:100EF000401C5B1CA34201D29042F0D300220A5452
:100F0000F0BD000070B50D46284C01001FD02046F2
:100F10000129806A33D0022947D16189244EFF29F3
:100F200005D304F10A033246022100F047F8608934
:100F30003118401C60810D700A2D36D11B4B1C4AA4
:100F40000A330221A06ABDE8704000F037B8E0889B
:100F5000184EFF2806D3154B32469B1D0021606AB0
:100F600000F02CF8E0883118401CE0800D700A2D4C
:100F70001BD10E4B0F4A9B1D0021606AE3E72189BC
:100F80000D4EFF2905D3094B32460833012100F0ED
:100F900015F820893118401C20810D700A2D04D1CC
:100FA000024B054A08330121CCE770BD0000002048
:100FB000D4020020D4000020D40100202DE9F04309
:100FC000C1B01D4690460E465FEA000929D0B8F12F
:100FD000000F26D0002D24D02888002821D04FF4DF
:100FE00082716846FFF709FC2C88FF2C00D9FF248A
:100FF0008DF80060ADF80240224641466E4601A8D9
:10100000FFF78CFB002730193B4607713A466946CB
:10101000484602F0F3FC2F804FF480714046FFF702
:10102000CAFB41B0BDE8F0830A4B00224FF4807147
:1010300040B1012809D002280AD15A81064800BFD0
:10104000FFF7B9BBDA800548FAE71A810448F7E7E9
:101050007047000000000020D4020020D4000020CF
:10106000D4010020002818D000680C49884203D120
:1010700001220B490B480EE00B49884204D1084974
:101080000122491C094806E00949884205D1044962
:101090000122891C074801F0E9BC7047008000402C
:1010A00002000020D4030020003801405C0400202E
:1010B00000480040E40400202DE9F0410D46060000
:1010C00017D0002D15D00C4CE06B002811D04FF03C
:1010D000FF37394602F0C6FC00280AD13B462A46B3
:1010E0003146064801F0E8FCE06BBDE8F04102F053
:1010F00016BDBDE8F081000000000020D4030020F0
:1011000010B5040007D0FFF7EAFA81B22046BDE827
:101110001040FFF7D1BF10BD2DE9F0410D4606008C
:1011200017D0002D15D00C4C206C002811D04FF09A
:10113000FF37394602F096FC00280AD13B462A4682
:101140003146064801F0B8FC206CBDE8F04102F0E1
:10115000E6BCBDE8F0810000000000205C04002037
:1011600070B5254C6078002844D1012565702A4669
:101170006902224800F0AAFA0020FFF755FF01207B
:10118000FFF752FF0220FFF74FFFE06A28B100216E
:10119000E06A02F0E5FC0028F9D0206B28B10021BC
:1011A000206B02F0DDFC0028F9D0606B28B1002133
:1011B000606B02F0D5FC0028F9D0A06B28B10021AB
:1011C000A06B02F0CDFC0028F9D00D4801F01CF90D
:1011D0000C48FFF747FF0C48FFF744FF0B48FFF7A9
:1011E00041FF2570002000F025F8BDE8704008A000
:1011F000FFF786BF70BD000000000020000400481B
:101200006C050020D40300205C040020E4040020CE
:1012100053797374656D2072656164792E2044651D
:101220006661756C74206D6F64653A2052440D0AD6
:101230000000000070B505461B48047805700120C9
:10124000FFF7F2FE0220FFF7EFFE1848184E7DB1BF
:101250000022202100F03AFA00228021304600F0DE
:1012600035FA012C1ED013A0BDE87040FFF748BF2F
:101270000122202100F02AFA01228021304600F0CC
:1012800025FA6CB111A000BFFFF73AFF4FF496703A
:1012900002F01BFB13211348FFF73EFF12A0E3E708
:1012A00017A0F1E71CA0DFE70000002000040048C1
:1012B00000080048537769746368656420746F2080
:1012C000524E206D6F64650D0A00000053776974FB
:1012D0006368656420746F205244206D6F64650DEF
:1012E0000A000000EF590008524420545852206F61
:1012F000757470757420656E61626C65640D0A00AA
:10130000416C726561647920696E205244206D6F72
:1013100064650D0A00000000416C7265616479200B
:10132000696E20524E206D6F64650D0A000000004A
:10133000002805D000680349884201D1FFF7E2BCCC
:10134000704700000044014010B500281BD0006821
:101350000D49884204D10020FFF766FE0B480EE0DD
:101360000B49884204D10120FFF75EFE094806E0E0
:101370000949884207D10220FFF756FE0748BDE819
:101380001040FFF76FBE10BD00800040D403002066
:10139000003801405C04002000480040E4040020C4
:1013A00010B500282CD0174A01681748914205D182
:1013B00081780020FFF7A6FD144818E0144A9142F6
:1013C0000BD1017821B10120FFF72EFE11480EE06C
:1013D000C1780120FFF796FDF8E70F4A91420FD13F
:1013E0000178012907D00220FFF71EFE0B48BDE857
:1013F0001040FFF737BE01790220FFF783FDF5E7C4
:1014000010BD00000080004000000020D403002038
:10141000003801405C04002000480040E404002043
:10142000FEE77047022000F055B8042000F052B8E3
:1014300072B6FEE710B540B190F8251000220229DF
:1014400005D00421C16380F82420012010BD01686B
:101450000B6823F001030B6001680B6823F00E0397
:101460000B6090F84410046C01F01C03012101FA98
:1014700003F3636080F8251080F82420002010BD5D
:1014800010B590F825100024022903D00421C1636F
:1014900001241AE001680A6822F001020A6001686A
:1014A0000A6822F00E020A6090F84410036C01F002
:1014B0001C02012101FA02F25A6080F82510002175
:1014C00080F82410816B01B18847204610BDFFF7DA
:1014D00079BB0000044910B50A68024202D00860D6
:1014E000FFF7F5FF10BD0000140401402DE9F04F97
:1014F000DFF8AC9100230325A9F1040B85B04FF070
:10150000010C0F2709F1040AABF1040EBFE000BF84
:101510000CFA03F6324075D00C7904F00304012C68
:1015200001D0022C1BD1846800945C0005FA04F8F9
:101530000494009C24EA08040094D1F80C80049CD4
:1015400008FA04F8009C48EA0408C0F808804468D7
:10155000B4430E79C6F300169E40264346600C79CC
:10156000E443A4070AD0C4684FEA430805FA08F622
:10157000B4438E6806FA08F62643C6600C7904F078
:101580000304022C10D1DC0800EB84040294246ACA
:101590005E074FEAD66807FA08F6B4430E6906FA02
:1015A00008F62643029C266204684FEA430805FABF
:1015B00008F6B4430E7906F0030606FA08F6264349
:1015C00006604C6814F4403F60D0364C266E46F0FE
:1015D00001062666246E23F0030604F0010400943D
:1015E000314C34440294A4689E074FEA167807FAF7
:1015F00008F6B443B0F1904F05D02C4EB04204D160
:10160000012612E042E000260FE0294EB04201D14F
:1016100002260AE0274EB04201D1032605E0264EFD
:10162000B04201D1042600E0072606FA08F6264358
:10163000029CA660D9F800604C46D1F8048096431D
:101640005FEAC82800D516432660DAF800405646FF
:10165000D1F8048094435FEA882800D514433460AD
:10166000DBF800405E46D1F8048094435FEA883896
:1016700000D514433460DEF800407646D1F804808B
:1016800094435FEAC83800D5144334605B1C0A6891
:1016900032FA03F47FF43CAF05B000F00FB800005D
:1016A000080401400010024000000140000400480E
:1016B00000080048000C00480010004830BCBDE89D
:1016C000C08F0069084000D0012070470AB18161D5
:1016D00070478162704700000148806870470000D1
:1016E00044000020024881680278114481607047FC
:1016F0004400002010B50024032000F09FF80F20C4
:1017000000F008F808B1012401E000F04FF820468D
:1017100010BD000030B505461F4887B0816D41F00F
:1017200020018165806D06A900F02000009001A8CD
:1017300000F0D2FA0498B0B100F0EEFA4000174978
:10174000174AB0FBF1F11748491E0260416040F2B0
:10175000E7320021C0E903218160816100F005FECC
:10176000040003D015E000F0D7FAE8E70D4800F0D8
:101770004BFE04000DD1372000F032F8102D07D2B7
:1017800000222946372000F039F80748056000E0BC
:10179000012407B0204630BD0010024040420F0037
:1017A00000140040B8050020480000200B4882B01B
:1017B000016E41F001010166016E01F0010100912D
:1017C000816D41F080518165806D002200F0805074
:1017D00000900F21901E02B000F010B800100240DF
:1017E000002809DB00F01F02012191404009800020
:1017F00000F1E020C0F8001170470000F0B40E4B7B
:101800001B680C46C3F30223C3F10705042D00D95E
:101810000425191D072901D2002300E0DB1E012643
:1018200006FA05F1491E214099409E40761E164059
:101830003143F0BC02F01DB80CED00E0064900F0A9
:10184000070208684FF6FF03184040EA0220034AE7
:1018500010430860704700000CED00E00000FA053E
:101860001649B0F5007F0868C0F3412009D002286E
:1018700005D0086820F4C06040F480600860002053
:1018800070470128FBD0086820F4C06040F4007065
:1018900008600B483222006850430A4AB0FBF2F05D
:1018A000401C00E0401E4A69520501D50028F9D1CC
:1018B00048694005E3D503207047000000700040F0
:1018C0005000002040420F000248006800F4C06051
:1018D00070470000007000402DE9F84F04460027D3
:1018E0000088A84D3E46000515D5606C60B1B0F586
:1018F000000F04D0B0F5400F2BD001270AE0E868B4
:1019000040F48030E86024E00021201D01F07EFAE0
:1019100007001ED03E46206880033AD5A86D4FF0E0
:101920000008C00009D4A86D40F08050A865A86DDB
:101930004FF0010800F080500090DFF84CA2DAF878
:10194000001041F48071CAF80010FFF7C5FE81460F
:1019500010E0D5F88800616C20F440000843C5F819
:101960008800D8E7FFF7B8FEA0EB0900022801D9EC
:10197000032705E0DAF80000C005F3D5002F7DD07D
:101980004FEA0706B8F1000F03D0A86D20F0805091
:10199000A8652078C00707D0D5F88800216A20F014
:1019A00003000843C5F888002078800707D5D5F8DC
:1019B0008800616A20F00C000843C5F88800207890
:1019C000400707D5D5F88800A16A20F03000084309
:1019D000C5F888002078800607D5D5F88800E16A28
:1019E00020F440600843C5F888002088800507D5AA
:1019F000D5F88800E16B20F440200843C5F8880042
:101A00002088400507D5D5F88800216C20F44010C7
:101A10000843C5F888002078400607D5D5F8880027
:101A2000216B20F440500843C5F888002078000658
:101A300007D5D5F88800616B20F440400843C5F80D
:101A400088002088C00507D5D5F88800A16B20F450
:101A500040300843C5F8880020684FF00067000355
:101A60004FF0806850D5D5F88800A16C20F0406018
:101A70000843C5F88800A06CB84200E005E03BD1FF
:101A8000E86840F48010E8603EE0D5F8900010F47B
:101A9000407014D0A16D814211D0D5F89000D5F8D6
:101AA000901020F4407041F48031C5F89010D5F8C2
:101AB000901021F48031C5F89010C5F89000C0074F
:101AC00011D0FFF709FE074641F2883907E000BF51
:101AD000FFF702FEC11B494501D9032652E7D5F89D
:101AE00090008007F4D5D5F89000A16D20F44070E7
:101AF0000843C5F8900045E7404505D10121201D68
:101B000001F084F900B106462068400317D5D5F8E6
:101B10008800E16C20F040600843C5F88800E06C64
:101B2000B84204D1E86840F48010E86007E040451E
:101B300005D10121201D01F069F900B10646208878
:101B4000400411D5D5F88800216D20F0405008439D
:101B5000C5F88800206DB0F1805F05D10221201DFD
:101B600001F054F900B106462088000406D555F866
:101B7000880F616D20F0804008432860304600F0F7
:101B800005B80000001002400070004018BCBDE81D
:101B9000E08F00002DE9F0470F4605006BD0494E5D
:101BA000306800F00700B84209D2306820F0070022
:101BB00038433060306800F00700B8425BD12878C5
:101BC000414C80070AD5A868A16801F0F00188425D
:101BD00004D9A16821F0F0010143A1602878C00771
:101BE0002CD06868032811D0022812D0216898B13F
:101BF000490500293FDAA16821F003010143A160F2
:101C0000FFF76AFD804641F2883910E021688901BA
:101C1000EFE721688903ECE78907EAE7FFF75CFD56
:101C2000A0EB0801494502D90320BDE8F087A06870
:101C3000696800F00C00B0EB810FEFD128788007C5
:101C40000AD5A868A16801F0F001884204D2A16811
:101C500021F0F0010143A160306800F00700B842B4
:101C60000BD9306820F0070038433060306800F04E
:101C70000700B84201D00120D7E72878400705D5F2
:101C8000A068E96820F4E0600843A06028780007B5
:101C900006D5A068296920F4605040EAC100A06020
:101CA00000F05EF8A168094AC1F30311515C01F02C
:101CB0001F01C8400649086006480068BDE8F047B3
:101CC000FFF728BD0020024000100240005B000822
:101CD00050000020480000200F2202600C4A936848
:101CE00003F003034360936803F0F0038360936899
:101CF00003F4E063C36092684FF4E06303EAD20246
:101D000002610448006800F00700086070470000A6
:101D1000001002400020024005480649006889681A
:101D2000054AC1F30221515C01F01F01C840704710
:101D30005000002000100240405B000805480649A2
:101D400000688968054AC1F3C221515C01F01F0196
:101D5000C84070475000002000100240405B00085F
:101D600070B52449002318468A68CC6812F00C022A
:101D700004F00306204C214D09D00C2A05D0042A7A
:101D800032D0082A00D1284670BD012E10D10B6830
:101D90001B0704D4D1F89430C3F3032302E00B688B
:101DA000C3F30313164E56F82330DAB10C2AEBD1E5
:101DB000C86800F00300022818D0032818D018467D
:101DC000CA68CB68C2F30212C3F306234343521C12
:101DD000B3FBF2F2C868C0F34160401C4000B2FBA4
:101DE000F0F070BD184670BD204670BD2046E7E794
:101DF0002846E5E7001002400024F400001BB7006D
:101E0000105B00082DE9F84304006FD0FA4DA86874
:101E100000F00C06E86800F003072078C00664D5DF
:101E200076B10C2E01D1012F0AD0A06900282868B4
:101E30007AD040F001002860FFF74EFC80465DE05C
:101E40002868800702D5A0690028DED0216A2868AA
:101E5000000703D5286800F0F00004E0D5F89400EE
:101E6000F02202EA1010814216D9084601F064F807
:101E700000283BD1286840F0080028602868216AC3
:101E800020F0F000084328606868E16920F47F4092
:101E900040EA0120686016E0286840F008002860E9
:101EA0002868216A20F0F000084328606868E1692A
:101EB00020F47F4040EA0120686026B9206A01F0E2
:101EC0003BF80028D5D1FFF74BFFA968CB4AC1F3F7
:101ED0000311515C01F01F01C840C9490860C9489D
:101EE0000068FFF717FC00287ED12EE0CAE000BF93
:101EF000FFF7F2FBA0EB0800022876D828688007DD
:101F0000F6D5286840F0080028602868216A20F08B
:101F1000F000084328606868E16920F47F4040EAE7
:101F20000120686011E0FFE720F001002860FFF762
:101F3000D3FB804606E000BFFFF7CEFBA0EB080016
:101F40000228DAD828688007F6D42078C00740D065
:101F5000082E18D00C2E01D1032F14D06068B0F5D4
:101F6000803F17D0B0F5A02F286817D020F480301C
:101F70002860286820F4802028606068E0B1FFF7BE
:101F8000ABFB804614E02868800322D560680028F7
:101F900078D01EE0286840F48030EDE740F48020DF
:101FA0002860F7E7FFF798FBA0EB08006428A4D8A7
:101FB00028688003F6D50CE0FFF78EFB804605E02D
:101FC000FFF78AFBA0EB0800642896D828688003F6
:101FD000F6D4207880073BD5042E11D00C2E01D1E9
:101FE000022F0DD0E06801E0AAE1FFE00028286898
:101FF0001ED040F480702860FFF76EFB07460CE0AF
:10200000286840050CD5E0680028C1D008E000BF72
:10201000FFF762FBC01B022893D828684005F7D55C
:102020006868217C20F0F85040EA016068600FE0A9
:1020300020F480702860FFF74FFB074605E000BFE3
:10204000FFF74AFBC01B0228B1D828684005F7D427
:102050002078000729D560690028D5F8940012D0AF
:1020600040F00100C5F89400FFF736FB074604E096
:10207000FFF732FBC01B022899D8D5F894008007DF
:10208000F6D512E02BE120F00100C5F89400FFF72F
:1020900023FB074605E000BFFFF71EFBC01B02281D
:1020A00085D8D5F894008007F6D42078400766D507
:1020B000A86D0027C00008D4A86D40F08050A86526
:1020C000A86D012700F0805000904F480168C905B5
:1020D00012D40168814641F480710160FFF7FCFA77
:1020E000804605E0FFF7F8FAA0EB080002287DD84B
:1020F000D9F80000C005F5D5A068012816D005283C
:10210000D5F8900017D020F00100C5F89000D5F860
:10211000900020F0040000BFC5F89000A06841F2D4
:102120008839C0B1FFF7D8FA80460FE0D5F89000A3
:1021300040F00100F0E740F00400C5F89000F5E73A
:10214000FFF7CAFAA0EB080149454FD8D5F890002F
:102150008007F5D50EE0FFF7BFFA804606E000BF26
:10216000FFF7BAFAA0EB080149453FD8D5F890002F
:102170008007F5D41FB1A86D20F08050A8652078A5
:10218000800628D5606A0028D5F8980012D040F063
:102190000100C5F89800FFF79FFA074605E000BF69
:1021A000FFF79AFAC01B022820D8D5F898008007BC
:1021B000F6D510E020F00100C5F89800FFF78CFA82
:1021C000074604E0FFF788FAC01B02280ED8D5F8AE
:1021D00098008007F6D4A06AF0B3022816D00C2E1F
:1021E0007DD0286820F08070286000E0A7E0FFF72D
:1021F00073FA0446A6E0000000100240005B0008ED
:10220000500000204800002000700040E868E26AAA
:1022100000F00301914228D1216B00F07002090106
:102220001039914221D1626B00F4FE41B1EB022FD3
:102230001BD194F8382000F07841B1EBC26F14D173
:10224000A18F00F4C00249084905A1F5001191428F
:102250000BD194F8401000E06AE04908490600F00C
:10226000C060A1F1007181424BD00C2E73D0286860
:10227000400170D4286820F080702860FFF72CFAA5
:10228000064604E0FFF728FA801B022857D8286882
:102290008001F7D4F4E90B016FF00F0202EB01119A
:1022A0000843218A5204490802EB4151A26841EADD
:1022B00002210843217D4FF07E42490802EB416133
:1022C0000843217B40EAC160E968244A1140084381
:1022D000E860286840F080702860E86800E03AE034
:1022E00040F08070E860FFF7F7F9044605E000BFB2
:1022F000FFF7F2F9001B022821D828688001F7D5E2
:1023000027E02868800124D4286840F08070286085
:10231000E86840F08070E860FFF7DEF9044604E00A
:10232000FFF7DAF9001B022809D828688001F7D5E1
:102330000FE000BFFFF7D0F9001B022802D90320ED
:10234000BDE8F88328688001F4D4E86804490840AF
:10235000E8600020F4E70120F2E700008C809D0196
:10236000FCFFEEFE70477047704710B5040003D0C5
:1023700094F83D0010B107E0012010BD002084F862
:102380003C00204600F022F8022084F83D00211D88
:10239000206800F0D5FE012084F8480084F83E0053
:1023A00084F83F0084F8400084F8410084F842003B
:1023B00084F8430084F8440084F8450084F846001B
:1023C00084F8470084F83D00002010BD08B500687F
:1023D0000B49884212D10B48016E41F4003101666D
:1023E000006E002200F40030009005211920FFF754
:1023F00005FABDE808401920FFF7F2B908BD000052
:10240000004401400010024090F83D10012901D025
:1024100001207047022180F83D100168CA6842F02F
:102420000102CA6000680B49884205D0B0F1804FB4
:1024300002D00949884207D18168084A114006291B
:1024400006D0B1F5803F03D0016841F00101016081
:1024500000207047002C01400040014007000100AF
:1024600070472DE9F04104460068C66805694FF0E1
:102470000007A90713D5B10711D5F91E0161012085
:102480002077206880698007204602D0FFF7E8FFA8
:1024900004E000F08BF8204600F089F82777680701
:1024A00016D5700714D521686FF00400086102206A
:1024B00020772068806910F4407F204602D0FFF723
:1024C000CFFF04E000F072F8204600F070F82777A4
:1024D000280715D5300713D521686FF0080008616B
:1024E000042020772068C0698007204602D0FFF7CB
:1024F000B7FF04E000F05AF8204600F058F82777BC
:10250000E80616D5F00614D521686FF010000861B2
:10251000082020772068C06910F4407F204602D050
:10252000FFF79EFF04E000F041F8204600F03FF87E
:102530002777E80708D0F00706D021686FF0010080
:102540000861204600F034F8280601D4A80408D514
:10255000300606D521686FF4025008612046FFF767
:1025600002FFE80508D5300606D521686FF48070B3
:1025700008612046FFF7F6FE680608D5700606D506
:1025800021686FF040000861204600F021F8A8069D
:102590000AD5B00608D521686FF0200008612046F2
:1025A000BDE8F041FFF7E0BEBDE8F081704770473D
:1025B00010B5044600680549884201D1FFF792F83A
:1025C0002046BDE81040FEF7B3BE000000140040F6
:1025D000704770477047FEF7B7BE00002DE9F04125
:1025E00002680446D0691168936840F60F052842D6
:1025F0004FF000054FF0020605D187067ED58F0605
:102600007CD5A16E33E1DFF894C203F0010701EA43
:102610000C0C57EA0C0C71D05FEAC07C0CD05FEA5E
:10262000C15C09D54FF0010CC2F820C0D4F8842059
:1026300042F00102C4F88420820709D5DA0707D0E6
:1026400022681662D4F8842042F00402C4F8842080
:1026500042070AD5DA0708D0236804221A62D4F8A0
:10266000842042F00202C4F8842002070CD501F055
:1026700020023A4308D0236808221A62D4F8842042
:1026800042F00802C4F8842002050BD54A0109D59E
:1026900023684FF400621A62D4F8842042F02002CA
:1026A000C4F88420D4F88420002A36D0800605D5CA
:1026B000880603D5A16E09B120468847D4F8840066
:1026C00021688968490602D410F0280F27D02046D7
:1026D00000F02DFE2068806840061BD52068083079
:1026E00050E8001F21F0400140E80012002AF5D117
:1026F000606F78B16A498163606F00E015E0FEF7B2
:10270000BFFE002809D0606F816B00E02046BDE865
:10271000F04108472046FFF75EFFBDE8F081204604
:10272000FFF759FFC4F88450F7E7D4F860C02027BA
:10273000BCF1010F7ED15FEAC06C7BD55FEAC16C52
:1027400078D5102010622068806840064FD5616FF0
:102750000A6850680004000C3DD0B4F85830834239
:1027600039D9A4F85A000868006880062BD420687C
:1027700050E8001F21F4807140E80012002AF6D1D1
:102780002068083050E8001F21F0010140E80012E5
:10279000002AF5D12068083050E8001F21F04001E0
:1027A00040E80012002AF5D1C4F880702566206840
:1027B00050E8001F21F0100140E80012002AF6D175
:1027C000606FFEF737FE6666B4F85800B4F85A102A
:1027D000401A81B207E0B4F8581081429DD11068C8
:1027E00080069AD566662046FFF7F3FE95E7B4F8B3
:1027F0005800B4F85A10401A81B2B4F85A000028B0
:102800008BD0002989D0226852E8000F20F4907004
:1028100042E80003002BF6D12068083050E8002F72
:1028200022F0010240E80023002BF5D1C4F88070AB
:10283000256600E00AE0A566226852E8000F20F055
:10284000100042E80003002BF6D1CBE7C60209D501
:102850005B0207D54FF4801010622046BDE8F041BE
:10286000FFF7B8BE020606D50A0604D5E16E0029B8
:102870007FF44CAF51E74006B8D54806B6D52046A0
:10288000026852E8001F21F0400142E80013002BCB
:10289000F6D1C767C56600F068F93EE7200100047D
:1028A0002533000810B5040002D0E06F10B107E036
:1028B000012010BD002084F87800204600F026F8A2
:1028C0002420E0672068016821F001010160606A4E
:1028D00010B1204600F06EFC204600F017FE0128E3
:1028E000E7D02068416821F4904141602068816808
:1028F00021F02A0181602068016841F00101016036
:102900002046BDE8104000F0B9BC00002DE9F043BE
:102910009DB00446142117A8FDF76FFF5C2168469F
:10292000FDF76BFF4C4A206820214C4C0325022701
:10293000DFF82C910026904229D1C0140B90009111
:102940006846FEF7C9FF08B1FEF772FDE06D40F082
:102950000100E065E06D00F001001C90E06C40F0CB
:102960000400E064E06C199600F004001C90CDE9CE
:1029700017570820CDE91A5017A94846FEF7B6FDAB
:10298000002205214620FEF739FF462030E0354A77
:102990004FF00708904230D1012000900896684619
:1029A000FEF79AFF08B1FEF743FD206E40F4804029
:1029B0002066206E00F480401C90E06C40F0010026
:1029C000E064E06CCDF86C8000F001001C904FF4E6
:1029D000C060CDE91707CDE9196517A94FF0904000
:1029E000FEF784FD002205212520FEF707FF2520A4
:1029F000FEF7F6FE1DB0BDE8F0831B4A9042F9D108
:102A000004200A9100906846FEF766FF08B1FEF7C1
:102A10000FFDA06D40F48020A065A06D00F4802023
:102A20001C90E06C40F00400E064E06CCDF86C8039
:102A300000F004001C903020CDE91707CDE919659E
:102A400017A94846FEF752FD002205212720FEF770
:102A5000D5FE2720CCE70000008000400010024097
:102A600000080048003801400048004030B4D0F869
:102A70008030202B02D0022030BC7047A9B1A2B117
:102A8000002303660A4C0368A3420BD05B681B0259
:102A900008D5046854E8003F43F0806344E80035FB
:102AA000002DF6D130BC00F031BE0120E4E700007B
:102AB00000800040FEF774BC2DE9F84F0446C06F5B
:102AC000984615460E46202802D0022000F04AB84B
:102AD00086B37DB30020C4F884004FF02109C4F808
:102AE0007C90FEF7F9FDA4F850508246A4F85250AD
:102AF000A068B0F5805F01D1206910B1354600268D
:102B000000E000255FF02007B4F8520053464FF074
:102B10000002CDF80080D0B18021204600F052FEA6
:102B2000D0B94DB115F8010B21688862E16F39EA1F
:102B3000010006D00120C9E736F8020BC0F30800F7
:102B4000F2E7B4F85200401EA4F85200DCE740213E
:102B5000204600F037FE10B1E7670320B6E7E767CD
:102B60000020B3E718BCBDE8E08F7047FEE7000027
:102B70000148FFF733BD0000D403002070B526489C
:102B800000F099FF254CE0632348103000F093FFDC
:102B9000214A2064403A0021012001F00FF81E4A2A
:102BA000E062303A0021012001F008F81A4A20635F
:102BB000203A0021012001F001F8174A6063103A21
:102BC0000021012000F0FAFF134A4FF48275A06340
:102BD000703A2946042000F0E5FE0F4A6062583A38
:102BE0002946062000F0DEFE0B4AA062DC3A0021F6
:102BF0000B4801F05BF8084AA061B83A0021094887
:102C000001F054F8044AE061943A0021064801F0CA
:102C10004DF8206270BD0000E05A0008000000205E
:102C2000DD2F0008B52F00083D300008F0B587B053
:102C300014216846FDF7E1FD3548C16C41F0800183
:102C4000C164C16C01F080010591C16C41F00401C7
:102C5000C164C16C01F004010591C16C41F0020135
:102C6000C164C16C01F002010591C16C41F0010128
:102C7000C164C06C274E00F0010005900022802145
:102C80003046FEF723FD244F002220213846FEF770
:102C90001DFD012251023846FEF718FD0620009066
:102CA0004FF444100024CDE9010469463846FEF78C
:102CB0001DFC802000900125CDE901546946304675
:102CC0000394FEF713FC4FF408700090CDE9015413
:102CD000694638460394FEF709FC2802CDE9000452
:102CE000694638460294FEF701FC002205210720C0
:102CF000FEF784FD0720FEF773FD00220521082062
:102D0000FEF77CFD0820FEF76BFD07B0F0BD00006C
:102D10000010024000080048000400480D4810B5AB
:102D20000B4901604FF416514160002181600C2273
:102D3000C160C0E90412816101624162FFF7B2FD26
:102D4000002803D0BDE81040FEF772BB10BD0000A4
:102D500000800040D40300200C4810B50A490160EF
:102D600040F21F314160002140F2E732C0E9021217
:102D7000016141618161FFF7F8FA002803D0BDE8E5
:102D80001040FEF755BB10BD004401406C0500200B
:102D90000D4810B50B4901604FF4E131416000214D
:102DA00081600C22C160C0E904128161C1610162CD
:102DB0004162FFF777FD002803D0BDE81040FEF721
:102DC00037BB10BD003801405C0400200D4810B531
:102DD0000B4901604FF4E1314160002181600C2218
:102DE000C160C0E904128161C16101624162FFF703
:102DF00059FD002803D0BDE81040FEF719BB10BDF7
:102E000000480040E4040020FEE7FEE72DE9F04121
:102E1000444C05468846E0680026810728680DD0A6
:102E2000E16801F00301814216D1A8B1E068696848
:102E3000C0F30210401C88420ED120E0012804D0CB
:102E4000022805D0032807D108E02168890701E09E
:102E500021684905002907DB01265FE02168890315
:102E600002D421684903F5E7E1686A686FF00F034F
:102E700021F0730103EB021211430143E16020686A
:102E800020F080602060FEF727FC074605E000BFC9
:102E9000FEF722FCC01B022837D820680001F7D4B7
:102EA000B8F1000F18D0B8F1010F1DD0287D4FF0F8
:102EB0007E41400801EB4060A96840EA0120216999
:102EC000194A114008432061206840F0806020606A
:102ED000FEF702FC07461AE0A868297B000240EAD8
:102EE000C1602169114AECE7288A1149400801EBC9
:102EF0004050A96840EA012021690E4AE1E700BF7D
:102F0000FEF7EAFBC01B022801D9032606E0206871
:102F10000001F5D52069A969084320613046BDE864
:102F2000F081000000100240FF80FFF9FF80FF07E2
:102F30000000E0FFFF809FFFF8B51C4D064600240F
:102F4000A86DC00002D5FEF7BFFC0DE0A86D40F0F3
:102F50008050A865A86D00F080500090FEF7B4FC8A
:102F6000A96D21F08051A965B0F5007F04D0802EB5
:102F700007D94FF003040AE0802E08D9A02E01D80B
:102F800004E001D1022402E0702E00D1012408489F
:102F9000016821F0070121430160006800F007008B
:102FA000A04201D00120F8BD0020F8BD0010024071
:102FB00000200240084CC2B04FF0FF35606A002884
:102FC000FCD02B460022694600F0BAFC0028F5D15F
:102FD0006846FDF727FEF1E700000020FEF7C0F885
:102FE000134CE06A30B1002100F0BAFD10B90020A6
:102FF000FEF720F9206B30B1002100F0B1FD10B9CF
:103000000120FEF717F9A06B28B1002100F0A8FD00
:1030100008B9FDF7B1FE606B30B1002100F0A0FDF2
:1030200010B904A0FEF76CF8142000F04EFCD8E7AD
:1030300000000020534146450D0A0000114CC2B06B
:103040004FF0FF35A06A0028FCD02B4600226946CD
:1030500000F076FC0028F5D19DF8000001280DD085
:103060000228EFD120780128ECD16846FDF7DAFE7E
:103070000028E7D06846FDF73BFEE3E7207800280C
:10308000E0D1F7E70000002010B54FF0E020006924
:1030900002F0A6FA012803D0BDE8104001F0BEBD41
:1030A00010BD10B596B044216846FDF7A6FB14216B
:1030B00011A8FDF7A2FB4FF40070FEF7D1FB08B199
:1030C00072B6FEE703244FF48030CDE900400012D1
:1030D00003901020049002202821CDE90A04CDE9B4
:1030E0000C410721CDE90E1010906846FEF78AFECC
:1030F00008B172B6FEE70F20CDE91104002013904D
:1031000014901590042111A8FEF744FD002801D069
:1031100072B6FEE716B010BD0248016841F47001B6
:103120000160704788ED00E00148FFF79AB90000A0
:103130006C0500200148FFF794B90000B805002095
:1031400070B50268184B4FF08046984201D0B042EB
:1031500003D122F070044A682243144C144D984263
:1031600005D0B04203D0A04201D0A84203D122F43E
:103170004076CA6832434E6922F0800232438E683C
:10318000C6620E688662984203D0A04201D0A8426F
:1031900001D109690163016841F004010160012165
:1031A0004161026070BD0000002C01400040014000
:1031B0000044014090F82410090706D501684A68C8
:1031C000436B22F400421A434A6090F82410C90766
:1031D00006D001684A68836A22F400321A434A60C2
:1031E00090F82410890706D501684A68C36A22F45A
:1031F00080321A434A6090F82410490706D50168C6
:103200004A68036B22F480221A434A6090F8241023
:10321000C90606D501688A68836B22F480521A4376
:103220008A6090F82410890606D501688A68C36B05
:1032300022F400521A438A6090F82410490611D5EE
:1032400001684A68036C22F480121A434A60016CD8
:10325000B1F5801F06D101684A68436C22F4C002B0
:103260001A434A6090F82410090606D501684A6896
:10327000806C22F4002202434A6070472DE9F84333
:1032800000260446C0F88460FEF726FA80462068CF
:1032900000684FF0200500076FF07E4712D54346C7
:1032A000002229042046009700F08CFA50B12168D2
:1032B00051E8000F20F0800041E80002002AF6D11A
:1032C000E56721E020680068400722D543460022D8
:1032D0004FF480012046009700F074FAC8B12168CD
:1032E00051E8000F20F4907041E80002002AF6D166
:1032F0002068083050E8001F21F0010140E800126A
:10330000002AF5D1C4F8805084F878600320BDE825
:10331000F883E567C4F8805044F8606F66602676ED
:103320000020F4E710B5806AFFF755F910BD016879
:1033300051E8002F22F4907241E80023002BF6D1CF
:103340000168083151E8002F22F0010241E8002312
:10335000002BF5D1016E012908D1026852E8001F47
:1033600021F0100142E80013002BF6D12021C0F813
:1033700080100021016681667047000010B5B0F82A
:103380005C20D0F880300168222B04D0886940F09E
:103390000800886110BD496A436D11401980416D74
:1033A000891C4165B0F85A10491EA0F85A10B0F8AF
:1033B0005A100029EED1026852E8001F21F49071E2
:1033C00042E80013002BF6D10168083151E8002FC4
:1033D00022F0010241E80023002BF5D12021C0F8A2
:1033E0008010002181664166154B02689A420BD01D
:1033F0005268120208D5036853E8002F22F0806259
:1034000043E80024002CF6D1026E012A02D0FFF717
:1034100051FB10BD0166026852E8001F21F0100147
:1034200042E80013002BF6D10168CA69D243D206E4
:1034300001D410220A62B0F85810FFF7CAF810BD84
:103440000080004010B5B0F85C20D0F880300168F2
:10345000222B04D0886940F00800886110BD496AB9
:103460001140426D1170416D491C4165B0F85A1010
:10347000491EA0F85A10B0F85A100029EED1016880
:1034800051E8002F22F4907241E80023002BF6D17E
:103490000168083151E8002F22F0010241E80023C1
:1034A000002BF5D12021C0F88010002181664166F3
:1034B000154B02689A420BD05268120208D5036875
:1034C00053E8002F22F0806243E80024002CF6D15C
:1034D000026E012A02D0FFF7EDFA10BD0166026804
:1034E00052E8001F21F0100142E80013002BF6D132
:1034F0000168CA69D243D20601D410220A62B0F828
:103500005810FFF766F810BD008000402DE9F0412B
:103510000446016880682269E369104362690025F6
:103520001A431043714F0A68714B1A4002430A60F4
:1035300020684168E26821F44051114341602168EC
:10354000A069B94201D0226A10438A6822F430622D
:1035500002438A606749236867488B420DD1D0F8DF
:10356000880010F0030006D0012847D0022843D07D
:10357000032830D144E001212EE060498B420BD179
:10358000D0F8880010F00C0034D0042836D0082879
:1035900032D00C281FD133E059498B420BD1D0F8DF
:1035A000880010F0300025D0102827D0202823D004
:1035B000302810D124E0BB420DD1D0F8880010F49F
:1035C000406017D0B0F5806F18D0B0F5006F13D001
:1035D000B0F5406F14D010214A4A00264FF4004045
:1035E000BB422FD171B102290FD004290FD0082975
:1035F00073D10FE00021EFE70221EDE70421EBE7B3
:103600000821E9E7FEF788FB03E0104602E0FEF739
:10361000A7FBE8B3626802EB420181425DD8B0EBE0
:10362000023F5AD8010E03025008181871410023B6
:10363000FCF794FE344AA0F5407191424DD82168C0
:10364000C8604BE0E3694FF6EF77834228D1092940
:1036500043D2DFE801F005080B420D424242100060
:10366000FEF75AFB06E0FEF769FB03E0104602E0B6
:10367000FEF776FB60B14100606801EB5001B1FBE1
:10368000F0F0A0F11001B94227D84FF6F07100E038
:1036900024E00140C0F3420001432068C1601DE006
:1036A00009291AD2DFE801F005080B190D191919BB
:1036B0001000FEF731FB06E0FEF740FB03E010468A
:1036C00002E0FEF74DFB48B1616800EB5100B0FB32
:1036D000F1F0A0F11001B94205D90125A6662846EE
:1036E000E666BDE8F08180B2A9E7000000800040F6
:1036F000F369FFEF00380140001002400044004031
:10370000004800400024F400FFFC0F0030B5416584
:10371000A0F85820A0F85A200022826681684FF451
:103720008055FF23A94204D1016969BB40F2FF1112
:1037300030E07F2431B3B1F1805F28D0A0F85C2065
:10374000C0F884202221C0F880100168083151E8B7
:10375000002F42F0010241E80023002BF5D18168DF
:10376000A94201D10169D9B1144981660169C9B180
:10377000016851E8002F42F4907241E80023002BC9
:10378000F6D118E0016941B9A0F85C30D8E70169C9
:1037900019B13F21A0F85C10D2E7A0F85C40CFE758
:1037A00007498166026852E8001F41F0200142E8A3
:1037B0000013002BF6D1002030BD00004534000876
:1037C0007D3300082DE9F047994617460D4604461B
:1037D0004FF00008089E33E0701C31D0FDF77CFFED
:1037E000A0EB0900B04218D8BEB1206801684907B3
:1037F00026D5802D24D0402D22D0C169C943090788
:103800000DD4082505622046FFF791FDC4F88450C9
:1038100084F878800120BDE8F0870320FBE7C069C9
:10382000C04300050CD421684FF4006008622046B4
:10383000FFF77DFD2020C4F8840084F87880ECE751
:103840002068C06935EA000004D00020B842C3D027
:103850000020E0E70120F9E70148FEF7BFBE0000C5
:103860005C0400200148FEF7B9BE0000E40400201B
:10387000FEE70907090E002804DB00F1E02080F8CC
:103880000014704700F00F0000F1E02080F8141DD4
:10389000704730380A2801D2012070470020704755
:1038A000FDF728FFFFF7FDFBFFF7C0F9FFF736FA3A
:1038B000FFF78CFAFFF76CFAFFF74EFA00F012F8F8
:1038C000FFF75CF900F020F8FEE710B5EFF3058193
:1038D00011B16FF0050403E0002408B100F0F6FF19
:1038E000204610BDEFF3058010B16FF00500704762
:1038F0000448016811B14FF0FF30704701210160A9
:1039000000207047A400002010B5EFF3058010B12F
:103910006FF0050010BD08480168012902D04FF082
:10392000FF3010BD054A002182F8141D02210160FC
:1039300001F07CF8002010BDA40000200BE000E0A6
:10394000F8B51D466FF003026FF002064FF0000459
:10395000EFF30583A3B1F0B1E9B1E5B9002200921C
:103960006A4601F077FC012817D10098B0B10C49E4
:103970004FF080500860BFF34F8FBFF36F8F0DE0A3
:1039800048B141B12A4601F0C9FB012806D025B152
:103990006FF0010402E0144600E034462046F8BD12
:1039A00004ED00E0F8B514464FF00005EFF3058292
:1039B00012BB08B301B3A4B1D4E9023263B1502AF7
:1039C0001AD32269C2B1676900FB01F6B74213D36B
:1039D000009501F0AFF907E072B9226962B9626936
:1039E00052B9002201F085F9050005D00CB121681B
:1039F00000E0002100F008FF2846F8BDF8B51D469C
:103A00006FF003026FF002064FF00004EFF305833E
:103A1000ABB100B3F9B1F5B90022134600926A4682
:103A200001F0B0FA012818D10098B8B10C494FF054
:103A300080500860BFF34F8FBFF36F8F0EE050B11F
:103A400049B100232A4601F0EDF9012806D025B13D
:103A50006FF0010402E0144600E034462046F8BD51
:103A600004ED00E02DE9F0410D46014621F0010092
:103A700001F001014FF00004EFF305820AB1A41F29
:103A800016E048B100296FF001066FF002072946E1
:103A900008D001F0E9FC07E06FF0030408E035B15D
:103AA000344605E001F024FC0128F8D100E03C4652
:103AB0002046BDE8F08170B505464FF00004EFF3F5
:103AC000058050BB0DB1686800E00020C10701D03F
:103AD000012600E0002600071FD46DB1D5E90210D1
:103AE00021B1502819D31EB1042002E020B114E006
:103AF000012001F0F1F805E00EB1042000E0012002
:103B000001F0DFF8040008D00DB1296800E00021C1
:103B100000F07AFE0EB144F00104204670BD70B58D
:103B2000014621F0010001F001014FF00004EFF324
:103B300005820AB1A41F11E028B16FF0020529B176
:103B400001F0CDFA07E06FF0030407E000231A4606
:103B5000194601F067F9012800D02C46204670BDB7
:103B6000F8B50D460024211F4E1C002804D000BFCC
:103B7000EFF30582A2B10DB10C461BE000216A46AD
:103B8000009101F067FB012813D1009890B10A4918
:103B90004FF080500860BFF34F8FBFF36F8F09E085
:103BA000294601F0A5FB012804D015B16FF00104EE
:103BB00000E034462046F8BD04ED00E0F8B51446B8
:103BC00003460E464FF00005EFF3058098BB93B314
:103BD0009E423DD84CB1A0680028E06803D0502830
:103BE00036D3012002E008B132E00020012B05D0DD
:103BF00010B31846A26801F044F820E040B1032059
:103C00000090002211460120A36801F093F804E01F
:103C100003220021012001F06CF8050018D086B1C4
:103C200000231A46194601F0FDF8012809D028465C
:103C300000F0FEFD00250BE0184601F005F8050038
:103C400006D00CB1216800E00021284600F0DCFD20
:103C50002846F8BD38B50024E51E00280BD000BF6B
:103C6000EFF30581A9B100210091694601F0E9F95E
:103C7000012815D102E06FF0030412E0009880B132
:103C800009494FF080500860BFF34F8FBFF36F8F2B
:103C900007E000231A46194601F0C4F8012800D0B5
:103CA0002C46204638BD000004ED00E02DE9FF4120
:103CB0004FEA01034FF00005EFF30581039549BB7F
:103CC00040B38027182100244AB3166806B1344651
:103CD00096691EB13146761E382E02D21679F60745
:103CE00003D0002004B0BDE8F081566906B1B708E2
:103CF000D2F808C0BCF1000F0DD0D5685C2D18D3E8
:103D000012693AB136B18DE806103A46214601F003
:103D100035FC03900DE0D6685EB912694AB903AA72
:103D2000CDE90012BAB2214601F0F8FB012800D01B
:103D300003950398D6E700002DE9F041134C0F4698
:103D40000546E6682068001D00F060FC681C07D18D
:103D500037B12168BDE8F0410D48091D00F0A6BC4F
:103D600020683544B5424560216805D2A06BBDE8A6
:103D7000F041091D00F082BC606B091D00F07EFC63
:103D8000A06A854200D2A562BDE8F08154000020FF
:103D9000F40A00202DE9F041054600F093FC2D4C7B
:103DA000A068401CA06020682B4F10B1606930B340
:103DB0002BE02560A068012827D1002606EB8600AD
:103DC00007EB800000F04CFC761C382EF6D323481D
:103DD00000F046FC2148143000F042FC1F48283017
:103DE00000F03EFC1D483C3000F03AFC1B485030CF
:103DF00000F036FC194860631430A06305E02068C9
:103E0000E96AC06A884200D82560606A401C606226
:103E10006864E86A2169884200D9206100EB80006B
:103E200007EB8000291D00F041FC00F06BFC60698D
:103E300000280CD02068E96AC06A884207D2084985
:103E40004FF080500860BFF34F8FBFF36F8FBDE816
:103E5000F08100005400002044060020A40A002045
:103E600004ED00E038B500F02DFC104C2068C8B916
:103E70000F4800F0F5FB0E48143000F0F1FB0C4841
:103E8000E060143020610A4B0020F03B009003F109
:103E9000500210210A2000F04DFF206010B105A152
:103EA00000F0B2FCBDE8384000F02CBC90000020CF
:103EB000F80B0020546D72510000000030B4026C09
:103EC0000B46002A0BD0C1681144C1608468A1422E
:103ED00001D30168C16030BC1846FCF71FBC30BC80
:103EE00070472DE9F041856B174604460026026CA9
:103EF00082B1C7B1E068FCF711FCE168206C091AD7
:103F0000E1602268914202D2A168081AE060022FA3
:103F100016D017E02068A8B9A06801F0D9FB0646C2
:103F20000020A0600EE06068FCF7F8FB216C606880
:103F300008446060A168884204D32068606001E0A2
:103F400005B16D1E6D1CA5633046BDE8F08110B54E
:103F5000044690F8590058B101280CD002280FD01F
:103F6000502080F31188BFF34F8FBFF36F8FFEE7B0
:103F7000206B00F0DBFB2046BDE8104000F0D6BB14
:103F800010BD000010484FF44051420706D0C01D3C
:103F90000D4920F00700411AC1F540510B4A00239A
:103FA0000144C2E900030839183A21F00701116001
:103FB0004B600B600B1AC0E9001393604FF0004098
:103FC0005360506170470000D8120020C0000020EC
:103FD000144E154CA6F29C474FF08058DFF84C90D9
:103FE00012E000BF00F06EFBF068C568281D00F00D
:103FF0000DFBA068401EA0606068401E606000F07D
:1040000081FB2846FFF7A3FF60680028EAD13868E3
:104010000128F9D9C9F80080BFF34F8FBFF36F8F24
:10402000F2E70000E00A00205400002004ED00E068
:10403000002807D00021816001600B460A46C1605C
:1040400000F0F0BE7047000070B51D46049C51B1F1
:10405000C4F80020C4E90F010121204600F09EFEB3
:1040600084F84C5070BD2460F4E700002DE9F05F47
:104070008846DDE90B941546834691009A460A9ED0
:10408000A522206BFCF78FFB6FF00301206B01EB87
:104090008501084420F00707780707D0502080F3F7
:1040A0001188BFF34F8FBFF36F8FFEE70025B8F184
:1040B000000F0FD05FF00000221818F8001082F8EF
:1040C000341018F8001011B1401C1028F4D384F8F3
:1040D000435001E084F83450382E00D33726E6628E
:1040E000C4E91365201D00F0C6FA04F1180000F0C1
:1040F000C2FA2461C6F138006462A061656584F883
:10410000585052465946384600F06AFA2060B9F1D4
:10411000000F01D0C9F8004000F000B830BCBDE885
:10412000C09F000030B5114900E011460A68824284
:10413000FBD34B685C18844203D140681844486044
:10414000084643681C18944209D1084C183C24685E
:10415000A24209D052681A4442600A68126802609A
:10416000814200D0086030BD0460F9E7C000002043
:1041700070B5002441600B4D0061914206D8D11A00
:104180008269914206D2011D286907E09A4203D252
:10419000994201D3012403E0011DE86800F06EFAA2
:1041A000204670BD9000002010B5044600F08AFA49
:1041B000A06B28B15FF0000400F0A4FA204610BD07
:1041C0000124F9E730B589B03C4D6EE00498002831
:1041D00006DADDE90601059A90470498002864DBB9
:1041E000069C606910B1201D00F010FA03A800F0D1
:1041F000D7F8024604980A2857D2DFE800F00505F0
:10420000052D334A05052D3394F8280040F00100B0
:1042100084F828000599A069059B01442046FFF712
:10422000A7FF68B3216A2046884794F82800400712
:104230003BD5002000900598A1690023421819463B
:10424000204601F08BFBD8B9502080F31188BFF3D2
:104250004F8FBFF36F8FFEE714F8280F20F0010097
:10426000207022E094F8280040F0010084F8280033
:104270000598A06128B1811813462046FFF778FF02
:1042800013E0502080F31188BFF34F8FBFF36F8F7F
:10429000FEE794F82800810703D4204600F046FA90
:1042A00003E020F0010084F82800002204A9286817
:1042B00000F034FF002889D109B030BD9000002003
:1042C0002DE9FC410F46054600F0F4FB01A800F083
:1042D00067F80446019818B101F0AEFABDE8FC8118
:1042E000254EAFB130690068D0B30027291B3A468C
:1042F000306800F0C9FA01F09FFA0028EED11F499A
:104300004FF080500860BFF34F8FBFF36F8FE5E72A
:10431000A542EBD801F090FAF0682746C068C4685F
:10432000201D00F073F994F82800410719D5A06901
:104330002B4641193A462046FFF71AFFA8B1002044
:104340000346014600902A46204601F007FB60B96B
:10435000502080F31188BFF34F8FBFF36F8FFEE7BC
:1043600007E020F0010084F82800216A20468847F1
:10437000B4E70127BAE700009000002004ED00E058
:104380000648416B096829B1416BC968C968496829
:10439000816270474FF0FF31FAE7000054000020BF
:1043A00070B5054601F02AF9064E0446B06884420D
:1043B00003D200F009F8012000E000202860204628
:1043C000B46070BD90000020F8B5194D20E0C068C1
:1043D000C4680668201D00F019F9216A2046884744
:1043E00094F82800400713D5A0693044B04206D99C
:1043F00024616060211DE86800F040F908E00020B9
:104400000346014600903246204601F0A7FA38B133
:10441000E86801680029DAD12969C5E90310F8BD07
:10442000502080F31188BFF34F8FBFF36F8FFEE7EB
:104430009000002008484068401C4FF0500080F376
:10444000118804D0BFF34F8FBFF36F8FFEE7BFF328
:104450004F8FBFF36F8FFEE7C8000020074CE06866
:10446000016841B1C0680021D0F80000FFF728FFC3
:10447000FFF7A8FEF3E701210020F7E790000020F6
:104480002DE9F041044600F01DF994F9455004F17E
:10449000240609E0606A48B1304601F095F908B198
:1044A00000F042FA6D1E6DB2002DF3DC4FF0FF36C6
:1044B00084F8456000F026F900F004F994F94450BE
:1044C00004F1100709E0206948B1384601F07CF991
:1044D00008B100F029FA6D1E6DB2002DF3DC84F8EE
:1044E0004460BDE8F04100F00DB900002DE9F04155
:1044F0000546002700F0DEFA324E306808B9FFF7B3
:1045000041FD706905424ED1C5B3083568070ED02C
:1045100005F00700C0F108000544680707D05020E7
:1045200080F31188BFF34F8FBFF36F8FFEE72DB37A
:104530007068854237D82348183001460C6801E07E
:1045400020460C466168A94202D221680029F7D1B1
:1045500031688C4227D0076821680160606808379D
:10456000411B10290FD96019420708D0502080F351
:104570001188BFF34F8FBFF36F8FFEE713E04160E9
:104580006560FFF7CFFD61687068401A7060B268BF
:10459000904200D2B060706901430020C4E900017C
:1045A000F068401CF06001F047F9780707D0502010
:1045B00080F31188BFF34F8FBFF36F8FFEE738464C
:1045C000BDE8F081A80000200449086818B1086817
:1045D000026D521C026508687047000054000020FC
:1045E00010B5031F4FF080741C601B1F21F00101E8
:1045F0001960191F044B0B6014390A60091F6FF012
:10460000020244380A6010BD35440008D0E9013286
:1046100001699A60D0E901235A604A68824201D157
:1046200082684A60002202610868401E08600868CB
:1046300070470000034B036003F15C0008608020BA
:1046400010607047200C0020044B036003F15C00F5
:1046500008604FF480701060704700007C0E0020EE
:1046600000F108014FF0FF32C0E90112C1600161A1
:1046700000210160704700210161704730B50B686F
:104680005A1C02D000F1080202E0026904E022464E
:10469000546825689D42FAD953684B6099608A60D6
:1046A000516008610168491C016030BD42684A6080
:1046B00093688B6093685960916008610168491C38
:1046C00001607047502080F31188BFF34F8FBFF314
:1046D0006F8F0A494868401C486001280CD108487F
:1046E000006810F0FF0F07D0502080F31188BFF34F
:1046F0004F8FBFF36F8FFEE770470000C8000020A8
:1047000004ED00E00849486828B1401E486001D126
:1047100080F311887047502080F31188BFF34F8FCA
:10472000BFF36F8FFEE70000C800002070B50028BF
:104730002AD0164DA0F1080460686969084207D1C3
:10474000502080F31188BFF34F8FBFF36F8FFEE7C8
:1047500022683AB1502080F31188BFF34F8FBFF326
:104760006F8FFEE78843606000F0A4F960686968B5
:10477000084468602046FFF7D5FC2869401C286182
:10478000BDE8704001F058B870BD0000A8000020DE
:104790004FF0E02000210161816105494FF47A72F8
:1047A0000968B1FBF2F1491E4161072101617047BF
:1047B0005000002010B5FBF79DFD114910280ED3C5
:1047C00000F1E02090F8F0030A78904207D25020E0
:1047D00080F31188BFF34F8FBFF36F8FFEE7094857
:1047E0000068896800F4E060884207D9502080F3AF
:1047F0001188BFF34F8FBFF36F8FFEE710BD00002E
:10480000C80000200CED00E010B5084B002200BFEE
:1048100053F832401CB1521C082AF9D310BD43F89A
:10482000321003EBC201486010BD000004060020F6
:1048300010B504000AD000F013F894F846000028E0
:104840000CD12046BDE81040FFF770BF502080F328
:104850001188BFF34F8FBFF36F8FFEE710BD0000CD
:10486000084A002102EBC1035B68834206D10020A5
:1048700042F8310002EBC10148607047491C082929
:10488000F0D370470406002070B515460E46044666
:10489000FFF718FF94F944100020491C01D184F857
:1048A000440094F94510491C01D184F84500FFF7F4
:1048B00029FFA06B28B92A46314604F1240000F0F4
:1048C00051F82046BDE87040FFF7DABD10B5020090
:1048D00014D00F48006B38B1502080F31188BFF31B
:1048E0004F8FBFF36F8FFEE700F0E4F80021104612
:1048F000FFF722FA00F0A0FF002807D105494FF08A
:1049000080500860BFF34F8FBFF36F8F10BD000062
:104910005400002004ED00E002490A6A0260C96800
:10492000416070475400002001490120C861704770
:104930005400002010B50C4650B1094909681831DF
:10494000FFF79CFE2046BDE810400121FFF7F4B9B7
:10495000502080F31188BFF34F8FBFF36F8FFEE7B6
:104960005400002070B514460D4668B10A49096824
:104970001831FFF79BFE0CB14FF0FF35214628465A
:10498000BDE87040FFF7D8B9502080F31188BFF31D
:104990004F8FBFF36F8FFEE75400002070B5040007
:1049A0003ED0226DA2B1E06C884200D30146E06A9D
:1049B000884235D0012A33D11A4D2A6894420FD14A
:1049C000502080F31188BFF34F8FBFF36F8FFEE746
:1049D000502080F31188BFF34F8FBFF36F8FFEE736
:1049E000E162A269002A02DBC1F13801A1610E4E29
:1049F00000EB8000616906EB8000814210D1201D30
:104A0000FFF704FEE06A2969884200D9286100EBBB
:104A1000800006EB8000211DBDE87040FFF746BE18
:104A200070BD0000540000204406002030B587B05F
:104A30000024039405AA04A903A80494FFF7FAFD2F
:104A4000DDE903010094CDE90110002315A1174809
:104A5000059A00F093FD164D0028E8621FD000F083
:104A60004DFF012809D0401C19D1502080F3118836
:104A7000BFF34F8FBFF36F8FFEE7502080F3118895
:104A8000BFF34F8FBFF36F8F4FF0FF30A86201204D
:104A90006861EC6007B0BDE8304000F045B807B091
:104AA00030BD000049444C4500000000D13F0008E3
:104AB000540000200248016B491C0163704700004C
:104AC00054000020164810B5016B11B10121C161DD
:104AD00010BD0021C1610169124A01E0B9B1491E4E
:104AE00001EB810352F82330002BF7D001EB810357
:104AF00002EB830202F1080453685B685360A3422F
:104B000001D15B685360DA680260016110BD50201A
:104B100080F31188BFF34F8FBFF36F8FFEE7000064
:104B200054000020440600201CB537480168374A6D
:104B3000914207D1502080F31188BFF34F8FBFF30C
:104B40006F8FFEE700683149491E884207D1502027
:104B500080F31188BFF34F8FBFF36F8FFEE72C49AF
:104B600008780190FF20087008788DF800009DF803
:104B700000009DF8002000F0F000904207D0502087
:104B800080F31188BFF34F8FBFF36F8FFEE79DF85F
:104B90000000204C00F0500020700720A06005E0CD
:104BA0009DF8002052008DF80020401E9DF8002046
:104BB0001206F5D4A060032807D0502080F3118896
:104BC000BFF34F8FBFF36F8FFEE74FF44070A060CD
:104BD000019808700C482030016841F470010160B0
:104BE000016841F070410160FFF7D2FD0020606074
:104BF000FBF748FB0848016841F040410160FBF7C2
:104C00002DFB00201CBD000000ED00E071C20F4133
:104C100000E400E0C800002034EF00E010B55020B0
:104C200080F31188BFF34F8FBFF36F8F00F0ECFC60
:104C300018B104494FF080500860002080F31188BB
:104C400010BD000004ED00E010B50C4648B18442F0
:104C50000FD9502080F31188BFF34F8FBFF36F8FB0
:104C6000FEE7502080F31188BFF34F8FBFF36F8FA3
:104C7000FEE70222002100F03CF8002800D0846307
:104C800010BD38B50C4648B184420FD9502080F38E
:104C90001188BFF34F8FBFF36F8FFEE7502080F373
:104CA0001188BFF34F8FBFF36F8FFEE702211346CA
:104CB00000220091114600F03DF8002800D08463E6
:104CC00038BD10B502460021012000F012F804465C
:104CD000FFF7AEF9204610BD38B50B460022009014
:104CE0001146012000F026F80446FFF7A1F92046FE
:104CF00038BDF8B517460E46050013D005FB06F083
:104D00005030FFF7F3FB04000AD0002084F846007F
:104D100004F150023B46314628460094FFF794F9CF
:104D20002046F8BD502080F31188BFF34F8FBFF3AA
:104D30006F8FFEE738B5049D18B153B1CAB181B188
:104D400020E0502080F31188BFF34F8FBFF36F8FA7
:104D5000FEE7502080F31188BFF34F8FBFF36F8FB2
:104D6000FEE7502080F31188BFF34F8FBFF36F8FA2
:104D7000FEE739B1502080F31188BFF34F8FBFF3A6
:104D80006F8FFEE750241C46012384F846302B46E3
:104D90000094FFF759F9204638BD000070B50D4664
:104DA000040025D0FFF78EFCD4E90F20216802FB18
:104DB0000011A1600021A163216861600A46D4E965
:104DC0000F01401E00FB0121E16021464FF0FF3042
:104DD00001F8440F487004F110008DB1FFF740FC5A
:104DE00004F12400FFF73CFCFFF78CFC012070BDB0
:104DF000502080F31188BFF34F8FBFF36F8FFEE712
:104E000021690029F0D000F0DFFC0028ECD0044933
:104E10004FF080500860BFF34F8FBFF36F8FE3E711
:104E200004ED00E02DE9FF4782B01D468A464FF0B1
:104E30000008040003D0BAF1000F08D011E05020A0
:104E400080F31188BFF34F8FBFF36F8FFEE7206CA5
:104E500038B1502080F31188BFF34F8FBFF36F8FAD
:104E6000FEE7022D0AD1E06B012807D0502080F325
:104E70001188BFF34F8FBFF36F8FFEE700F0B0FBD9
:104E80003F4F4FF000094FF0805648B9049838B1B1
:104E9000502080F31188BFF34F8FBFF36F8FFEE771
:104EA000FFF710FCA06BE16B884207D3022D05D001
:104EB0000498D0B1B8F1000F1AD01EE02A4651462E
:104EC0002046FFF70EF8616A19B104F1240000F0E2
:104ED0007BFC20B13E60BFF34F8FBFF36F8FFFF7B6
:104EE00011FC012006B0BDE8F087FFF70BFC22E0C3
:104EF0006846FFF711FD4FF00108FFF703FCFFF7CD
:104F0000D9FDFFF7DFFB94F94400401C01D184F880
:104F1000449094F94500401C01D184F84590FFF776
:104F2000F1FB04A9684600F0BFFA30B12046FFF754
:104F3000A7FA00F081FC0020D4E7FFF7C3FBA06BC9
:104F4000E16B884213D1FFF7DDFB04F110000499F7
:104F5000FFF7F0FC2046FFF793FA00F06DFC002805
:104F60009ED13E60BFF34F8FBFF36F8F98E7FFF77F
:104F7000C9FB2046FFF784FA00F05EFC90E70000D2
:104F800004ED00E02DE9F0471F46904689460400F5
:104F900003D0B9F1000F08D011E0502080F3118840
:104FA000BFF34F8FBFF36F8FFEE7206C38B15020F7
:104FB00080F31188BFF34F8FBFF36F8FFEE7022F8F
:104FC0000AD1E06B012807D0502080F31188BFF38D
:104FD0004F8FBFF36F8FFEE7FFF7ECFB5020EFF32F
:104FE000118680F31188BFF34F8FBFF36F8FA06BD3
:104FF000E16B884206D3022F04D0002086F311888B
:10500000BDE8F08794F94550A06B3A4649462046E2
:10501000FEF767FF681C04D06D1C84F84550012022
:10502000ECE7606A0028FAD004F1240000F0CCFB21
:105030000028F4D0B8F1000FF1D00121C8F8001019
:10504000EDE770B50E46040009D0206C78B1502011
:1050500080F31188BFF34F8FBFF36F8FFEE75020AF
:1050600080F31188BFF34F8FBFF36F8FFEE7206887
:1050700048B9A06838B1502080F31188BFF34F8F32
:10508000BFF36F8FFEE7FFF795FB5020EFF311851D
:1050900080F31188BFF34F8FBFF36F8FA16BE06B6D
:1050A000884218D994F94500491CA163411C04D0D9
:1050B000401C84F8450001200EE0606A0028FAD008
:1050C00004F1240000F080FB0028F4D0002EF2D080
:1050D00001203060EFE7002085F3118870BD10B526
:1050E000040009D000F076FAA168884214D1E06883
:1050F000401EE06008D00DE0502080F31188BFF31F
:105100004F8FBFF36F8FFEE700231A4619462046E4
:10511000FFF788FE012010BD002010BD2DE9F747E4
:10512000002683B08A46040003D0BAF1000F08D0ED
:1051300011E0502080F31188BFF34F8FBFF36F8FC2
:10514000FEE7206C38B1502080F31188BFF34F8FF9
:10515000BFF36F8FFEE700F043FADFF8F4804FF003
:1051600000094FF0805748B9059838B1502080F3B6
:105170001188BFF34F8FBFF36F8FFEE7FFF7A2FADF
:10518000A56BC5B151462046FEF798FE6D1EA5637E
:10519000206950B104F1100000F016FB28B1C8F8E6
:1051A0000070BFF34F8FBFF36F8FFFF7ABFA012093
:1051B00006B0BDE8F087059808B11EB106E0FFF71C
:1051C000A1FA27E06846FFF7A7FB0126FFF79AFA46
:1051D000FFF770FCFFF776FA94F94400401C01D108
:1051E00084F8449094F94500401C01D184F845901E
:1051F000FFF788FA05A9684600F056F9002820460E
:105200000AD0FFF73DF900F017FB2046FEF7CCFF70
:105210000028B3D00020CBE7FEF7C6FF90B104F121
:1052200024000599FFF786FB2046FFF729F900F0D7
:1052300003FB0028A2D1C8F80070BFF34F8FBFF363
:105240006F8F9BE72046FFF71BF900F0F5FA95E713
:1052500004ED00E02DE9F04790468946040003D0B4
:10526000B9F1000F08D011E0502080F31188BFF38E
:105270004F8FBFF36F8FFEE7206C38B1502080F363
:105280001188BFF34F8FBFF36F8FFEE7FFF792FADE
:105290005020EFF3118680F31188BFF34F8FBFF3D7
:1052A0006F8FA76BF7B194F9445049462046FEF73B
:1052B00005FE7F1EA763681C04D06D1C84F8445053
:1052C000012010E020690028FAD004F1100000F05D
:1052D0007BFA0028F4D0B8F1000FF1D00121C8F812
:1052E0000010EDE7002086F31188BDE8F08700008C
:1052F0002DE9F343002683B00400354609D0206C25
:1053000078B1502080F31188BFF34F8FBFF36F8FB8
:10531000FEE7502080F31188BFF34F8FBFF36F8FEC
:10532000FEE700F05DF9DFF83C814FF000094FF037
:10533000805748B9049838B1502080F31188BFF3E2
:105340004F8FBFF36F8FFEE7FFF7BCF9A06BC8B1BB
:10535000401EA063206810B9FFF736F9A0602069ED
:1053600050B104F1100000F02FFA28B1C8F8007015
:10537000BFF34F8FBFF36F8FFFF7C4F9012005B064
:10538000BDE8F083049808B166B10FE03DB150204C
:1053900080F31188BFF34F8FBFF36F8FFEE7FFF7E6
:1053A000B1F95DE06846FFF7B7FA0126FFF7AAF901
:1053B000FFF780FBFFF786F994F94400401C01D108
:1053C00084F8449094F94500401C01D184F845903C
:1053D000FFF798F904A9684600F066F8002820460F
:1053E00012D0FFF74DF800F027FA2046FEF7DCFE5A
:1053F0000028A9D09DB3FFF765F9606A50B3206B10
:105400000068C0F1380126E0FEF7CEFEE0B120686A
:1054100038B9FFF757F9A06800F09AF90546FFF789
:1054200071F904F124000499FFF784FA2046FFF78C
:1054300027F800F001FA002886D1C8F80070BFF301
:105440004F8FBFF36F8F7FE72046FFF719F800F00B
:10545000F3F979E70021A068FFF7A0FA9FE7FFE7DB
:1054600000208CE704ED00E070B50D46040009D083
:1054700000F0B0F8A16888420CD1E068401CE06000
:10548000012070BD502080F31188BFF34F8FBFF310
:105490006F8FFEE729462046FFF72AFF0028F0D04D
:1054A000E168491CE16070BD2DE9F0410C46050042
:1054B00011D0C4B1FFF706F9174BDA686E6820689F
:1054C000911B471C17D02F681B6A9F4219D0964228
:1054D00017D8012410E0502080F31188BFF34F8FBC
:1054E000BFF36F8FFEE7502080F31188BFF34F8F1B
:1054F000BFF36F8FFEE70024FFF704F92046BDE8F5
:10550000F081884205D9401A20602846FFF704FA46
:10551000F1E700202060DCE7540000202DE9FF5F68
:105520008346DDE90E87994616468A469000FEF7C7
:10553000DDFF05001CD05C20FEF7D8FF040014D06E
:105540000020256384F85900CDE90240CDE90087A9
:105550004B46324651465846FEF788FD2046FEF738
:1055600019FC012004B000F006B82846FFF7DEF869
:105570004FF0FF30F6E730BCBDE8C09FF0B585B016
:10558000DDE90B640A9DA6B1DCB15C2700972663B8
:10559000022684F85960002604AFCDE90246CDE921
:1055A0000057FEF763FD2046FEF7F4FB049805B0B4
:1055B000F0BD502080F31188BFF34F8FBFF36F8F82
:1055C000FEE7502080F31188BFF34F8FBFF36F8F3A
:1055D000FEE700000148006870470000540000200A
:1055E0000548416919B1006B18B1002070470120CE
:1055F0007047022070470000540000200148C06836
:1056000070470000540000202DE9F0412E4C002787
:10561000206B28B1A069401CA0613846BDE8F0812C
:10562000E668761CE66013D1606B006838B15020E4
:1056300080F31188BFF34F8FBFF36F8FFEE7606B6E
:10564000A16B6163A063206A401C2062FEF798FE94
:10565000A06ADFF87880864209D3606B0068A0B149
:10566000606BC068C5686868864211D2A062206815
:10567000C06A00EB800158F82100012800D90127F9
:10568000E0690028C9D00127C7E74FF0FF30EDE7F8
:10569000281DFEF7BBFFA86A18B105F11800FEF738
:1056A000B5FFE86A2169884200D9206100EB8001DA
:1056B00008EB8100291DFEF7F9FFE86A2168C96A35
:1056C0008842CAD30127C8E75400002044060020BE
:1056D00070B504004FF0000133D01B4D28688442A0
:1056E00007D0502080F31188BFF34F8FBFF36F8F27
:1056F000FEE7206D38B1401E2065E36CE26A9A42F5
:105700001FD040B11DE0502080F31188BFF34F8FB0
:10571000BFF36F8FFEE7201DFEF778FFE06CE062BD
:10572000C0F13800A061E06A2969884200D9286187
:10573000064900EB800001EB8000211DFEF7B6FF5B
:105740000121084670BD00005400002044060020DE
:1057500070B504004FF000002BD0194DE16A2A68A3
:10576000D26A914226D2A069002804DB2868C06A68
:10577000C0F13800A061134E01EB8101606906EBB6
:105780008101884211D1201DFEF740FF2868C06AC0
:10579000E0622969884200D9286100EB800006EBAD
:1057A0008000211DFEF782FF02E02868C06AE062E7
:1057B000012070BDE16C2A68D26A9142F8D370BDB5
:1057C000540000204406002070B5C068C46854B17D
:1057D00004F118000646FEF719FF144D286B50B16E
:1057E0003146134815E0502080F31188BFF34F8FE6
:1057F000BFF36F8FFEE7201DFEF708FFE06A2969FF
:10580000884200D928610B4900EB800001EB800041
:10581000211DFEF74BFFE06A2968C96A884202D958
:105820000120E86170BD002070BD00005400002020
:10583000CC0A0020440600202DE9F0472C4D00241E
:105840002746286B38B1FEF73DFF286B401E2863C2
:10585000286B40B146E0502080F31188BFF34F8F92
:10586000BFF36F8FFEE7A968224E0120D1B3A6F5E2
:10587000916980463068E0B1F068C46804F11800AE
:10588000FEF7C4FE201DFEF7C1FEE06A29698842CA
:1058900000D9286100EB800109EB8100211DFEF792
:1058A00005FFE06A2968C96A8842E3D3C5F81C800D
:1058B000E0E70CB1FEF764FDAC694CB14FEA0806B5
:1058C000FFF7A2FE00B1EE61641EF9D10020A861CD
:1058D000E86938B10849012738070860BFF34F8FDE
:1058E000BFF36F8FFEF70EFF3846BDE8F08700006C
:1058F00054000020CC0A002004ED00E010B586B072
:10590000FEF7B0FA114C2068B8B100200390049063
:1059100005AA04A903A8FEF797FEDDE903210220EA
:105920008DE8070000230AA10B48059AFFF726FE21
:10593000606010B106B0012010BD502080F31188C6
:10594000BFF34F8FBFF36F8FFEE700009000002082
:10595000546D7220537663005D4400082DE9FF41C9
:105960001E46134602000A9D4FF0000016D0144C4C
:105970002768002F0FD0CDE900130292062917DA0D
:10598000FFF72EFE02284FF000030FD000226946D9
:105990002068FFF747FA04B0BDE8F081502080F39B
:1059A0001188BFF34F8FBFF36F8FFEE72A46EEE7F4
:1059B0000023324669463846FFF7E4FAEBE7000079
:1059C000900000204FF04070E1EE100A7047000098
:1059D00068656C6C6F0030333632373436002443E0
:1059E000434943522C302C30302A36380D0A0024DB
:1059F0004343524D4F2C5458522C322C312A3231C1
:105A00000D0A0000EC5B0008000000000000000030
:105A1000000000000000000000040000180000006A
:105A20000000000000000000E45B0008000000002F
:105A30000000000000000000000000000004000062
:105A4000180000000000000000000000D85B000803
:105A50000000000000000000000000000000000046
:105A6000000400001800000000000000000000001A
:105A7000D05B0008000000000000000000000000F3
:105A80000000000000000000C45B000800000000EF
:105A90000000000000000000000000000000000006
:105AA000845B00080000000000000000000000000F
:105AB000945B0008000000000000000000000000EF
:105AC000A45B0008000000000000000000000000CF
:105AD000B45B0008000000000000000000000000AF
