:020000040800F2
:100000008861002051030008B77900083D76000898
:10001000B5790008F5560008558500080000000075
:100020000000000000000000000000007102000855
:10003000F756000800000000CD0200086D7D0008A2
:100040006B0300086B0300086B0300086B030008D8
:100050006B0300086B0300086B030008F9560008E7
:10006000FF5600086B0300086B0300086B030008D1
:100070006B0300086B0300086B0300086B030008A8
:100080006B0300086B0300086B0300086B03000898
:100090006B0300086B0300086B0300086B03000888
:1000A0006B0300080D7E00086B0300086B0300085B
:1000B0006B03000800000000000000006B03000854
:1000C0006B0300086B0300086B0300086B03000858
:1000D0006B0300083D8500086B0300084985000894
:1000E0006B0300086B030008000000000000000024
:1000F0000000000000000000000000000000000000
:10010000000000006B030008000000006B03000803
:1001100000000000000000006B030008197E0008CA
:100120006B0300086B0300086B0300086B030008F7
:100130006B03000800000000000000000000000049
:100140006B0300086B0300086B030008000000004D
:100150006B0300086B030008997600086B03000826
:100160006B0300086B0300086B030008000000002D
:100170006B0300086B030008000000000000000093
:100180006B0300086B0300086B03000800F002F823
:1001900000F05EF80AA090E8000C82448344AAF1C3
:1001A0000107DA4501D100F053F8AFF2090EBAE8C1
:1001B0000F0013F0010F18BFFB1A43F0010318479B
:1001C000C4D20000E4D20000103A24BF78C878C13D
:1001D000FAD8520724BF30C830C144BF04680C604D
:1001E000704700000023002400250026103A28BF95
:1001F00078C1FBD8520728BF30C148BF0B60704799
:1002000066290CF05486642900F0A681752900F057
:10021000A381782900F0DC81632901F076807329BD
:1002200001F07B80002070471FB50CF033FE01F019
:1002300097FB0400002000210BF0B8FF401C606019
:10024000002000210BF0C8FFE0601FBD10B510BDFD
:1002500001F048FE1146FFF7E7FF09F013FF02F037
:1002600098F803B4FFF7F2FF03BC02F0AFF8000008
:100270002C4B1968086800F05AB880F30988BFF35E
:100280006F8F4FF0000080F311887047000000006E
:1002900008480068006880F308884FF0000080F389
:1002A000148862B661B6BFF34F8FBFF36F8F00DF64
:1002B00000BF00BF08ED00E0DFF80C00016841F46A
:1002C00070010160704700BF88ED00E0EFF3098026
:1002D000BFF36F8F134B1A681EF0100F08BF20ED8D
:1002E000108A20E9F04F106009B44FF0500080F3FD
:1002F0001188BFF34F8FBFF36F8F0AF0D7FF4FF016
:10030000000080F3118809BC1968086800F014B86F
:100310001EF0100F08BF00F014B880F30988BFF377
:100320006F8F7047A4000020EFF30580704730C83E
:10033000B0E8C04FFFF7A1BF30C8B0E8C04FFFF72B
:10034000E7BFB0EC088AB0EC08CAFFF7E6BF0000D0
:100350000948804709480047FEE7FEE7FEE7FEE759
:10036000FEE7FEE7FEE7FEE7FEE7FEE70448054995
:10037000054A064B70470000FD7D00088D0100080E
:10038000885B002088610020885D0020885D002057
:1003900053EA020C00F069802DE9F04B4FF00006A3
:1003A000002B1FBFB3FA83F503FA05F424FA05F610
:1003B0005E4012BF1643B2FA82F502FA05F4C5F1A7
:1003C00020051EBF22FA05FC44EA0C04203556EA3B
:1003D000044C4FEA144418BF641C4FF000084FF05F
:1003E0000009904271EB030C39D3002919BFB1FA0F
:1003F00081F701FA07F6B0FA80F700FA07F6C7F1BD
:1004000020071EBF20FA07FC46EA0C062037B6FB81
:10041000F4FCA7EB0507103F07F01F0BCBF12006FC
:100420000CFA0BFB2CFA06F644BFB3460026202F2D
:10043000A4BF5E464FF0000B5BEA060C08BF4FF00E
:10044000010B19EB0B09ABFB027C48EB0608C01B48
:1004500006FB02CC0BFB03CC71EB0C01C1E70B4696
:10046000024641464846BDE8F08B13B54FF0000008
:100470004FF00001AFF30080BDE81C407047000062
:100480000FB47CB50C0009AA009001D02044401E96
:10049000084B7B4469460190089800F00CFF054624
:1004A0001CB10020694600F019FF28467CBC5DF8AD
:1004B00014FB0000510E000070B504468569006809
:1004C000C10601D5302600E02026C00707D070BD48
:1004D000D4E9012130469047206A401C20626D1EFD
:1004E000F6D570BD70B5044685690078C00707D1A0
:1004F00070BDD4E9012120209047206A401C206271
:100500006D1EF6D570BD70B50C460546012A05D0A6
:100510002878800600D5EA69002302E0012305E07F
:100520005B1C934202D2E05C0028F9D1A869E6186E
:10053000C01AA861286A184428622846FFF7BCFF41
:1005400004E0D5E9012114F8010B9047B442F8D337
:100550002846FFF7C7FF70BD2DE9F041064600248D
:1005600010687529314616A510D0AFF30080002819
:1005700002DA404213A507E031688A0701D512A5C7
:1005800002E0490704D511A5012401E0AFF3008082
:1005900000210A2206F1240709E0B0FBF2FCB0FBBF
:1005A000F2F302FB1C00303078541846491C002836
:1005B000F3D123462A463046BDE8F04100F00BBC9B
:1005C000000000002D0000002B00000020000000B3
:1005D00070B504460D4621461068AFF300802188AF
:1005E000090502D50F4A7A4402E00E4A7A440E32D7
:1005F000002104F1240305E000F00F060009965DD8
:100600005E54491C0028F7D120780023000704D548
:10061000702D02D009B1022311322046BDE870408E
:1006200000F0D9BB5ACB00002DE9F05F89460446A3
:100630004FF0000ADFF874B1FB44C0F820A0204658
:10064000E1688847002874D0252806D0D4E9012124
:100650009047206A401C2062F1E700265F46204652
:10066000E16888472028054607DB312D05D2781937
:1006700010F8200C08B10643F1E7B00701D526F0C9
:100680000406C4F81CA00027C4F818A02A2D09D01D
:10069000284609F028F838B304EB8708303DC8F83D
:1006A000185019E059F8041B204604EB87029161A9
:1006B000E1688847012F054618D1E069002820DA53
:1006C00026F020061DE0D8F8180000EB800005EBAE
:1006D00040003038C8F818002046E16888470546D1
:1006E00009F001F80028EED1012F0AD02E2D08D1F3
:1006F0002046E16888477F1C0546022F46F0200609
:10070000C4DBA069002803DA404246F00106A0617C
:10071000F00701D026F010066C2D0BD0682D09D003
:100720004C2D39D06A2D35D0742D35D07A2D33D05B
:1007300016E038E0E1682F4620468847B842054673
:1007400009D16C2F26D04FF48060E1680643204623
:100750008847054604E06C2F1AD04FF4807006439A
:100760000DB3A5F14100192802D8203546F40066E2
:100770004A462946204626604E46FFF741FD80B195
:1007800001280BD0F61D26F0070000F1080956E7F6
:100790004020E4E78020D8E70020D6E706F10409EE
:1007A0004DE7284652E7206A00F002B830CB00003F
:1007B00030BCBDE8C09F00000FB400B58DB010A9DB
:1007C000099000910B904FF0FF300A9000200C90A0
:1007D000064878440690064878446A4607900F9980
:1007E00009A801F037F80DB05DF814FB9F10000068
:1007F000B71000002DE9FF5F1D464FF0FF3B91460B
:100800004FF000085F46D5E90146A96901987F1CB1
:100810008847296A824688470028F6D1BAF1FF3F07
:100820000CD0002E24F4C06419DD600614D5BAF192
:100830002B0F09D0BAF12D0F0ED103E0584604B0AA
:1008400000F07EB844F48064A96901987F1C884751
:10085000761E8246002E02DDBAF1300F03D0B9F1C8
:10086000000F26D032E0A969761E01987F1C44F45F
:1008700000748847002E824605DDBAF1780F06D055
:10088000BAF1580F03D0B9F1000F10D01EE0B9F142
:10089000000F02D0B9F1100F18D1A969761E019886
:1008A0007F1C24F4007488478246102002E0082050
:1008B00000E00A20814609E0A96908FB0908761EC4
:1008C00001987F1C44F4007488478246002E05DDA1
:1008D0004946504600F025FD0028EDDAE969019807
:1008E0008847A00502D46FF00100A8E7E00725D1F2
:1008F000600613D5600502D5C8F1000000E040464F
:1009000029680A1D2A600968220501D5087015E0CA
:10091000220701D5088011E008600FE02868011D5A
:1009200029600068210502D580F8008006E02107D3
:1009300002D5A0F8008001E0C0F8008038467EE7CC
:1009400030BCBDE8C09F2DE9F04791460F46804678
:100950000446002614F8015B2DB100F025FA00686A
:10096000405DC007F6D12B2D02D02D2D18D0641E6E
:100970004A463946204600F09DFF27B13968A1421A
:1009800001D1C7F800804FF0020471050BD5404239
:10099000002803DD00F010FA0460A007BDE8F0872E
:1009A00046F48066E4E70028F8DA00F005FA04600F
:1009B0006FF00040F2E72DE9F05F93460F46804666
:1009C0000446002600F0F8F9D0F80090824614F8AA
:1009D000015B2DB100F0E8F90068405DC007F6D179
:1009E0002B2D02D02D2D1AD0641E0021CAF8001024
:1009F0005A463946204600F05DFF014627B1386867
:100A0000A04201D1C7F80080DAF80000022809D01E
:100A1000CAF80090700505D5484200F005B846F4C4
:100A20008066E2E70846F8E730BCBDE8C09F401E9C
:100A3000CAB210F8011F8A4202D00029F9D1002061
:100A4000704730B505460B462A4613F8014B12F89D
:100A5000010B08B1A042F8D01CB1002802D06D1CD7
:100A6000F1E7284630BD10B5431C02E010F8011B29
:100A700071B18107FAD14FF0013202C88C1A8C4350
:100A800014EAC211F9D0C01A0A0603D0C01E10BD64
:100A9000C01A10BD0A0401D0801E10BD0902FCD08E
:100AA000401E10BD40EA010370B59B072ED14FF0E8
:100AB0000136042A2AD308C810C99D1B9D43121F62
:100AC00015EAC61517D0D8B2E1B2401A50EA05614E
:100AD00010D198B2A1B2401A50EA05410AD123F0D0
:100AE0007F4024F07F41401A50EA052102D1180EC0
:100AF000A0EB146070BDA342DBD018BA21BA8842C3
:100B000001D9012070BD4FF0FF3070BD0AB900203F
:100B100070BD10F8013B11F8014B63B1A3420AD13B
:100B2000521E08D010F8013B11F8014B1BB1A34233
:100B300001D1521EEDD1181B70BD032A40F2308046
:100B400010F0030C00F0158011F8013BBCF1020F0E
:100B5000624498BF11F801CB00F8013B38BF11F88F
:100B6000013BA2F1040298BF00F801CB38BF00F8A6
:100B7000013B11F0030300F02580083AC0F0088023
:100B800051F8043B083A51F804CBA0E80810F5E707
:100B9000121D5CBF51F8043B40F8043BAFF30080EA
:100BA000D20724BF11F8013B11F801CB48BF11F85F
:100BB000012B24BF00F8013B00F801CB48BF00F82F
:100BC000012B704710B5203AC0F00B80B1E81850E7
:100BD000203AA0E81850B1E81850A0E81850BFF427
:100BE000F5AF5FEA027C24BFB1E81850A0E81850C6
:100BF00044BF18C918C0BDE810405FEA827C24BF1A
:100C000051F8043B40F8043B08BF7047D20728BFA7
:100C100031F8023B48BF11F8012B28BF20F8023BF6
:100C200048BF00F8012B704702F0FF0343EA03229C
:100C300042EA024200F002B84FF000020429C0F07C
:100C4000128010F0030C00F01B80CCF1040CBCF1FE
:100C5000020F18BF00F8012BA8BF20F8022BA1EB50
:100C60000C0100F00DB85FEAC17C24BF00F8012B35
:100C700000F8012B48BF00F8012B70474FF000022D
:100C800000B5134694469646203922BFA0E80C5082
:100C9000A0E80C50B1F12001BFF4F7AF090728BF5D
:100CA000A0E80C5048BF0CC05DF804EB890028BFD9
:100CB00040F8042B08BF704748BF20F8022B11F002
:100CC000804F18BF00F8012B704710B5044610F094
:100CD000030F08BF11F0030F40F015804FF0013EE5
:100CE000121FC0F20E8051F8043BA3EB0E0C2CEA4D
:100CF000030C1CEACE1C08BF40F8043BF0D0A1F165
:100D0000040102F10402521E08DB11F8013B002B22
:100D100000F8013BF7D11146FFF78EFF204610BDCA
:100D20004FF0013C50F8042B51F8043B9A4221D17A
:100D3000A2EB0C03934313EACC1317D150F8042B06
:100D400051F8043B9A4215D1A2EB0C03934313EAEA
:100D5000CC130BD150F8042B51F8043B9A4209D123
:100D6000A2EB0C03934313EACC13DBD04FF000004B
:100D7000704700BFD01A01BAB1FA81F101F0180131
:100D800022FA01F0CB40C1F12001DBB2C0B2C01A9F
:100D90002CFA01F3D11A914311EAC311E6D170473D
:100DA000704770477047000010B500F0D9FD001D76
:100DB00010BD00BFF9B3000000487047245B00205D
:100DC00010B5FFF7F9FF006810BD10B50446FFF736
:100DD000F3FF046010BD2DE9F0470D469946924699
:100DE000044600F124080168880604D5E06921F072
:100DF0001001216000E00120A84201DD471B00E056
:100E00000027A1697A1902EB0900081AA06120786D
:100E1000C00602D42046FFF74FFB002608E0D4E9C5
:100E200001211AF806009047206A401C761C2062B7
:100E30004E45F4DB2078C0060AD52046FFF73CFB80
:100E400006E0D4E9012130209047206A401C20624E
:100E5000381EA7F10107F4DC07E0D4E9012118F8F6
:100E600005009047206A401C2062281EA5F101055C
:100E7000F3DC2046FFF736FB2078000602D502207F
:100E8000BDE8F0870120FBE770472DE9FF4F0C46D6
:100E90001E464FF0FF378BB0D2E90001DDF86080CD
:100EA0000A908A46C1F30A5505B93D460021084615
:100EB0004FF00000BAF1000F00F4400005DA00EB3B
:100EC00080004FF4400101EA50004FEA9059B9F117
:100ED000010F00DDB9460A9850EA4A000ED044F6E8
:100EE0001050A5F2FF3545432F14B8F1000F1ED066
:100EF0007542291E1EDDC9F100021CE0B8F1010F88
:100F00004FF0000001D0302103E0F24305E021540E
:100F1000401CB042FBDB30460022002121540B99DB
:100F2000C1F80880C1E900200FB000F0BCB9BD1BBA
:100F30006D1CDEE74A4600DA694206A800F060FF51
:100F400006AB93E8070003AB83E8070050460A9915
:100F500001F043FA8DE80700A0F500501F3800901B
:100F60000398002D0ADD42F21F014A46084400237F
:100F700003A90390684601F0EFFC09E0A0F50050DA
:100F80004A461F38002303A90390684601F00EFD6E
:100F90008DE807000004000C03D04FF0FF3041083B
:100FA00000E01046B8F1000F03D000220092154671
:100FB0001EE0751E05D400F0D7FC303262556D1E60
:100FC000F9D5B3460122084302D000227F1C04E079
:100FD0002078302801D100227F1E002A099784D072
:100FE0001DE0112D07DA00F0BFFC303262556D1C98
:100FF00050EA0102F5D1084302D00098C8B10EE0D2
:101000000021681E05E0235C625C63542254401E8C
:10101000491C8142F7DBAB46A81B401E099000200B
:1010200004F80B000B98099AC0F80880C0E9002B5F
:101030007AE711264FF0000857E72DE9F04F884670
:101040000446D21D22F0070191B0D1E90001CDE99B
:101050000A0107F080FA02460B98C00F01D02D203C
:1010600007E02068810701D52B2002E0202101EA5A
:10107000C000032A099001D0072A05DB0346414638
:10108000204600F0BFFC0BE12078800601D5E06926
:1010900000E00620B8F1650F814606D0B8F1660F72
:1010A00018D0B8F1670F70D131E00020B9F1110FFD
:1010B000009001DB112301E009F101030AAA01A953
:1010C0000CA8FFF7E2FEDDE90C70002609F101052E
:1010D000834647E001204B4600904FF000470AAAA4
:1010E00001A90CA8FFF7D1FEDDE90DB00C995D4612
:1010F000002610B909F101000D18B9EB050003D461
:10110000C0F1FF3609F10105A5EB09002BE0B9F1AB
:10111000010F01DA4FF001090020B9F1110F009021
:10112000484601DD112300E003460AAA01A90CA8E4
:10113000FFF7ABFEDDE90C704D46002683462078B4
:1011400000070AD4AB4500DA5D4601A8012D04DD95
:10115000411911F8011C302907D04F4502DA17F167
:10116000040F04DA012082460FE06D1EEEE7002F27
:1011700002DCED1B3E4403E0781CA84200DD7D1C30
:10118000B81B00F1010A4FF000472078000703D494
:10119000AA4501DB4FF0FF3A0021B7F1004F0DF1F6
:1011A00043088DF8431024D002202B23002F01DAAE
:1011B0007F422D230A21021EA0F1010000DC5FB155
:1011C00097FBF1FC97FBF1F201FB1C7C17460CF13D
:1011D000300C08F801CDEEE7A8F10100037021887A
:1011E000090501D5452100E06521A0F1010800F8BD
:1011F000011C09980FA9A1EB0807FF1D00B10120F0
:10120000411901EBEA70A1693844081A401EA06137
:101210002078C00602D42046FFF74EF9099828B17D
:10122000D4E901219047206A401C20622078C00642
:1012300022D52046FFF740F91EE0002E04DBB3451F
:1012400002DD01A8805D00E03020D4E90121904753
:10125000206A401C2062761CAAF101005FEA000AA5
:101260000AD100F07DFBC0680168405CD4E901212F
:101270009047206A401C2062281EA5F10105DCDC95
:1012800007E0D4E9012118F8010B9047206A401CBF
:101290002062381EA7F10107F3DC2046FFF722F990
:1012A000032011B041E630BCBDE8C08F01694A1C83
:1012B00002610878704700B58FB0CDE90131002197
:1012C000059105497944CDE9031011466846FFF7B9
:1012D000ABF90FB000BD0000E5FFFFFF0A6802F8A0
:1012E000010B0A607047D1E900239A4202D2531CD5
:1012F0000B601070704710B5436913B1AFF30080F5
:1013000001E0FFF700F9012010BD127800F124017F
:101310000A7000224A700122EDE711684FF0FF3297
:10132000E9E73A2800D2303820F02002412A01D3E0
:10133000A2F13700884201D34FF0FF307047000020
:101340002DE9FF4F06468BB00878FF2806D0491CD0
:101350002D2805D000244FF0000908E000200CE003
:101360000124F8E709EB8903491C00EB43090878DD
:10137000FF28F7D114B1C9F100008146107800258B
:101380002C46AA4629462D2801D02B2804D1521CD0
:101390002D2813D0002082468B461078FF280FD0CE
:1013A0004FF0000C0A21521CA5FB017804FB0181BF
:1013B00005FB0C11C5194BEB0104EEE70120EAE730
:1013C000002108464FF00000BAF1000F02D000EBF8
:1013D00080004008C0F38157012F01DD4FF0FF3737
:1013E0000E9955EA040009EB01080BD04FF00209F1
:1013F00018F5FA7F16DA4FEACA70002F706008DD20
:10140000012007E04FEACA70C6E900B00FB000F053
:1014100013BA00203060FFF7CFFCC0F8009018210D
:10142000084616E0B8F5FA7F18DD002F02DAF74813
:10143000784401E0F6487844D0E90010C6E900108D
:1014400040EACA707060FFF7B7FCC0F80090142142
:1014500008460FB000F0F3B90BF026BD0021084696
:101460004FF00000B8F10001099002DAC7F1000264
:1014700000E03A4601DAC8F1000106A800F0C0FC1D
:1014800006AB93E8070003AB83E8070044F23E0095
:101490005BEA04010090584604D144F21E012C4638
:1014A0005D460091210C0904014306D100992404F2
:1014B00044EA15442D041039009104F07F410143A2
:1014C00006D10099240244EA15642D0208390091DE
:1014D00004F07041014306D10099240144EA1574D7
:1014E0002D01091F009104F04041014306D10099EC
:1014F000A40044EA9574AD00891E009104F00041F7
:10150000084304D100986D196441401E00904FF0CB
:1015100001033A466846B8F1000FCDE9014503A939
:1015200002DD01F058FA01E001F02BFABAF1000FE8
:1015300004460D4601D084F00044002108464FF0D7
:101540000000099940F2FF77484010F00C0F07D1D6
:1015500024F00040284303D0C4F30A50B84212D10B
:10156000FFF72AFCC0F80090C4F30A50B8420AD131
:10157000A8487844D0E90010C6E9001004F0004102
:101580000843706042E7C6E900543FE72DE9FF4F8A
:101590001F464FF0000A4FF0FF38454691B0D7E99B
:1015A0000146CDF83CA000F0DBF9C0680168405C62
:1015B0001090B96912986D1C8847396A814688472E
:1015C0000028F6D1B9F1FF3F0AD0002E24F4D064F0
:1015D00011DDB9F12B0F08D0B9F12D0F0BD102E0BD
:1015E000404615B013E744F48064B96912986D1C45
:1015F0008847761E8146600504A901D52D2000E0AC
:101600002B20002E01F1010B0DF130088DF8100098
:101610003FDDB9F1690F08D0B9F1490F05D0B9F133
:101620006E0F02D0B9F14E0F1CD13B4601A80095B8
:1016300080E85002DDE912126FF002000BF09DFC11
:10164000C11CCED10EE0B96912986D1C8847814645
:101650001398761E44F4007405600F98401C002E09
:101660000F9016DDB9F1300FEDD0B9F1780F02D03F
:10167000B9F1580F0DD10F9801280AD13B46CDE999
:101680000054DDE91212001F02960BF074FCC11C1D
:10169000A7D1109989453ED144F0800406E0139902
:1016A000681CAAF1010A44F400740860B9696D1C51
:1016B0001298761E884730288146F0D02BE010998A
:1016C000894505D1200603D4761E44F0800418E035
:1016D000484608F008F808B3761E0DF123018B4543
:1016E00044F4007408D2A9F130000BF8010B200675
:1016F00007D5AAF1010003E0200602D40AF1010097
:101700008246A00502D51399681C0860B969129831
:101710006D1C88478146002ED1DC53E0002E51DD40
:10172000B9F1650F02D0B9F1450F4BD1A00549D5EC
:10173000B9696D1C1298761E24F440748847002EF7
:1017400081460CDD2B2804D0B9F12D0F07D144F4CC
:101750008074B96912986D1C8847761E8146E00531
:1017600001D52D2100E02B2108F8011BCDF80080C8
:1017700021E0761E0DF13901884544F400740CD245
:10178000A9F1300010F0FF0088F8000002D10099A4
:10179000884509D908F1010806E0E00501D51E4891
:1017A00001E042F20F708246B96912986D1C8847B9
:1017B000814613980560002E04DD484607F093FF2C
:1017C0000028D6D1F96912988847FF2053468BF834
:1017D000000088F8000000200A900B9004AA0CA9D1
:1017E0000AA8FFF7ADFDA00502D46FF00100F8E6EE
:1017F00014F0240F12D0E0071CD13868DDE90A127A
:10180000031D3B600068C0E9001213E078C00000CF
:101810006AC000002EBF0000F1D8FFFF0AA9684689
:1018200007F04EFFE00705D13868009A011D3960C6
:10183000006802602846D4E630BCBDE8C08F30BCEA
:10184000BDE8C04FFFF708BE02681144137801607D
:1018500018467047D160054979445161044979447B
:10186000116200211161114600F00CB9EDFFFFFF7C
:1018700091010000426842B1016811F8013B23B1B7
:10188000521EC0E90012184670470121C160881E2F
:10189000704742685AB1C368016843B983688B4294
:1018A00005D0491E521CC0E90012002070474FF0BD
:1018B000FF3070472DE9F05F824615468B460027C2
:1018C0000AF10104B9460078302801D09DB113E037
:1018D00014F8010B0127782803D0582801D045B10E
:1018E0000AE00DB1102D07D1002714F8010B1025C7
:1018F00002E0082500E00A250026B0460EE005FBC0
:10190000080005FB06F101271FFA80F801EB1046DD
:10191000B6F5803F00D3B94614F8010B2946FFF70E
:1019200000FD0028EBDABBF1000F05D00FB1641EFB
:1019300000E05446CBF80040B9F1000F06D0FFF7A5
:101940003BFA02210160C81E00F003B848EA0640D5
:10195000FAE730BCBDE8C09F00487047245B002018
:1019600000487047445B002030B5B0F10A024FEAEE
:10197000900E71F100034EEA817EB0EB0E0061EB38
:1019800091014FEA101E4EEA017E10EB0E0041EB72
:1019900011114FEA102E4EEA016E10EB0E0041EBD2
:1019A00011214FEA104E4EEA014E10EB0E0041EBB2
:1019B0001141401841F100014FEAD00040EA417066
:1019C0004FEAD10110EB80054FEA810444EA90749C
:1019D00044EB01046D1944EB0404521BA3414FF086
:1019E000000348BF0A3200D530BD401C41F1000160
:1019F00030BD10B50446FFF7D7F90068005D00F070
:101A0000010010BD2DE9F0411F4604460326016880
:101A1000072A01F4006004DB08B116A505E016A54D
:101A200003E008B115A500E015A521F01000206025
:101A3000A069C01EA0610FB1401EA0612046FEF744
:101A40003BFD4FB1D4E9012138469047206A401C44
:101A50002062C01C206206E0206AFAE7D4E9012176
:101A600015F8010B9047761EF8D22046FEF73AFD96
:101A7000BDE8F0814E414E006E616E00494E460059
:101A8000696E66002DE9F34F4FF0000A0C4656468A
:101A90008DB001200C9001F10C000B9062690B9845
:101AA00001219047051E2DD0252D2CD0216A884775
:101AB000C0B162690B9801219047216A88470028CC
:101AC000F7D16269411E0B98904700E0761CA1692E
:101AD0000D988847216A88470028F7D1E1690D9859
:101AE0008847DBE7A1690D988847A842074601D1DE
:101AF000761CD3E7E1690D9888477F1C02D1BAF1C3
:101B0000000F6FD06BE162690B9800273D463946A4
:101B100090472A2804D162690B980121904701253A
:101B2000DFF8D08262690B9801219047A0F1300163
:101B30000A290AD24745E5DC07EB870100EB41079C
:101B4000303FDFD445F01005ECE7E90601D46FF033
:101B500000476C280AD04C2814D0682815D06A2871
:101B60000DD074281CD07A281AD01DE062690B9819
:101B7000012190476C2802D045F0040514E045F09F
:101B800002050DE045F020050AE062690B9801218D
:101B90009047682802D045F0080505E045F4006547
:101BA00062690B9801219047C4E9015765283DD02F
:101BB00019DC58287AD00CDC452837D004DC2528DD
:101BC00026D041289ED131E046282FD0472899D1F0
:101BD0002CE05B2877D0612828D063287CD064284B
:101BE00023D15AE0F6E06F2848D008DC66281DD0E3
:101BF00067281BD0692821D06E2816D127E07028CD
:101C000045D0732868D0752847D078280DD14DE08D
:101C1000A1690D988847252805463FF469AFE16919
:101C20000D9888476D1C3FF46AAFD8E00D992346A4
:101C30006A466FF001000BF09CF9C5E045F04000EA
:101C400023464FF000026060A80736D43EE0E80764
:101C50007FF447AF2068011D21600068290501D588
:101C600006701BE7290701D5068017E7A90703D5EA
:101C7000F117C0E9006111E706600FE745F0400089
:101C800023464FF008026060A80716D41EE040F615
:101C90000E0125EA0100606016E045F04000234691
:101CA0004FF00A026060A80707D40FE045F040003B
:101CB0006060A80708D5234610220D996FF0010037
:101CC000AFF3008080E007E0102223460D996FF00B
:101CD0000100FEF78FFD77E04FF0000963284F46C3
:101CE000C8464B46CB4602D05B2806D038E0E80613
:101CF00001D40120A060012732E06269D4F80CB061
:101D00000B98012190475E2807D14FF00109494601
:101D10006269D4F80CB00B989047216939B9002159
:101D20000A4603AB43F82120491C0829FADBD8B343
:101D3000216949B308F1010862690B9801219047B4
:101D40005D28F4D1B9F1000F09D0002003A951F8A2
:101D50002020D24341F82020401C0828F7DB03ABA9
:101D60002069002820794FEA40701ED05B46224649
:101D7000CDF80080CDE901970D9900286FF00100A2
:101D800020DAAFF300801FE0C11703AA00EBD16196
:101D90004B1121F01F0102EB8302411A136801204D
:101DA000884003431360C7E719E00D9922460028D5
:101DB0006FF00100009702DAAFF3008004E0AFF3A8
:101DC000008001E0AFF3008000280ADA401C06D151
:101DD0000C9820B14FF0FF300FB000F00DB8504616
:101DE000FAE7E90701D10AF1010A064400200C9044
:101DF00054E60000CCCCCC0C30BCBDE8C08F000059
:101E00002DE9F047814616468AB0354878440DC81A
:101E10008DE80D0032487844801C03AC0DC884E87E
:101E20000D0041F69B300844372190FBF1F290FB06
:101E3000F1F5A5F1800501FB12041B3C02D56442BB
:101E4000012000E00020DFF898A080460027FA4437
:101E5000AAF1BE0A0EE0E0070AD03246684607EB58
:101E6000470101230AEB810100F0A0FD8DE8070086
:101E700064107F1C002CEED1194F7F44AE3F19E057
:101E8000E80715D007EB04100DF1180A90E80E00D2
:101E90008AE80E00C068F04201D1981908903246D5
:101EA000012306A903A800F081FD03AB83E8070026
:101EB0006D10641C002DE3D14FF0010332466946DA
:101EC000B8F1000F03A802D000F046FD01E000F0D9
:101ED0006DFDC9E90001C9F808200AB0BDE8F08726
:101EE000ACB500007546FFF737FDAE460500694604
:101EF000534620F00700854618B020B5FEF736FAA5
:101F0000BDE820404FF000064FF000074FF00008FA
:101F10004FF0000B21F00701AC46ACE8C009ACE87B
:101F2000C009ACE8C009ACE8C0098D4670470000A4
:101F30002DE9FF4F1F464FF03C0987B04FF000429C
:101F4000DDE9141001F10108DDF858A002EA405063
:101F50000390002005908346054604460490B96925
:101F6000461E08988847AAF1010A0290BAF1000FAC
:101F70003BDD02982E2815D01021FFF7D2F900285A
:101F80002EDB4FF0010B0599014317D0B9F1000F7B
:101F90000BDB4A46C11700F005FA05430C43A9F1D3
:101FA000040905E0012004900BE008B145F00105AB
:101FB00001200590049820B9361D02E0049800B174
:101FC000361FB969089808F101088847BBF1000F6E
:101FD000AAF1010A0290C9D00999C1F80080C5E7A9
:101FE0000298702808D0502806D0F96908988847C8
:101FF000BBF1000F14D04FE0002002900120BBF194
:10200000000F049009D0B969089808F101088847C1
:10201000AAF10109B9F1000F07DCF96908988847AE
:102020006FF001000BB000F013B92B2804D02D285D
:102030000CD14FF0FF300490B969089808F10108FD
:102040008847A9F10109B9F1000FE6DD411CE4D090
:102050000A21FFF766F90028DFDB029908F1010881
:1020600001EB810100EB41000290B96908988847B3
:102070000A21FFF756F9099AA9F10109B9F1000FF0
:10208000C2F8008001DD0028E7DAF969089888477E
:102090000499029800FB016655EA040004D004F09C
:1020A0004041090002D006E0039898E0A40044EA09
:1020B0009574AD00B61E04F00041080002D16D1900
:1020C0006441761E159810F0240F03D04FF00B09D1
:1020D0005C4803E04FF028096FF07D0082465645CA
:1020E00007DAAAEB06018944B9F1410F01DD4FF08F
:1020F000410901200021A9F1010200F053F9024633
:1021000028400B462140084301D0012100E0002176
:10211000501E029143F1FF3128402140084301D075
:10212000012000E000200299834651EA0B014FD0C4
:10213000002108464FF00000039900F4400039B137
:1021400000EB80004FF4400100EBD07001EA60002A
:102150008015012802DD4FF0FF3000E013D0401C55
:1021600036D0029860B3BBF1000F0CD14A46012073
:10217000002100F017F928402140084301D0012038
:1021800000E00020E0B101204A46002100F00AF9F9
:10219000034640190A4661412D1A8C4111D3B9F109
:1021A000400F09DD159810F0240F02D0AAF1340673
:1021B00003E0AAF1170600E0761C00254FF000446A
:1021C00006E05B1E42F1FF3220EA030521EA020429
:1021D000CAF10100B04206DA1B4903980843019096
:1021E000002000900EE0039AC4F3D321E80A0A43CA
:1021F000164940EA44500A433146CDE90002684698
:1022000007F067FA159810F0240F0BD01598C00747
:1022100015D13868DDE90012031D3B600068C0E994
:1022200000120CE002A8694607F04AFA1598C007A8
:1022300005D13868029A011D396000680260404685
:10224000F0E6000002FCFFFF0000F07F0000F03F1E
:1022500030BCBDE8C08F00002DE9FF4F92461D46FF
:1022600085B04FF00041DDE9124BDDE914727F1EAD
:1022700001EA4B50414940F0FF4940EA0108002182
:1022800022F020004928049102D04E2828D04CE0AA
:102290003BA0012607C88DE80700A9690698641CC1
:1022A00088477F1E014606D41DF8060018B121F0AC
:1022B000200181420BD0E96906988847032E34D06B
:1022C000082E32D06FF0010009B000F05FB8761C24
:1022D000032E01D0082EE0D1601CCAF80000DCE714
:1022E000A9690698641C88477F1E2AD420F0200024
:1022F000412826D1A9690698641C88477F1E20D4EE
:1023000020F020004E281CD1A9690698641C88473B
:102310007F1E48F4002849F48009CAF8004001D41F
:10232000282806D0E969069888475FEACB7012D062
:1023300022E0A9690698641C88477F1E01D4002802
:1023400003DAE96906988847BCE72928F1D1641CBB
:10235000CAF80040E9E71BF0240F07D02868049969
:10236000031D2B600068C0E9001805E02868021D05
:102370002A600068C0F800902046A5E70000F07FC2
:10238000494E46494E4954590000000030BCBDE852
:10239000C08F10B50446AFF300802046BDE8104062
:1023A000FDF75FBFB2F120030AD5C2F1200301FAA5
:1023B00002F120FA03F300FA02F041EA0301704748
:1023C00000FA03F14FF000007047000001491820A7
:1023D000ABBEFEE72600020070475FEA400C08BF74
:1023E00091F0000F4FEA8C234FEAC12243EA51518A
:1023F0004FEA1C5018BF00F5F0404FEA300018BFFC
:1024000041F000415FEA6C5C00F02980BCF1FF3FC5
:1024100008BF40F080407047130C06BF12044FF015
:10242000100C4FF0000C130E04BF12020CF1080C3C
:10243000130F04BF12010CF1040C930F04BF9200A0
:102440000CF1020CD30F04BF52000CF1010C114629
:102450004FF00002A0F11F00A0EB0C00704711F03C
:10246000004F08BF704731F000413FF4D5AF0B0C6F
:1024700006BF09044FF0100C4FF0000C0B0E04BF08
:1024800009020CF1080C0B0F04BF09010CF1040C3C
:102490008B0F04BF89000CF1020CCB0F04BF490065
:1024A0000CF1010CCCF12003A0EB0C0022FA03F399
:1024B00002FA0CF241EA030100F10100704720F03A
:1024C0007F4C80EA030023F07F47ACEB070303F562
:1024D0007C5300F0004003F1FF032DE980494FEAEF
:1024E000154B09B44FEA144325EA0B4E24EA03487E
:1024F0000FF2042606EB132749083E785FEA320202
:1025000003FB0667C7F5000707FB06F64FEA5437DB
:102510004FEAD64606F1020607FB066CCCF1005CDA
:102520004FEA1C472CEA074C07FB06F40CFB06F5A8
:1025300004EB15464FEA961634BF00204FF00040DA
:102540004FEAD13706FB07FC4FEA1C4C0CFB0BF79C
:10255000D21B03FB0CF761EB07010CFB0EF7B0EB92
:10256000074072EB17420CFB08F734BFA2EB07429F
:10257000B2EB074261EB17414FEA0C444FEA910777
:1025800006FB07FC4FEA1C4C0CFB0BF7B0EBC740FB
:1025900072EB573203FB0CF734BFA2EBC742B2EB2E
:1025A000C74261EB57310CFB0EF7B0EBC70072EB83
:1025B00057720CFB08F734BFA2EBC702B2EBC7029D
:1025C00061EB5771039F4FEA816141EA921104EB7D
:1025D000CC044FEAD1374FEA826206FB07FC42EA9D
:1025E00090124FEA80604FEA1C4C0CFB0BF7D21B99
:1025F00003FB0CF761EB07010CFB0EF7B0EB074098
:1026000072EB17420CFB08F734BFA2EB0742B2EBA8
:10261000074261EB17414FEA8C554FEA910704EBF3
:102620009C2406FB07FC4FEA1C4C0CFB0BF7B0EBA1
:10263000C74072EB573203FB0CF734BFA2EBC74223
:10264000B2EBC74261EB57310CFB0EF7B0EBC700A2
:1026500072EB57720CFB08F734BFA2EBC702B2EB68
:10266000C70261EB577115EB4C254FEA816141EAD6
:1026700092114FEA82624FEAD13742EA901206FB8A
:1026800007FC44F100044FEA80604FEA1C4C0CFB4D
:102690000BF7D21B03FB0CF761EB07010CFB0EF7EA
:1026A000B0EB074072EB17420CFB08F734BFA2EB0C
:1026B0000742B2EB074261EB174115EB1C154FEADD
:1026C000813141EA92414FEA823242EA90424FEA36
:1026D00080304FEA0C7644F1000448EA03434EEAA6
:1026E0000B484FF0000EB2EB080C71EB030724BF50
:1026F000624639464EEB0E0E4FF0000B0018524169
:1027000049414BEB0B0BB2EB080C71EB03077BF170
:10271000000B24BF624639464EEB0E0E4FF0000B05
:102720000018524149414BEB0B0BB2EB080C71EB1B
:1027300003077BF1000B24BF624639464EEB0E0EB9
:1027400051EA020718BF46F0010616EB0E7655F166
:10275000000254F1000103D5BDE88901BDE80088FD
:10276000BDE88901BDE80048B619524141EB0101BD
:10277000A3F10103704780807F7E7D7C7B7A79782E
:10278000777676757473727171706F6E6E6D6C6C36
:102790006B6A6A69686867666665646463636261D8
:1027A0006160605F5F5E5E5D5D5C5C5B5B5A5A5959
:1027B00059585857575656555555545453535252C5
:1027C0005251515050504F4F4F4E4E4D4D4D4C4C1D
:1027D0004C4B4B4B4A4A4A49494948484847474766
:1027E00047464646454545444444444343434342A3
:1027F000424242414141000046EA0646A3F5705379
:102800004FEA164646EA42564FEAD22242EA41527F
:1028100010B54FEAD121A3F1010300F02FF820F009
:10282000004000F1020C00F0004701EB005011469F
:10283000BCF5006F40EA070000D210BDBAF1000FEE
:102840000AD01CB503B44FF004004FF004014FF060
:1028500000000FBCBDE810404FF00001BBF1010FBC
:10286000B9BF04484FF0FF310348002140EA070098
:1028700010BD00BFFFFFEF7F0000F07F002B9C46E4
:1028800030D477002BD01CB54FEA370703B44FF094
:1028900010004FF01001BAF1000F06D0BCF1000F8C
:1028A000DCBF40F0080040F008014FF000000FBC12
:1028B000BDE810400BF1010BBBF1010F08BF5FEA4F
:1028C000170722BF12F1010211F101014FF000417F
:1028D00043F1000300F0004043EA00007047F9D3E1
:1028E0005708D0E746EA064613F1400F4FEA16466E
:1028F0001FDD13F1200FDFBF16430A4600212033EE
:102900005B42BED0C3F1200746EA064602FA07F74B
:102910004FEA164646EA0706C3F1200722FA03F2F9
:1029200001FA07F721FA03F14FF0000342EA070228
:10293000A7E746EA020646EA06464FEA164646EA90
:102940000106BCBF46EA0646360C4FF000034FF0C6
:1029500000024FF0000194E72DE9804C9A4693461F
:1029600070B491E8380007C831EA400C48BF34EA37
:10297000430C03D5FFF7A3FDFFF780FFF0BCBDE8D4
:10298000008C2DE9804C9A46934670B491E838004B
:1029900007C831EA400C48BF34EA430C03D5FFF7BF
:1029A0008EFDFFF729FFF0BCBDE8008C2DE9804CBF
:1029B0009A46934670B491E8380007C810F0804FEB
:1029C00008BF13F0804F03D100F01AF8FFF756FF4D
:1029D000F0BCBDE8008C2DE9804C9A46934670B45B
:1029E00091E8380007C810F0804F08BF13F0804FFF
:1029F00003D100F005F8FFF7FFFEF0BCBDE8008C46
:102A000020F07F4780EA030023F07F4C07EB0C03A4
:102A1000A3F57C5300F00040A3F1FE0392F0000FF9
:102A200000F0B38095F0000F00F077802DE90149A8
:102A30004FEA11404FEA144621EA004800FB06FC29
:102A400024EA064708FB06F607FB08F800FB07F731
:102A500018EB06484CEB164C4FEA124B18EB0748A4
:102A60004FEA15464CEB174022EA0B4E0BFB06FCD7
:102A700025EA06470EFB06F607FB0EFE0BFB07F7E3
:102A80001EEB064E4CEB164C4FF000061EEB074EAD
:102A90004CEB174B18EB0B0840F1000018EB0E0B3A
:102AA00058EB000840F100008F1A4FF000013CBFC6
:102AB000C943661B14BFB5EB040C00213CBFC943DE
:102AC000F61B4FEA17444EEA8E0E27EA04454FEAFA
:102AD0001C4704FB07622CEA074C05FB07F70CFBBD
:102AE00005F604FB0CFC16EB074642EB174216EB0F
:102AF0000C4642EB1C421BEB060658EB020241411E
:102B000046EA9E0601D5BDE80189B619524141EB5E
:102B10000101A3F10103BDE801894FEA14454FEA21
:102B2000114724EA054621EA074C05FB07F406FB9A
:102B300007F70CFB06F105FB0CFC11EB074144EB1E
:102B400017444FEA124711EB0C4144EB1C4422EAB4
:102B5000074C05FB07F206FB07F70CFB06F605FB27
:102B60000CFC16EB074642EB174216EB0C4642EB09
:102B70001C456A1854F1000148BF7047B61952410C
:102B800041EB0101A3F10103704795F0000F37D02D
:102B90004FEA11424FEA144721EA024624EA074C61
:102BA00002FB07F106FB07F70CFB06F402FB0CFC2B
:102BB00014EB074441EB17414FEA154714EB0C4463
:102BC00041EB1C4125EA074C02FB07F506FB07F722
:102BD0000CFB06F602FB0CFC16EB074645EB174513
:102BE00016EB0C4645EB1C42121951F1000148BF8F
:102BF0007047B619524141EB0101A3F1010370473F
:102C00004FEA14454FEA114724EA054621EA074CEA
:102C100005FB07F106FB07F70CFB06F24FF0000679
:102C200005FB0CFC12EB074241EB174112EB0C4287
:102C300051EB1C4148BF7047921841EB0101A3F1D1
:102C4000010370472DE9F041044600270D46006856
:102C500004F0FFFC0646206804F0F7FC30435DD02A
:102C60002068C1682E4E890105D5617E012902D1F7
:102C7000217E01290BD0022D1DD0206804F0E9FC33
:102C8000B8B120688168C1F3400169B111E0012544
:102C9000244902E08F4232D27F1C0268D24352069E
:102CA000F8D440210160E8E78168314041F010012B
:102CB0008160012D11D0206804F0C7FC48B1206864
:102CC0008168C1F3400121B98168314041F02001A0
:102CD0008160022D08D0032D04D0042503F064FA8E
:102CE000064617E00C25F9E70825F7E703F05CFA3C
:102CF000801B05280ED92068806828420AD0606DA4
:102D000040F010006065A06D40F00100A06501205A
:102D1000BDE8F081206880682842E7D10020F7E70D
:102D2000C0FFFF7F000040A370B5044600688168C3
:102D30008268C1F3400112F0010F28D039BB8168CD
:102D400001F00D01012914D18168124A1140891C3A
:102D5000816021680320086003F026FA054612E02E
:102D600003F022FA401B02280DD920688068C007B2
:102D700009D0606D40F010006065A06D40F001006A
:102D8000A065012070BD20688068C007E8D10020E0
:102D900070BD0000C0FFFF7FF8B504460020009022
:102DA0002068816811F0010F41D18168214A1142E8
:102DB0002ED18168D5432940491C81601E48806816
:102DC00000F0E07000020DD51C481D490068B0FB02
:102DD000F1F0401C00EB4000800000E0401E00903D
:102DE0000028FBD103F0E0F906461BE0816811F0F2
:102DF000010F03D181682940491C816003F0D4F997
:102E0000801B02280ED920680068C043C00709D083
:102E1000606D40F010006065A06D40F00100A0659D
:102E20000120F8BD20680168C943C907DED1002030
:102E3000F8BD00003F00008000030450A000002007
:102E4000400D03002DE9F04786B01E4691465FEA2B
:102E5000000A4FF000054BD0F1B3B9F1000F47D095
:102E6000D6B3A846012912D00229ADF80C8012D0A1
:102E70004808491EADF80E00ADF81010032721A236
:102E800019464846FDF7FCFA022831D108E0ADF8B2
:102E90000C800127F3E70120ADF80E000227EEE7D2
:102EA000022E25D9022429E003A830F8150000EBF2
:102EB00040010AEB810045B1611CB14218D23B22AE
:102EC00009F80420641C09F80480017A437A4268F6
:102ED0008DE80E00311B00E00AE0036809EB0400F6
:102EE00009A2FDF7CDFA152802D11534B44203D357
:102EF000002006B0BDE8F0876D1CEDB2BD42D3D313
:102F0000A0B2F6E7447C00002530396C75256325B6
:102F10003031306C7525630070B50C462DED0C8B8F
:102F200005007CD0002CFCD0297A286800F0C6FA75
:102F30009FED7B8B51EC100B53EC182B09F0B4FC7C
:102F40009FED799B53EC192B09F056FA41EC1C0BC1
:102F5000217A206800F0B2FA53EC182B51EC100BD8
:102F600009F0A2FC53EC192B09F046FA41EC1B0BBB
:102F7000297A286800F0A2FAB0EE40AAF0EE60AA22
:102F8000217A206800F09AFAB0EE401AF0EE601A4A
:102F900053EC1A2B51EC110B09F092FE53EC182B49
:102FA00009F082FC53EC192B09F026FA41EC1A0BBC
:102FB000697A686800F082FAB0EE40DAF0EE60DA22
:102FC000617A606800F07AFAB0EE401AF0EE601AAA
:102FD00053EC1D2B51EC110B09F072FE53EC182B26
:102FE00009F062FC53EC192B09F006FA9FED509B97
:102FF00053EC192B09F058FC0D46044645EC100B18
:1030000005F07EFEB0EE408AF0EE608A45EC104B93
:1030100005F076FEB0EE40DAF0EE60DA00E07BE03C
:10302000B0EE4B0AF0EE6B0A05F09EFDB0EE401AD2
:10303000F0EE601AB0EE41BAF0EE61BAB0EE4C0AB2
:10304000F0EE6C0A05F090FD53EC1B2B51EC100BCD
:1030500009F02AFC53EC1D2B09F026FC53EC182B2D
:1030600009F022FC41EC180B53EC192B51EC1A0B14
:1030700009F01AFC0D46044645EC100B05F040FE25
:10308000B0EE40AAF0EE60AA45EC104B05F038FE19
:10309000B0EE401AF0EE601A53EC1A2B51EC110B03
:1030A00009F002FC53EC182B09F0EAF841EC180B7C
:1030B0009FED210B53EC182B51EC100B09F000FE87
:1030C00041EC100B05F080FEB0EE40AAF0EE60AAD5
:1030D000B0EE480AF0EE680A05F076FEB0EE4A1A45
:1030E000F0EE6A1A05F048FC9FED151B51EC100B31
:1030F00053EC112B09F0D8FB9FED131B53EC112B54
:1031000009F0D2FB53EC192B09F0BAF800F020B803
:10311000BDE8704009F034BB00F020B8002070BD5D
:10312000182D4454FB210940000000000080664037
:10313000000000000000E03F000000000000F03F41
:10314000000000000000004000000000AE4D5841AB
:10315000BDEC088BBDEC04CBFFF7DABFBDEC088BF0
:10316000BDEC04CBFFF7DABF30B414460D4600289F
:103170001CD0002D1AD0002C18D00178012907D0BE
:1031800002290CD02146284630BC09A2FDF778B9A7
:1031900040684FF47A71B0FBF1F30BA201E0836851
:1031A00013A22146284630BCFDF76AB930BC7047EF
:1031B0005265706F72742064656661756C743A2034
:1031C00032206D696E0D0A005265706F7274206D49
:1031D0006F64653A2074696D652C20696E74657240
:1031E00076616C3A20256C7520730D0A0000000092
:1031F0005265706F7274206D6F64653A20646973F4
:1032000074616E63652C207468726573686F6C649A
:103210003A20256C75206D0D0A00000070B50D4632
:10322000040008D04FF4F561FDF728FD0020207060
:1032300001482561606070BDC0D4010070B590B0D8
:1032400006004FF000000D460D900E9064D0002D4A
:1032500062D0344600E0641C20782028FBD0092886
:10326000F9D0C0B2242800D1641C2046FDF7FBFB36
:10327000052851D3A078522801D072284CD1E0788B
:103280004D2801D06D2847D12079432801D06328EB
:1032900042D104230FAA0221304600F0E3F8D0B354
:1032A0009DF83C00412837D1142301AA0321304660
:1032B00000F0D8F878B304230BAA1946304600F082
:1032C000D1F840B3142306AA0521304600F0CAF80D
:1032D00008B304230CAA0621304600F0C3F8D0B18D
:1032E0009DF82C100DAA01A800F024F998B19DF8C2
:1032F00030100EAA06A800F01DF960B10D982860E4
:103300000E9868609DF82C0028729DF83000687255
:10331000012010B070BDFFE70020FAE7FEB51546AA
:10332000089F1E460A46040037D0B6B3AFB36946BD
:103330001046FFF783FF002830D0207D38B1694662
:1033400004F11800FFF7E8FDE1680844E0609DE83B
:10335000070004F1180383E8070001202075A08C02
:10336000A0280BD200EB4002401C04EB8201A08499
:103370009DE80D00283181E80D0004E09DE80E0075
:1033800004F29C700EC0A18C39B12078022806D0BE
:1033900020696268281A904214D20020FEBDD4E948
:1033A0000202824201D3012200E0002220690C4B7C
:1033B000281A984201D3012000E00020002AECD016
:1033C0000028EAD03B46324604F12800FFF73AFDD8
:1033D0000028E3D02946204600F0D0F80120FEBDA9
:1033E000C0D4010010B5002807D000230370034AA1
:1033F000C0E9012300F0C2F8012010BDC0D40100D3
:1034000010B510B1B1F5FA7F01D2002010BD022332
:103410000370816003494160114600F0AFF801205C
:1034200010BD0000C0D40100C1EB0111890000F003
:1034300001B8000010B520B13C2902D3084B9942D5
:1034400001D9002010BD012303704FF47A73594352
:10345000416000218160114600F090F8012010BD0C
:1034600037894100F0B500252C4628B322B31BB3A1
:10347000002717705B1E0AE02C2E11D02A2E0FD0C9
:103480008D4203D19C4217D21655641C401C06780D
:103490001EB10D2E01D00A2EEED18D4202D00BE0CE
:1034A0008D4203D117553CB10120F0BD6D1C0024A5
:1034B000EDB22A2EF1D0E9E70020F0BD70B50C4640
:1034C0001749B0FBF1F5B0FBF1F201FB12002DED55
:1034D000028B09F099F99FED131B53EC112B08F0A7
:1034E0008BFF9FED121B53EC112B08F085FF41EC75
:1034F000180B284609F088F953EC182B08F0C0FE89
:1035000041EC100B532C01D0572C05D151EC100B72
:1035100008F078FE41EC100BBDEC028B70BD000092
:103520008096980000000000006AF840000000004B
:1035300000004E4030B50023F0B1EAB14E2912D060
:10354000532910D045290ED0572915D10BE000BFC3
:10355000A1F13004092C04D803EB830305EB4303EA
:103560000B44401C01E06FF02F0501780029EFD1DA
:1035700013B10120136030BD002030BD002803D0FE
:1035800000228284C0E90321704700002DE9FF4F2B
:10359000E1B098465FEA000B49D0002947D0639814
:1035A000002844D0B8F1000F41D00E4638AF4FF09C
:1035B0009D0900250846FDF756FA0400AA4636D0B4
:1035C0004E2C34D8012000EB44009D282FD80BE06E
:1035D0006942735D09EB410107EB450018A2FCF756
:1035E0004FFF022823D16D1CA542F1D307F814A088
:1035F00038A800905B4614A2DC2101A8FCF740FF2C
:10360000002814DDDC2812D201A9002001E050407E
:10361000491C0A78002AFAD1009001AB0EA2DC21E5
:103620006398FCF72DFF002801DDDC2803D3002080
:1036300065B000F017B8A8F800000120F8E7000016
:10364000253032580000000043435458412C257364
:103650002C312C312C2573002425732A2530325827
:103660000D0A000030BCBDE8C08F10B518B111B113
:10367000FDF756FB08B1002010BD012010BD000071
:1036800070B506000CD0094D002400BF55F8341069
:103690003046FDF745FB28B1641CE4B2052CF5D398
:1036A000002070BD05EBC400406870BDD8CF000895
:1036B00070B5064602F078FD05461348134C022EFD
:1036C00012D0042E1ED1042102F063FD002819D16E
:1036D0002069281A502815D3606C002812D0256163
:1036E000BDE8704006F0AABE022102F052FD00289B
:1036F00008D1E068281A502804D3206C002801D093
:10370000E560EDE770BD0000000400480000002007
:1037100070B5CCB0060018D04FF48072694601F045
:10372000DBF8002811D089A16846FFF79EFF894C7D
:1037300008B1A06B05E088A16846FFF796FF30B19D
:10374000E06B002801D006F079FE4CB070BD84A17A
:103750006846FFF78AFF30B1207808B183A0E2E025
:1037600010218C48EEE08CA16846FFF77EFFE0B99F
:103770008CA16846FFF779FFB8B90C228CA1684686
:10378000FDF790F988B10B228DA16846FDF78AF903
:1037900058B10C228DA16846FDF784F928B18FA19C
:1037A0006846FFF762FF10BB03E0684600F020FEAA
:1037B000CBE78CA16846FFF758FFC0B98CA16846DB
:1037C000FFF753FF98B908228CA16846FDF76AF904
:1037D00068B10A228CA16846FDF764F938B1072266
:1037E0008CA16846FDF75EF96D4620B115E068468C
:1037F00000F074FCA9E72846FDF735F907280CD935
:103800005448EA1D1021603001F006FD18B1514BFB
:1038100082A2603381E087A085E005228CA1684602
:10382000FDF740F988B96846FDF71DF905280CD960
:1038300048486A1D1021503001F0EEFC18B1454B8C
:1038400085A2503369E089A06DE08EA16846FFF73C
:103850000CFF58B13F486030007818B13D4B8CA246
:1038600060335AE08FA20FE040A85CE093A1684665
:10387000FFF7FBFE68B137485030007818B1354B80
:1038800091A2503349E094A2302140A8FCF7F8FD02
:10389000EAE7052296A16846FDF704F930B96846C3
:1038A000FDF7E1F8052801D9681D43E092A16846BB
:1038B000FFF7DBFE10B100F06BFF46E78FA1684613
:1038C000FFF7D3FE10B101F033FB3EE70A228DA1D2
:1038D0006846FDF7E7F80DF10A0568B10A228CA1E8
:1038E0006846FDF7DFF858B18CA16846FFF7BDFECA
:1038F000E0B106F029F928E7284600F0CDFA24E7E0
:103900009DF80A10284669B10A220021FDF753F8F4
:10391000044606F0A5FA234683A2302140A8FCF70E
:10392000AFFDA1E786A001F0C1FB0EE76846FFF7F7
:10393000A7FE10B100F0BEFE07E720780028BCD13A
:103940007188301D01F0BEFBFFE600007264206D3F
:103950006F64650000000020726E206D6F6465006A
:1039600063617264776F7264000000006361726467
:10397000776F7264206973206F6E6C792061766155
:10398000696C61626C6520696E205244206D6F64C1
:10399000650D0A00B0CF00087265706F7274206701
:1039A000657400007265706F7274206F6666000047
:1039B0007265706F72742074696D6520000000007C
:1039C0007265706F72742073656320007265706F2A
:1039D0007274206469737420000000006C6F6F7053
:1039E000206F6E006C6F6F70206F666600000000C5
:1039F0006C6F6F7020676574000000006C6F6F70F3
:103A0000206F6E20000000006C6F6F702074696D75
:103A100065200000746172676574200054617267EC
:103A200065742063617264207365743A2025730D98
:103A30000A000000496E76616C69642074617267E7
:103A4000657420636172642049440D0A000000001F
:103A500073656C662000000053656C6620636172BC
:103A600064207365743A2025730D0A00496E7661EF
:103A70006C69642073656C662063617264204944DC
:103A80000D0A000067657420746172676574000038
:103A900054617267657420636172643A2025730D06
:103AA0000A00000054617267657420636172643AB1
:103AB000206E6F74207365740D0A000067657420B2
:103AC00073656C660000000053656C66206361726C
:103AD000643A2025730D0A0053656C662063617299
:103AE000643A206E6F74207365740D0A0000000044
:103AF00073656E6420000000736F730062617474FC
:103B0000657279007365745F66656E63653A00007F
:103B100064656C5F66656E63653A00006C6973741A
:103B20005F66656E6365000046656E63652072655D
:103B30006D6F7665643A2049443D25750D0A000095
:103B4000496E76616C69642066656E6365204944E0
:103B50000D0A00002DE9F04F2DED068BADF5177D18
:103B6000002810D0017846290DD14178002443293E
:103B70000AD04FF00D094FF00A0A0DF1180850292C
:103B800051D051297ED05CE181783029FBD339298D
:103B9000F9D846944894499446A9801C479400F06B
:103BA000F3FE00286FD048A900F0EEFE00286AD08E
:103BB00049A900F0E9FE002865D047A900F0E4FE1D
:103BC000002860D04E220621489800F0C0FEB0EEDA
:103BD000408AF0EE608A45220721499800F0B7FE3E
:103BE000B0EE409AF0EE609A479808F00DFE41EC76
:103BF000120BB0EE491AF0EE691AB0EE480AF0EE78
:103C0000680A469805F08AFD479808F0FDFDCDE961
:103C100004018DA28DEC048B4FF4807106A8469BA5
:103C2000FCF72EFC03E181783029ACD33929AAD8DE
:103C3000002604A9801C049400F0A6FE05000DF5E2
:103C40008C7BA0D01CE0009469462846019400F0CB
:103C50009BFE00B301A900F097FEE0B105464522A6
:103C60000721019800F073FE0BEB06174E2287ED3B
:103C7000000B0621009800F06AFE87ED020B761C0F
:103C8000287801E03AE0C5E028B10D2803D00A28E1
:103C900001D0142ED7DB032E7EDB324646A90498D2
:103CA00005F08EFD009670A24FF4807106A8049B6B
:103CB000FCF7E6FB0546002713E000BF0BEB0710FF
:103CC000C5F5807190ED000B6CA28DED020B90EDAF
:103CD000020B08EB05008DED000BFCF7D1FB054452
:103CE0007F1CB74201DAF02DE8DB08F805906D1C67
:103CF00008F805A06D1C08F8054098E08178302987
:103D00004AD3392948D80594049404A9801C969470
:103D100000F03AFE00287DD005A900F035FE00280D
:103D200078D096A900F030FE060035D04E2206214C
:103D3000059800F00CFEB0EE409AF0EE609A452235
:103D40000721969800F003FE0DF58C7BB0EE408ABB
:103D5000F0EE608A01258BEC048B2CE00094694620
:103D60003046019400F0F9FD68B301A900F0F5FDBB
:103D700048B30646009808F030FD9FED43AB53EC86
:103D80001A2B08F091FD53EC192B08F079FA0BEB84
:103D90000517C7E9020100E053E0019808F01DFD96
:103DA00053EC1A2B08F080FD53EC182B08F068FA3E
:103DB000C7E900016D1C307828B10D2803D00A280E
:103DC00001D0142DCADB032D3BDB2A4646A90498FB
:103DD00005F0F6FC009524A24FF4807106A8049B20
:103DE000FCF74EFB0646002713E000BF0BEB071065
:103DF000C6F5807190ED000B20A28DED020B90EDC9
:103E0000020B08EB06008DED000BFCF739FB0644B6
:103E10007F1C00E00FE0AF4201DAF02EE6DB08F88D
:103E20000690761C08F806A0761C08F8064006A83E
:103E300001F03CF901200DF5177DBDEC068B00F07B
:103E400027B80020F7E7000046454E43455F43464C
:103E5000473A432C25752C252E35662C252E3566A4
:103E60002C252E31660D0A0046454E43455F4346DC
:103E7000473A502C25752C25640000002C252E3542
:103E8000662C252E35660000FCA9F1D24D62503F0C
:103E900030BCBDE8C08F000070B52DED028BEAB0DC
:103EA00048B102783AB100219FED4A8B632A04D0D1
:103EB000702A27D029E049A085E042782C2A24D115
:103EC00018918DED128B8DED148B8DED168B16AA3E
:103ED00014A9CDE9001212AB18AA46A1801CFCF768
:103EE0006BFC042801D047A06DE012A890EC060BF3
:103EF000189805F013FC4BA2402102A8189BFCF770
:103F0000BFFA5DE042782C2A01D04CA05BE06591BD
:103F1000801C01910446002601AB65AA50A1FCF764
:103F20004BFC022801D050A04DE00198C01E122881
:103F300001D355A047E0002003E02C2900D1401C0C
:103F4000641C217809B10228F7DB002523E000BFBB
:103F50008DED628B8DED668B66AB62AA27A1204644
:103F6000FCF72AFC02281CD112A89DED660B00EB81
:103F7000051080ED000B9DED620B80ED020B002023
:103F8000761C03E02C2900D1401C641C217809B167
:103F90000228F7DB6D1C0198854202DA11F0FF0F51
:103FA000D6D1019A96420DD112A9659805F008FC68
:103FB000019800903AA2402102A8659BFCF760FAA4
:103FC00002A800E03DA001F071F86AB0BDEC028BE0
:103FD00070BD00000000000000000000496E766126
:103FE0006C69642066656E636520706172616D73D3
:103FF0000D0A0000256C752C256C662C256C662C32
:10400000256C6600496E76616C6964206369726331
:104010006C652066656E636520706172616D730DFD
:104020000A00000046656E6365207365743A20439C
:104030002049443D256C750D0A000000556E6B6EDD
:104040006F776E2066656E636520747970652C20CD
:104050007573652063206F7220700D0A00000000E8
:10406000256C752C25640000496E76616C696420AE
:10407000706F6C79676F6E2066656E636520706126
:1040800072616D730D0A0000496E76616C6964207F
:1040900076657274657820636F756E740D0A000022
:1040A00046656E6365207365743A20502049443D2F
:1040B000256C75204E3D25640D0A0000496E766121
:1040C0006C696420706F6C79676F6E2076657274AE
:1040D000657820646174610D0A000000F0B597B046
:1040E0004FF000060500159678D03DA1FFF7BDFA08
:1040F0003E4C10B1A6703EA06EE043A12846FFF7EB
:10410000B4FAB0B1A07868B160694EF66021B0FB36
:10411000F1F0364B009070333EA2502101A8FCF71D
:10412000AFF904E045A2502101A8FCF7A9F901A8C4
:1041300052E00A2244A12846FCF7B4FC38B1082218
:1041400044A12846FCF7AEFC0127C8B131E005F1D7
:104150000A000A2215A90546FCF72DFC034615980E
:10416000A84205D0007818B913B1B3F5803F01D348
:104170003BA031E04EF66020584343A2606124E04A
:104180002846FCF770FC082813D908352846FCF7A8
:104190006AFC08B1202801D942A01DE01348202262
:1041A00029467030FCF791FD1048703080F820608F
:1041B00004E042A12846FFF758FA60B1A77001F069
:1041C000F3FF0A4B3FA27033A061502101A8FCF716
:1041D00057F9ACE702E041A000F068FF17B0F0BD6E
:1041E0006C6F6F70206F666600000000000000209A
:1041F0004C6F6F702073656E642064697361626CCC
:1042000065640D0A000000006C6F6F7020676574B4
:10421000000000004C6F6F703A206F6E2C206D73A1
:10422000673A2025732C20696E74657276616C3A4A
:1042300020256C75206D696E0D0A00004C6F6F7043
:104240003A206F66660D0A006C6F6F702074696D9E
:10425000652000006C6F6F70206F6E200000000002
:10426000496E76616C6964206C6F6F702074696D43
:10427000652C206D757374206265203E3D203120D1
:104280006D696E0D0A0000004C6F6F7020696E74CE
:10429000657276616C3A20256C75206D696E0D0A29
:1042A000000000004C6F6F70206D6573736167656F
:1042B00020746F6F206C6F6E670D0A006C6F6F70EB
:1042C000206F6E004C6F6F702073656E6420656E9A
:1042D00061626C65643A2025730D0A00556E6B6E41
:1042E0006F776E206C6F6F7020636F6D6D616E64A1
:1042F0000D0A000030B5ADF5017D4FF0000504005A
:10430000ADF800521FD0608800281CD080AA6946F2
:10431000204601F0C3F828B980AA6946204601F07A
:104320002DF960B1BDF8001268460A220DF801505F
:104330000CA1FCF7B7FB48B16846FFF70BFC61889E
:10434000201D00F08FFE0DF5017D30BD08A24FF459
:10435000807140A80DF10A03FCF792F840A800F024
:10436000A5FEECE75345545F46454E43453A0000F1
:1043700046454E43455F4346473A25730D0A0000C4
:1043800070B5194E4FF48071304601F002FF174CA2
:1043900022783AB100254FF40071012A07D0022A91
:1043A00019D10BE0002801D10120207070BD08B1A7
:1043B000257070BD02202070658006E0012806D0BF
:1043C0006088B4280AD2401C6080012207E00122E4
:1043D000304601F0E3FE2570658070BD0022304656
:1043E000BDE8704001F0DABE000400481C00002067
:1043F00070B59CB0054600201A9001F0D5FE064627
:10440000002D76D04BA12846FFF72FF9D0B14C4CA8
:1044100060222069311A4FF47A70B1FBF0F56168BF
:10442000B1FBF0F602A92046FEF79EFE02A800F0BE
:104430003DFECDE90056A38C42A2602102A8FCF704
:104440001FF83BE04AA12846FFF70FF928B1314693
:104450003B48FEF7C7FF49A067E00C224DA1284664
:10446000FCF720FB05F10C0478B10B224DA1284686
:10447000FCF718FB002823D00C224DA12846FCF79E
:1044800011FB002838D04EA04FE00A221AA920467E
:10449000FCF791FA05461A98A0420DD0007858B959
:1044A000B5F5803F08D2A9B232462548FEF7BCFFD9
:1044B00010B12B4649A232E04FA036E002A834E00A
:1044C00005F10B000A221AA90546FCF774FA044606
:1044D0001A98A8420ED0007860B95148844209D891
:1044E000324621461648FEF7A5FF18B123464DA2D5
:1044F00015E01CE052A018E00A221AA92046FCF799
:104500005AFA05461A98A0420ED0007860B9324691
:1045100029460B48FEF774FF30B12B4652A26021AA
:1045200002A8FBF7ADFFC9E757A000F0BFFD1CB024
:1045300070BD00007265706F727420676574000052
:1045400024010020506F696E74733A2025752C2069
:10455000656C61707365643A20256C75732C2069F5
:104560006E74657276616C3A20256C75730D0A0065
:104570007265706F7274206F666600005265706FAE
:1045800072742064656661756C743A2032206D69BE
:104590006E0D0A007265706F72742074696D65200B
:1045A000000000007265706F7274207365632000F4
:1045B0007265706F7274206469737420000000006B
:1045C000556E6B6E6F776E207265706F72742063BC
:1045D0006F6D6D616E640D0A000000005265706FB2
:1045E00072742074696D65207365743A20256C754A
:1045F000206D696E0D0A0000496E76616C69642059
:104600007265706F72742074696D652C206D75739E
:1046100074206265203E3D2031206D696E0D0A00D8
:10462000378941005265706F72742074696D65201E
:104630007365743A20256C7520730D0A0000000024
:10464000496E76616C6964207265706F7274207354
:1046500065632C206D757374206265203E3D2036A5
:104660003020730D0A0000005265706F7274206470
:10467000697374616E6365207365743A20256C7587
:10468000206D0D0A00000000496E76616C6964209F
:104690007265706F72742064697374616E63652CE7
:1046A000206D757374206265203E3D2035303020CA
:1046B0006D0D0A0070B596B0050006D0287820B1BF
:1046C0001548007818B115A021E01AA01FE0124E7D
:1046D0006036307828B12846FEF7D2FF040002D0B9
:1046E00002E018A013E02C460B482146603000F091
:1046F00097FC58B1234619A2502101A80096FBF758
:10470000BFFE01A800F0D2FC16B070BD19A016B013
:10471000BDE8704000F0CABC0000002053656E6424
:10472000207265717569726573205244206D6F64E3
:10473000650D0A00456D707479206D65737361674E
:10474000650D0A00546172676574206361726420AC
:104750006E6F74207365740D0A00000042443220AD
:1047600073656E74205B25735D20746F2025730D57
:104770000A000000424432206D6573736167652052
:104780006275696C64206661696C65640D0A00007D
:1047900000B5124891B0007808B111A018E00F4898
:1047A0006030007888B10D4813A1603000F038FC0B
:1047B00068B10A4B11A2603340216846FBF760FEE6
:1047C000684600F073FC11B000BD12A000E017A015
:1047D00011B05DF804EB00F069BC0000000000209F
:1047E000534F53207265717569726573205244206E
:1047F0006D6F64650D0A0000534F53004244322030
:10480000534F532073656E7420746F2025730D0A07
:104810000000000054617267657420636172642057
:104820006E6F74207365740D0A00000042443220DC
:10483000534F532073656E64206661696C65640D27
:104840000A000000A0F13001092901D848B27047E0
:10485000A0F14101052901D8373804E0A0F1610138
:10486000052902D8573840B270474FF0FF307047E3
:1048700010B518B1418809B1021D02E0002010BD39
:10488000521C11782029FBD00D29F9D00A29F7D024
:10489000C9B2242900D1521C117881B1517871B16B
:1048A0009178522901D0722909D1D1784D2901D0AE
:1048B0006D2904D11179432907D0632905D004A1BA
:1048C000001DFCF7BEF80028D9D0012010BD000063
:1048D000524D432C00000000F0B506004FF00003DD
:1048E000184603D011B10AB1748802E00020F0BD6F
:1048F0005B1CA3420BD2F5182D79202DF8D0092D81
:10490000F6D00D2DF4D00A2DF2D000E0641E9C42AA
:1049100009D93519ED78202DF8D0092DF6D00D2DB7
:10492000F4D00A2DF2D0521E0AE0F5182D79A5F127
:104930004107192F01D82035EDB20D54401C5B1CE6
:10494000A34201D29042F0D300220A54F0BD114696
:104950004FF47A72504305F067B938B50546002028
:104960000C4600900A2269462846FBF7ECFF0099A6
:10497000A94201D1002038BD2060009801782C297F
:10498000F9D1401C009038BD38B5054600200C46D2
:1049900000900A2269462846FCF70DF80099A942C2
:1049A00001D1002038BD2060009801782C29F9D170
:1049B000401C009038BD000070B50D46284C010029
:1049C0001FD020460129406B33D0022947D161898D
:1049D000244EFF2905D304F10A033246022100F0D8
:1049E00047F860893118401C60810D700A2D36D15E
:1049F0001B4B1C4A0A330221606BBDE8704000F07B
:104A000037B8E088184EFF2806D3154B32469B1D59
:104A10000021206B00F02CF8E0883118401CE08069
:104A20000D700A2D1BD10E4B0F4A9B1D0021206BD0
:104A3000E3E721890D4EFF2905D3094B32460833A0
:104A4000012100F015F820893118401C20810D70DB
:104A50000A2D04D1024B054A08330121CCE770BD71
:104A600000000020CC0A0020CC080020CC09002047
:104A70002DE9F043C1B01D4690460E465FEA00099D
:104A800029D0B8F1000F26D0002D24D02888002886
:104A900021D04FF482716846FCF7F0F82C88FF2C87
:104AA00000D9FF248DF80060ADF80240224641464F
:104AB0006E4601A8FCF741F8002730193B46077104
:104AC0003A466946484605F08DFB2F804FF48071C9
:104AD0004046FCF7B1F841B0BDE8F083F0B5A1B0B5
:104AE000182115A8FCF7CAF818211BA8FCF7C6F86E
:104AF000444815900620169017907F2018900420A7
:104B0000199000201A9040F6E446182215A91BA817
:104B1000FCF758F83D4C3C481B90A06820F0E07032
:104B200040F48000A06015A9394800F035FE034626
:104B300038A2502101A8FBF7A3FC01A800F0B6FAA7
:104B4000334801F07DF903463AA2502101A8FBF752
:104B500097FC01A800F0AAFA0A212D4801F018F9E3
:104B60002B4801F010F82A4801F0AEF9284801F06E
:104B700067F9034638A2502101A8FBF781FC01A880
:104B800000F094FA0A21224801F002F908B13BA092
:104B90001FE01F4800F0F7FF454F05462B463888B9
:104BA000009044A2502101A8FBF76AFC01A800F084
:104BB0007DFA6DB1388840F6B8314843B0FBF5F660
:104BC000334644A2502101A8FBF75AFC01A800E09B
:104BD00046A000F06BFA0E4801F076F9A06820F0CC
:104BE000E070A0601BA90A4800F0D6FD03464BA266
:104BF000502101A8FBF744FC01A800F057FA21B0AE
:104C00003046F0BD010000802000F0140003045085
:104C1000CC0B0020444247204144433A20565245A1
:104C200046206366674368207265743D25640D0AFB
:104C300000000000444247204144433A2056524578
:104C4000462064756D6D792073746172742072658D
:104C5000743D25640D0A0000444247204144433A14
:104C60002056524546207265616C207374617274DF
:104C7000207265743D25640D0A00000044424720FF
:104C80004144433A205652454620706F6C6C204692
:104C900041494C45442C207573696E672066616CF0
:104CA0006C6261636B20333330306D560D0A000047
:104CB000AA75FF1F444247204144433A20565245BB
:104CC00046207261773D256C752043414C3D256C33
:104CD000750D0A00444247204144433A205644445B
:104CE000413D256C756D560D0A0000004442472079
:104CF0004144433A2056524546207261773D302C5C
:104D0000207573696E672066616C6C6261636B20ED
:104D1000333330306D560D0A000000004442472006
:104D20004144433A20726573746F7265206368353D
:104D3000207265743D25640D0A000000F0B597B03F
:104D4000002535A000F0B2F93E480168896800915D
:104D5000436D3DA2502102A8FBF792FB02A800F090
:104D6000A5F9FFF7BBFE0646364801F069F8034691
:104D70003EA2502102A8FBF783FB02A800F096F99F
:104D80000A21304801F004F82E4800F0FCFE2D48BE
:104D900001F09AF800242B4801F052F807460A2146
:104DA000284800F0F5FF002828D0234637A25021DC
:104DB00002A80097FBF764FB02A800F077F92148EE
:104DC00001F082F8641CE4B2042CE4D3A808704318
:104DD000400040F6FF71B0FBF1F4CDE900642B46D2
:104DE00035A2502102A8FBF74BFB02A800F05EF9A8
:104DF0003BA000F05BF917B02046F0BD114800F071
:104E0000C2FECDE90070054423463FA2502102A80E
:104E1000FBF736FBD0E70000444247204144433AC9
:104E2000203D3D3D204170705F5265616456626176
:104E3000745F6D56207374617274203D3D3D0D0AA0
:104E400000000000CC0B0020444247204144433A7C
:104E50002073746174653D3078256C582043523D51
:104E600030782530386C580D0A0000004442472045
:104E70004144433A2064756D6D7920737461727496
:104E8000207265743D25640D0A00000044424720ED
:104E90004144433A2073616D706C655B25755D20FC
:104EA00073746172743D256420706F6C6C20464190
:104EB000494C0D0A00000000444247204144433A57
:104EC0002073756D3D256C7520766464613D256C9D
:104ED0007520766261743D256C756D560D0A000073
:104EE000444247204144433A203D3D3D20417070BB
:104EF0005F52656164566261745F6D5620656E64D1
:104F0000203D3D3D0D0A0000444247204144433AC4
:104F10002073616D706C655B25755D2073746172C3
:104F2000743D2564207261773D256C750D0A000083
:104F300000B58DB0FFF702FF0346002141F20400E7
:104F4000834201D364210BE0B3F5616F08D9A3F567
:104F50006160642148434FF4FA71B0FBF1F0C1B2D3
:104F6000009105A2302101A8FBF78AFA01A800F000
:104F70009DF80DB000BD0000426174746572793A0D
:104F800020256C756D5620257525250D0A0000001D
:104F90000A4B00224FF4807140B1012809D0022849
:104FA0000AD15A81064800BFFBF768BEDA8005487F
:104FB000FAE71A810448F7E7704700000000002074
:104FC000CC0A0020CC080020CC090020002818D0F2
:104FD00000680C49884203D101220B490B480EE0BE
:104FE0000B49884204D108490122491C094806E0BE
:104FF0000949884205D104490122891C074802F069
:105000009DBA70470080004003000020300C002053
:1050100000380140B80C002000480040400D00203E
:1050200010B5B8B00022ADF8DC20B0B1A9B137ABF3
:105030006A46FEF7ABFA04000CD0BDF8DC106846F7
:1050400000F040F8BDF8DC10684600F00BF804A052
:1050500000F02CF8204638B010BD0020FBE700001F
:105060000D0A00002DE9F0410D46060017D0002D75
:1050700015D00C4CA06C002811D04FF0FF373946EA
:1050800005F0E4F800280AD13B462A463146064896
:1050900002F07AFAA06CBDE8F04105F034B9BDE841
:1050A000F081000000000020300C002010B504004A
:1050B00007D0FBF7D8FC81B22046BDE81040FFF7CF
:1050C000D1BF10BD2DE9F0410D46060017D0002DCF
:1050D00015D00C4CE06C002811D04FF0FF3739464A
:1050E00005F0B4F800280AD13B462A463146064866
:1050F00002F04AFAE06CBDE8F04105F004B9BDE801
:10510000F081000000000020B80C002010B5B8B0FD
:1051100004004FF00000ADF8DC0005D0207818B195
:105120001E480078012802D0002038B010BD1B486E
:105130006030007860B3194837AB6A46214660306A
:10514000FEF724FA002825D015A0FFF7AFFFBDF821
:10515000DC106846FFF786FF16A0FFF7A7FFBDF833
:10516000DC106846FFF7AEFF0120FFF711FF124881
:10517000FFF72CFF1148FFF729FF11A0FFF796FF5B
:105180002046FFF793FF0BA0FFF790FF0120CCE72D
:1051900010A000E018A0FFF789FFC5E7000000207D
:1051A000524E207265706F7274206672616D653A3E
:1051B000200000000D0A0000B80C0020400D002067
:1051C000524E207265706F72742073656E743A204F
:1051D000000000004C6F636174696F6E207265702F
:1051E0006F727420746172676574206E6F742073BF
:1051F00065740D0A000000004C6F636174696F6E86
:10520000207265706F7274206275696C64206661CB
:10521000696C65640D0A00002DE9F0410D46070038
:10522000144624D01DB314B31046FBF71CFCF0B198
:10523000A8421CD200262078B046C0B12046FBF719
:1052400012FC011F092912D204E0A15D30390A299C
:105250000DD2761C8642F8D36A1E21463846FBF7EB
:1052600034FD7919012001F8018CBDE8F08100209E
:10527000FBE7000070B52B4C6078002850D1012569
:1052800065702A466902284800F088FF4FF4FA70DA
:1052900004F00FFF0020FFF77BFE0120FFF778FEF0
:1052A0000220FFF775FEA06B28B10021A06B05F06E
:1052B0004BF80028F9D0E06B28B10021E06B05F035
:1052C00043F80028F9D0206C28B10021206C05F0AB
:1052D0003BF80028F9D0606C28B10021606C05F023
:1052E00033F80028F9D0114801F0F6FD00F05CFF1A
:1052F00001460F48FDF792FF0E48FFF767FE0E4884
:10530000FFF764FE0D48FFF761FE2570002000F0F6
:1053100029F80BA0FFF7CAFEBDE87040FFF708BEF2
:1053200070BD00000000002000040048C80D0020EF
:1053300024010020300C0020B80C0020400D00207B
:1053400053797374656D2072656164792E204465AC
:105350006661756C74206D6F64653A2052440D0A65
:105360000000000070B505461E4804780570012055
:10537000FFF70EFE0220FFF70BFE1B481B4E4FF0FF
:1053800001024FF02001A5B100F008FF01228021A9
:10539000304600F003FF012C22D015A0FFF786FE57
:1053A0004FF4FA6004F085FE17A0BDE87040FFF7E7
:1053B0007DBE00F0F3FE01228021304600F0EEFEBB
:1053C00064B117A0FFF772FE4FF4967004F071FEFF
:1053D00013211948FFF776FE18A0E6E71DA0F1E7B4
:1053E00022A0E2E700000020000400480008004876
:1053F000537769746368656420746F20524E206D22
:105400006F64650D0A000000524E205244207374F0
:10541000616E6462792072656164790D0A00000032
:10542000537769746368656420746F205244206DFB
:105430006F64650D0A000000C1CF0008524420547B
:105440005852206F757470757420656E61626C655A
:10545000640D0A00416C726561647920696E2052A6
:1054600044206D6F64650D0A00000000416C726598
:1054700061647920696E20524E206D6F64650D0A5B
:1054800000000000002805D000680349884201D1CF
:10549000FEF776BF70470000004401402DE9F74F4A
:1054A0004FF0000A9146D046574654465546D346DB
:1054B000B8B30199A9B3B9F1000F55D00022A9F8EA
:1054C00000202AA1001DFBF7BCFA061E4AD01BE0F3
:1054D0002C2802D02A2825D014E00AF101001FFA56
:1054E00080FABAF1050F03D0BAF1070F07D009E02F
:1054F00030194078332805D14FF0010B02E0601CD1
:105500001FFA80F8641CA4B2305D0028E0D100BF0F
:10551000B8F1000F28D0474526D908EB0B0084B21C
:1055200017E021E02746F3E7305DFFF78BF980466F
:1055300030194078FFF786F9B8F1000F14DB002826
:1055400012DB019940EA081048556D1CA41CADB24D
:10555000A4B2601CB84201D2FF2DE5D3A9F80050D7
:1055600015B1012000F006B80020FBE74244544387
:10557000490000001EBCBDE8E08F00002DE9F047A7
:10558000904689460026E8B3B9F1000F43D0B8F140
:10559000000F40D00022A8F8002020A1001DFBF73A
:1055A00050FA071E35D02A21FBF741FA050032D008
:1055B000044604E014F8010C2C2803D0641EBC42FD
:1055C000F8D828E0601E26D0411CA94223D2281A10
:1055D000C043C0071FD111E02078FFF733F9074619
:1055E0006078FFF72FF9002F15DB002813DB40EA66
:1055F000071009F80600761CB6B2A41C601CA8426D
:1056000003D200E007E0FF2EE6D3A8F8006016B151
:105610000120BDE8F0870020FBE700004244545819
:105620005200000010B500281BD000680D498842C8
:1056300004D10020FFF7ACFC0B480EE00B49884278
:1056400004D10120FFF7A4FC094806E0094988427B
:1056500007D10220FFF79CFC0748BDE81040FFF788
:10566000B5BC10BD00800040300C00200038014067
:10567000B80C002000480040400D002010B5002864
:1056800028D0154A01681548914205D1C1780020FB
:10569000FFF792F9124814E0124A914207D10078BC
:1056A0000E4901200979FFF787F90F4809E00F4AF1
:1056B00091420FD10178012907D00220FFF768FC41
:1056C0000B48BDE81040FFF781BC41790220FFF78D
:1056D00073F9F5E710BD00000080004000000020D5
:1056E000300C002000380140B80C00200048004079
:1056F000400D0020FEE77047022000F053BC04205C
:1057000000F050BC72B6FEE7F8B5002604460096DD
:1057100090F850000D4601280BD0012084F850006D
:105720002046FDF701FB0100606D04D040F0100041
:105730002BE00220F8BD20F4885040F002006065A4
:1057400020688268134B1A4005F080431A4342F0E8
:10575000004282604FF4912320680EE0009A521CB0
:1057600000929A4209D3606D20F0020040F01000D0
:10577000606584F850600120F8BD8268D20FEDD1D9
:10578000606D20F0020040F00100606584F8506018
:105790000846F8BDC0FFFF3F2DE9F84F002704463B
:1057A000009790F85000DFF8AC930D46B8460128FA
:1057B00011D0012684F85060206801F04AFF60B1E2
:1057C000606D40F0200060655FF0010784F8508054
:1057D000384600F0D5B90220FBE76868052808D8EC
:1057E000022825D0032825D0042825D0052825D037
:1057F000062021680C2303EA901319442A680B6BD6
:1058000000F01F004FF01F0C0CFA00FCC2F3846282
:1058100023EA0C03824013430B63206801F019FF55
:105820008246206801F011FF5AEA000009D09AE090
:105830000C20DEE71220DCE71820DAE74FF4807056
:10584000D7E7AA682968206801F00FFF2068696916
:10585000C268C2F3C102520091402A69042A0FD0E3
:1058600000EB82002B68026EDFF8ECC203F0F84315
:1058700002EA0C020B431A4342F00041016672E057
:10588000002101F0DCFE400320684FF0000172D0DF
:1058900001F0D5FE90FAA0F0B0FA80F1286842033A
:1058A0006ED090FAA0F0B0FA80F0814204D10022CC
:1058B0001146206801F0E8FE0121206801F0BFFEDA
:1058C000400320684FF001015DD001F0B8FE90FA6E
:1058D000A0F0B0FA80F12868420359D090FAA0F005
:1058E000B0FA80F0814204D100220121206801F049
:1058F000CBFE0221206801F0A2FE400320684FF099
:10590000020148D001F09BFE90FAA0F0B0FA80F1BD
:105910002868420344D090FAA0F0B0FA80F08142A7
:1059200004D100220221206801F0AEFE032120688C
:1059300001F085FE400320684FF0030133D001F0F1
:105940007EFE90FAA0F0B0FA80F1286842032FD0D2
:1059500090FAA0F0B0FA80F0814204D10022032135
:10596000206801F091FE2068816811F0010F22D0BB
:10597000ABE000E004E001F062FEC0F384618DE77B
:10598000C0F3846091E701F05AFEC0F38461A2E79E
:10599000C0F38460A6E701F052FEC0F38461B7E76C
:1059A000C0F38460BBE701F04AFEC0F38461CCE73A
:1059B000C0F38460D0E72A7B296850F8B03FC1F378
:1059C000120C23EA0C0302F0180C644A22FA0CF2BF
:1059D0000A4013430360E968494576D128684103CA
:1059E0001BD090FAA0F1B1FA81F1491C01F01F011E
:1059F00009294FEA403131D8002911D090FAA0F19D
:105A0000B1FA81F101F1010101F01F0106FA01F67D
:105A100009D100BFC0F3846109E0C0F38461E4E709
:105A2000C0F38461EEE790FAA0F1B1FA81F101F1DF
:105A3000010101F01F0146EA816102D1C0F38460D7
:105A400003E090FAA0F0B0FA80F000F1010000F05D
:105A50001F0000EB400041EA005132E000290ED067
:105A600090FAA0F1B1FA81F101F1010101F01F01F9
:105A700006FA01F606D100BFC0F3846106E0C0F368
:105A80008461F1E790FAA0F1B1FA81F101F101012D
:105A900001F01F0146EA816102D1C0F3846003E096
:105AA00090FAA0F0B0FA80F000F1010000F01F00C1
:105AB0002B4A00EB400002EB005041EA000141F0AC
:105AC0000071AA68206801F0D0FD26482A680242C9
:105AD0003FF47CAE24488168244D254B01F0E071F1
